{
  "_format": "hh-sol-artifact-1",
  "contractName": "SwipeGigApplications",
  "sourceName": "contracts/SwipeGigApplications.sol",
  "abi": [
    {
      "inputs": [
        {
          "internalType": "address",
          "name": "_backendSigner",
          "type": "address"
        }
      ],
      "stateMutability": "nonpayable",
      "type": "constructor"
    },
    {
      "inputs": [
        {
          "internalType": "address",
          "name": "owner",
          "type": "address"
        }
      ],
      "name": "OwnableInvalidOwner",
      "type": "error"
    },
    {
      "inputs": [
        {
          "internalType": "address",
          "name": "account",
          "type": "address"
        }
      ],
      "name": "OwnableUnauthorizedAccount",
      "type": "error"
    },
    {
      "anonymous": false,
      "inputs": [
        {
          "indexed": true,
          "internalType": "address",
          "name": "applicant",
          "type": "address"
        },
        {
          "indexed": false,
          "internalType": "string",
          "name": "jobId",
          "type": "string"
        },
        {
          "indexed": false,
          "internalType": "string",
          "name": "company",
          "type": "string"
        },
        {
          "indexed": false,
          "internalType": "uint256",
          "name": "timestamp",
          "type": "uint256"
        }
      ],
      "name": "ApplicationRecorded",
      "type": "event"
    },
    {
      "anonymous": false,
      "inputs": [
        {
          "indexed": true,
          "internalType": "address",
          "name": "applicant",
          "type": "address"
        },
        {
          "indexed": false,
          "internalType": "uint256",
          "name": "applicationIndex",
          "type": "uint256"
        },
        {
          "indexed": false,
          "internalType": "uint8",
          "name": "newStatus",
          "type": "uint8"
        }
      ],
      "name": "ApplicationStatusUpdated",
      "type": "event"
    },
    {
      "anonymous": false,
      "inputs": [
        {
          "indexed": true,
          "internalType": "address",
          "name": "previousOwner",
          "type": "address"
        },
        {
          "indexed": true,
          "internalType": "address",
          "name": "newOwner",
          "type": "address"
        }
      ],
      "name": "OwnershipTransferred",
      "type": "event"
    },
    {
      "inputs": [
        {
          "internalType": "address",
          "name": "",
          "type": "address"
        }
      ],
      "name": "applicationCount",
      "outputs": [
        {
          "internalType": "uint256",
          "name": "",
          "type": "uint256"
        }
      ],
      "stateMutability": "view",
      "type": "function"
    },
    {
      "inputs": [],
      "name": "backendSigner",
      "outputs": [
        {
          "internalType": "address",
          "name": "",
          "type": "address"
        }
      ],
      "stateMutability": "view",
      "type": "function"
    },
    {
      "inputs": [
        {
          "internalType": "address",
          "name": "applicant",
          "type": "address"
        }
      ],
      "name": "getApplications",
      "outputs": [
        {
          "components": [
            {
              "internalType": "address",
              "name": "applicant",
              "type": "address"
            },
            {
              "internalType": "string",
              "name": "jobId",
              "type": "string"
            },
            {
              "internalType": "string",
              "name": "company",
              "type": "string"
            },
            {
              "internalType": "uint256",
              "name": "appliedAt",
              "type": "uint256"
            },
            {
              "internalType": "uint8",
              "name": "status",
              "type": "uint8"
            }
          ],
          "internalType": "struct SwipeGigApplications.Application[]",
          "name": "",
          "type": "tuple[]"
        }
      ],
      "stateMutability": "view",
      "type": "function"
    },
    {
      "inputs": [],
      "name": "owner",
      "outputs": [
        {
          "internalType": "address",
          "name": "",
          "type": "address"
        }
      ],
      "stateMutability": "view",
      "type": "function"
    },
    {
      "inputs": [
        {
          "internalType": "address",
          "name": "applicant",
          "type": "address"
        },
        {
          "internalType": "string",
          "name": "jobId",
          "type": "string"
        },
        {
          "internalType": "string",
          "name": "company",
          "type": "string"
        }
      ],
      "name": "recordApplication",
      "outputs": [],
      "stateMutability": "nonpayable",
      "type": "function"
    },
    {
      "inputs": [],
      "name": "renounceOwnership",
      "outputs": [],
      "stateMutability": "nonpayable",
      "type": "function"
    },
    {
      "inputs": [
        {
          "internalType": "address",
          "name": "_signer",
          "type": "address"
        }
      ],
      "name": "setBackendSigner",
      "outputs": [],
      "stateMutability": "nonpayable",
      "type": "function"
    },
    {
      "inputs": [
        {
          "internalType": "address",
          "name": "newOwner",
          "type": "address"
        }
      ],
      "name": "transferOwnership",
      "outputs": [],
      "stateMutability": "nonpayable",
      "type": "function"
    },
    {
      "inputs": [
        {
          "internalType": "address",
          "name": "applicant",
          "type": "address"
        },
        {
          "internalType": "uint256",
          "name": "index",
          "type": "uint256"
        },
        {
          "internalType": "uint8",
          "name": "status",
          "type": "uint8"
        }
      ],
      "name": "updateApplicationStatus",
      "outputs": [],
      "stateMutability": "nonpayable",
      "type": "function"
    },
    {
      "inputs": [
        {
          "internalType": "address",
          "name": "",
          "type": "address"
        },
        {
          "internalType": "uint256",
          "name": "",
          "type": "uint256"
        }
      ],
      "name": "userApplications",
      "outputs": [
        {
          "internalType": "address",
          "name": "applicant",
          "type": "address"
        },
        {
          "internalType": "string",
          "name": "jobId",
          "type": "string"
        },
        {
          "internalType": "string",
          "name": "company",
          "type": "string"
        },
        {
          "internalType": "uint256",
          "name": "appliedAt",
          "type": "uint256"
        },
        {
          "internalType": "uint8",
          "name": "status",
          "type": "uint8"
        }
      ],
      "stateMutability": "view",
      "type": "function"
    }
  ],
  "bytecode": "0x608060405234801561000f575f80fd5b50604051610edb380380610edb83398101604081905261002e916100d1565b338061005357604051631e4fbdf760e01b81525f600482015260240160405180910390fd5b61005c81610082565b50600380546001600160a01b0319166001600160a01b03929092169190911790556100fe565b5f80546001600160a01b038381166001600160a01b0319831681178455604051919092169283917f8be0079c531659141344cd1fd0a4f28419497f9722a3daafe3b4186f6b6457e09190a35050565b5f602082840312156100e1575f80fd5b81516001600160a01b03811681146100f7575f80fd5b9392505050565b610dd08061010b5f395ff3fe608060405234801561000f575f80fd5b506004361061009b575f3560e01c8063715018a611610063578063715018a61461014c5780637ba0249f146101545780638da5cb5b14610167578063b907140d14610177578063f2fde38b14610197575f80fd5b80630d395eb91461009f57806336f95670146100cc5780635d609d17146100e157806365d65e86146100f45780636aef14ca1461011f575b5f80fd5b6100b26100ad366004610918565b6101aa565b6040516100c3959493929190610983565b60405180910390f35b6100df6100da3660046109d4565b610310565b005b6100df6100ef3660046109f4565b61033a565b600354610107906001600160a01b031681565b6040516001600160a01b0390911681526020016100c3565b61013e61012d3660046109d4565b60026020525f908152604090205481565b6040519081526020016100c3565b6100df61047a565b6100df610162366004610a7b565b61048d565b5f546001600160a01b0316610107565b61018a6101853660046109d4565b61067f565b6040516100c39190610af6565b6100df6101a53660046109d4565b610845565b6001602052815f5260405f2081815481106101c3575f80fd5b5f918252602090912060059091020180546001820180546001600160a01b0390921694509192506101f390610ba9565b80601f016020809104026020016040519081016040528092919081815260200182805461021f90610ba9565b801561026a5780601f106102415761010080835404028352916020019161026a565b820191905f5260205f20905b81548152906001019060200180831161024d57829003601f168201915b50505050509080600201805461027f90610ba9565b80601f01602080910402602001604051908101604052809291908181526020018280546102ab90610ba9565b80156102f65780601f106102cd576101008083540402835291602001916102f6565b820191905f5260205f20905b8154815290600101906020018083116102d957829003601f168201915b50505050600383015460049093015491929160ff16905085565b610318610882565b600380546001600160a01b0319166001600160a01b0392909216919091179055565b6003546001600160a01b0316331461038a5760405162461bcd60e51b815260206004820152600e60248201526d139bdd08185d5d1a1bdc9a5e995960921b60448201526064015b60405180910390fd5b6001600160a01b0383165f9081526001602052604090205482106103e05760405162461bcd60e51b815260206004820152600d60248201526c092dcecc2d8d2c840d2dcc8caf609b1b6044820152606401610381565b6001600160a01b0383165f90815260016020526040902080548291908490811061040c5761040c610be1565b5f91825260209182902060059190910201600401805460ff191660ff93841617905560408051858152928416918301919091526001600160a01b038516917faeb14390118bb0a7b15d3d23cf76c77e4e02a51ee6ab6a453c61f97eef8b08d5910160405180910390a2505050565b610482610882565b61048b5f6108ae565b565b6003546001600160a01b031633146104d85760405162461bcd60e51b815260206004820152600e60248201526d139bdd08185d5d1a1bdc9a5e995960921b6044820152606401610381565b6001600160a01b0385165f81815260016020908152604091829020825160a0810184529384528251601f880183900483028101830190935286835292918282019188908890819084018382808284375f92019190915250505090825250604080516020601f8701819004810282018101909252858152918101919086908690819084018382808284375f92018290525093855250504260208085019190915260409093018290525083546001808201865594825290829020835160059092020180546001600160a01b0319166001600160a01b039092169190911781559082015191929091908201906105cb9082610c55565b50604082015160028201906105e09082610c55565b50606082015160038201556080909101516004909101805460ff191660ff9092169190911790556001600160a01b0385165f90815260026020526040812080549161062a83610d15565b9190505550846001600160a01b03167f5b2e76be7fa8efb099484f483df04fc3010d907a4aeccbdbb35d8a959f8f17fd8585858542604051610670959493929190610d61565b60405180910390a25050505050565b6001600160a01b0381165f908152600160209081526040808320805482518185028101850190935280835260609492939192909184015b8282101561083a575f8481526020908190206040805160a081019091526005850290910180546001600160a01b0316825260018101805492939192918401916106fe90610ba9565b80601f016020809104026020016040519081016040528092919081815260200182805461072a90610ba9565b80156107755780601f1061074c57610100808354040283529160200191610775565b820191905f5260205f20905b81548152906001019060200180831161075857829003601f168201915b5050505050815260200160028201805461078e90610ba9565b80601f01602080910402602001604051908101604052809291908181526020018280546107ba90610ba9565b80156108055780601f106107dc57610100808354040283529160200191610805565b820191905f5260205f20905b8154815290600101906020018083116107e857829003601f168201915b5050509183525050600382015460208083019190915260049092015460ff1660409091015290825260019290920191016106b6565b505050509050919050565b61084d610882565b6001600160a01b03811661087657604051631e4fbdf760e01b81525f6004820152602401610381565b61087f816108ae565b50565b5f546001600160a01b0316331461048b5760405163118cdaa760e01b8152336004820152602401610381565b5f80546001600160a01b038381166001600160a01b0319831681178455604051919092169283917f8be0079c531659141344cd1fd0a4f28419497f9722a3daafe3b4186f6b6457e09190a35050565b80356001600160a01b0381168114610913575f80fd5b919050565b5f8060408385031215610929575f80fd5b610932836108fd565b946020939093013593505050565b5f81518084525f5b8181101561096457602081850181015186830182015201610948565b505f602082860101526020601f19601f83011685010191505092915050565b6001600160a01b038616815260a0602082018190525f906109a690830187610940565b82810360408401526109b88187610940565b91505083606083015260ff831660808301529695505050505050565b5f602082840312156109e4575f80fd5b6109ed826108fd565b9392505050565b5f805f60608486031215610a06575f80fd5b610a0f846108fd565b925060208401359150604084013560ff81168114610a2b575f80fd5b809150509250925092565b5f8083601f840112610a46575f80fd5b50813567ffffffffffffffff811115610a5d575f80fd5b602083019150836020828501011115610a74575f80fd5b9250929050565b5f805f805f60608688031215610a8f575f80fd5b610a98866108fd565b9450602086013567ffffffffffffffff80821115610ab4575f80fd5b610ac089838a01610a36565b90965094506040880135915080821115610ad8575f80fd5b50610ae588828901610a36565b969995985093965092949392505050565b5f60208083018184528085518083526040925060408601915060408160051b8701018488015f5b83811015610b9b57888303603f19018552815180516001600160a01b031684528781015160a089860181905290610b5682870182610940565b9150508782015185820389870152610b6e8282610940565b6060848101519088015260809384015160ff16939096019290925250509386019390860190600101610b1d565b509098975050505050505050565b600181811c90821680610bbd57607f821691505b602082108103610bdb57634e487b7160e01b5f52602260045260245ffd5b50919050565b634e487b7160e01b5f52603260045260245ffd5b634e487b7160e01b5f52604160045260245ffd5b601f821115610c5057805f5260205f20601f840160051c81016020851015610c2e5750805b601f840160051c820191505b81811015610c4d575f8155600101610c3a565b50505b505050565b815167ffffffffffffffff811115610c6f57610c6f610bf5565b610c8381610c7d8454610ba9565b84610c09565b602080601f831160018114610cb6575f8415610c9f5750858301515b5f19600386901b1c1916600185901b178555610d0d565b5f85815260208120601f198616915b82811015610ce457888601518255948401946001909101908401610cc5565b5085821015610d0157878501515f19600388901b60f8161c191681555b505060018460011b0185555b505050505050565b5f60018201610d3257634e487b7160e01b5f52601160045260245ffd5b5060010190565b81835281816020850137505f828201602090810191909152601f909101601f19169091010190565b606081525f610d74606083018789610d39565b8281036020840152610d87818688610d39565b915050826040830152969550505050505056fea264697066735822122085feb0b7b4e1045dcf3c73193c99eadcf378fde4fa81e27e40b60fd44cae181c64736f6c63430008180033",
  "linkReferences": {},
  "deployedLinkReferences": {}
}