{
  "_format": "hh-sol-artifact-1",
  "contractName": "SwipeGigApplications",
  "sourceName": "contracts/SwipeGigApplications.sol",
  "abi": [
    {
      "inputs": [],
      "stateMutability": "nonpayable",
      "type": "constructor"
    },
    {
      "anonymous": false,
      "inputs": [
        {
          "indexed": true,
          "internalType": "address",
          "name": "user",
          "type": "address"
        },
        {
          "indexed": true,
          "internalType": "uint256",
          "name": "id",
          "type": "uint256"
        },
        {
          "indexed": false,
          "internalType": "string",
          "name": "jobId",
          "type": "string"
        },
        {
          "indexed": false,
          "internalType": "string",
          "name": "companyName",
          "type": "string"
        },
        {
          "indexed": false,
          "internalType": "uint256",
          "name": "timestamp",
          "type": "uint256"
        }
      ],
      "name": "ApplicationRecorded",
      "type": "event"
    },
    {
      "anonymous": false,
      "inputs": [
        {
          "indexed": true,
          "internalType": "address",
          "name": "previousOwner",
          "type": "address"
        },
        {
          "indexed": true,
          "internalType": "address",
          "name": "newOwner",
          "type": "address"
        }
      ],
      "name": "OwnershipTransferred",
      "type": "event"
    },
    {
      "anonymous": false,
      "inputs": [
        {
          "indexed": true,
          "internalType": "address",
          "name": "user",
          "type": "address"
        },
        {
          "indexed": true,
          "internalType": "uint256",
          "name": "id",
          "type": "uint256"
        },
        {
          "indexed": false,
          "internalType": "enum SwipeGigApplications.ApplicationStatus",
          "name": "status",
          "type": "uint8"
        },
        {
          "indexed": false,
          "internalType": "uint256",
          "name": "timestamp",
          "type": "uint256"
        }
      ],
      "name": "StatusUpdated",
      "type": "event"
    },
    {
      "inputs": [
        {
          "internalType": "address",
          "name": "user",
          "type": "address"
        }
      ],
      "name": "getApplications",
      "outputs": [
        {
          "components": [
            {
              "internalType": "uint256",
              "name": "id",
              "type": "uint256"
            },
            {
              "internalType": "string",
              "name": "jobId",
              "type": "string"
            },
            {
              "internalType": "string",
              "name": "companyName",
              "type": "string"
            },
            {
              "internalType": "enum SwipeGigApplications.ApplicationStatus",
              "name": "status",
              "type": "uint8"
            },
            {
              "internalType": "uint256",
              "name": "timestamp",
              "type": "uint256"
            }
          ],
          "internalType": "struct SwipeGigApplications.ApplicationRecord[]",
          "name": "",
          "type": "tuple[]"
        }
      ],
      "stateMutability": "view",
      "type": "function"
    },
    {
      "inputs": [],
      "name": "nextApplicationId",
      "outputs": [
        {
          "internalType": "uint256",
          "name": "",
          "type": "uint256"
        }
      ],
      "stateMutability": "view",
      "type": "function"
    },
    {
      "inputs": [],
      "name": "owner",
      "outputs": [
        {
          "internalType": "address",
          "name": "",
          "type": "address"
        }
      ],
      "stateMutability": "view",
      "type": "function"
    },
    {
      "inputs": [
        {
          "internalType": "address",
          "name": "user",
          "type": "address"
        },
        {
          "internalType": "string",
          "name": "jobId",
          "type": "string"
        },
        {
          "internalType": "string",
          "name": "companyName",
          "type": "string"
        }
      ],
      "name": "recordApplication",
      "outputs": [
        {
          "internalType": "uint256",
          "name": "",
          "type": "uint256"
        }
      ],
      "stateMutability": "nonpayable",
      "type": "function"
    },
    {
      "inputs": [
        {
          "internalType": "address",
          "name": "newOwner",
          "type": "address"
        }
      ],
      "name": "transferOwnership",
      "outputs": [],
      "stateMutability": "nonpayable",
      "type": "function"
    },
    {
      "inputs": [
        {
          "internalType": "address",
          "name": "user",
          "type": "address"
        },
        {
          "internalType": "uint256",
          "name": "appId",
          "type": "uint256"
        },
        {
          "internalType": "enum SwipeGigApplications.ApplicationStatus",
          "name": "status",
          "type": "uint8"
        }
      ],
      "name": "updateStatus",
      "outputs": [],
      "stateMutability": "nonpayable",
      "type": "function"
    }
  ],
  "bytecode": "0x608060405234801561001057600080fd5b50600080546001600160a01b031916339081178255604051909182917f8be0079c531659141344cd1fd0a4f28419497f9722a3daafe3b4186f6b6457e0908290a350610c7a806100616000396000f3fe608060405234801561001057600080fd5b50600436106100625760003560e01c8063625338cb146100675780637ba0249f146100835780638da5cb5b14610096578063b907140d146100b1578063f2fde38b146100d1578063f62924f1146100e6575b600080fd5b61007060025481565b6040519081526020015b60405180910390f35b6100706100913660046107e0565b6100f9565b6000546040516001600160a01b03909116815260200161007a565b6100c46100bf366004610861565b61032a565b60405161007a9190610901565b6100e46100df366004610861565b61050a565b005b6100e46100f43660046109b1565b610603565b60003361010e6000546001600160a01b031690565b6001600160a01b03161461013d5760405162461bcd60e51b8152600401610134906109f5565b60405180910390fd5b6001600160a01b03861661018a5760405162461bcd60e51b8152602060048201526014602482015273496e76616c69642075736572206164647265737360601b6044820152606401610134565b600280546000918261019b83610a2a565b91905055905060016000886001600160a01b03166001600160a01b031681526020019081526020016000206040518060a0016040528083815260200188888080601f016020809104026020016040519081016040528093929190818152602001838380828437600092019190915250505090825250604080516020601f8901819004810282018101909252878152918101919088908890819084018382808284376000920182905250938552505060209092019150815242602091820152825460018181018555600094855293829020835160059092020190815590820151919290919082019061028c9082610af0565b50604082015160028201906102a19082610af0565b50606082015160038201805460ff191660018360048111156102c5576102c56108c9565b021790555060808201518160040155505080876001600160a01b03167f2b672ef2eceb57360dd03199c7ca56e43a7cdee3d17efef8afb3957360bedb088888888842604051610318959493929190610bd9565b60405180910390a39695505050505050565b6001600160a01b0381166000908152600160209081526040808320805482518185028101850190935280835260609492939192909184015b828210156104ff57838290600052602060002090600502016040518060a00160405290816000820154815260200160018201805461039f90610a67565b80601f01602080910402602001604051908101604052809291908181526020018280546103cb90610a67565b80156104185780601f106103ed57610100808354040283529160200191610418565b820191906000526020600020905b8154815290600101906020018083116103fb57829003601f168201915b5050505050815260200160028201805461043190610a67565b80601f016020809104026020016040519081016040528092919081815260200182805461045d90610a67565b80156104aa5780601f1061047f576101008083540402835291602001916104aa565b820191906000526020600020905b81548152906001019060200180831161048d57829003601f168201915b5050509183525050600382015460209091019060ff1660048111156104d1576104d16108c9565b60048111156104e2576104e26108c9565b815260200160048201548152505081526020019060010190610362565b505050509050919050565b3361051d6000546001600160a01b031690565b6001600160a01b0316146105435760405162461bcd60e51b8152600401610134906109f5565b6001600160a01b0381166105a85760405162461bcd60e51b815260206004820152602660248201527f4f776e61626c653a206e6577206f776e657220697320746865207a65726f206160448201526564647265737360d01b6064820152608401610134565b600080546040516001600160a01b03808516939216917f8be0079c531659141344cd1fd0a4f28419497f9722a3daafe3b4186f6b6457e091a3600080546001600160a01b0319166001600160a01b0392909216919091179055565b336106166000546001600160a01b031690565b6001600160a01b03161461063c5760405162461bcd60e51b8152600401610134906109f5565b6001600160a01b038316600090815260016020526040812090805b825481101561072e578483828154811061067357610673610c13565b9060005260206000209060050201600001540361071c578383828154811061069d5761069d610c13565b60009182526020909120600360059092020101805460ff191660018360048111156106ca576106ca6108c9565b02179055506001915084866001600160a01b03167f07729a32b41c60015af319b05cc4600934abc964caa0a9eb2042ecc494d77797864260405161070f929190610c29565b60405180910390a361072e565b8061072681610a2a565b915050610657565b50806107745760405162461bcd60e51b8152602060048201526015602482015274105c1c1b1a58d85d1a5bdb881b9bdd08199bdd5b99605a1b6044820152606401610134565b5050505050565b80356001600160a01b038116811461079257600080fd5b919050565b60008083601f8401126107a957600080fd5b50813567ffffffffffffffff8111156107c157600080fd5b6020830191508360208285010111156107d957600080fd5b9250929050565b6000806000806000606086880312156107f857600080fd5b6108018661077b565b9450602086013567ffffffffffffffff8082111561081e57600080fd5b61082a89838a01610797565b9096509450604088013591508082111561084357600080fd5b5061085088828901610797565b969995985093965092949392505050565b60006020828403121561087357600080fd5b61087c8261077b565b9392505050565b6000815180845260005b818110156108a95760208185018101518683018201520161088d565b506000602082860101526020601f19601f83011685010191505092915050565b634e487b7160e01b600052602160045260246000fd5b600581106108fd57634e487b7160e01b600052602160045260246000fd5b9052565b60006020808301818452808551808352604092508286019150828160051b87010184880160005b838110156109a357603f19898403018552815160a08151855288820151818a87015261095682870182610883565b915050878201518582038987015261096e8282610883565b915050606080830151610983828801826108df565b505060809182015194909101939093529386019390860190600101610928565b509098975050505050505050565b6000806000606084860312156109c657600080fd5b6109cf8461077b565b9250602084013591506040840135600581106109ea57600080fd5b809150509250925092565b6020808252818101527f4f776e61626c653a2063616c6c6572206973206e6f7420746865206f776e6572604082015260600190565b600060018201610a4a57634e487b7160e01b600052601160045260246000fd5b5060010190565b634e487b7160e01b600052604160045260246000fd5b600181811c90821680610a7b57607f821691505b602082108103610a9b57634e487b7160e01b600052602260045260246000fd5b50919050565b601f821115610aeb57600081815260208120601f850160051c81016020861015610ac85750805b601f850160051c820191505b81811015610ae757828155600101610ad4565b5050505b505050565b815167ffffffffffffffff811115610b0a57610b0a610a51565b610b1e81610b188454610a67565b84610aa1565b602080601f831160018114610b535760008415610b3b5750858301515b600019600386901b1c1916600185901b178555610ae7565b600085815260208120601f198616915b82811015610b8257888601518255948401946001909101908401610b63565b5085821015610ba05787850151600019600388901b60f8161c191681555b5050505050600190811b01905550565b81835281816020850137506000828201602090810191909152601f909101601f19169091010190565b606081526000610bed606083018789610bb0565b8281036020840152610c00818688610bb0565b9150508260408301529695505050505050565b634e487b7160e01b600052603260045260246000fd5b60408101610c3782856108df565b826020830152939250505056fea2646970667358221220f251c9a1e3fece284f6df6c102d0e54c38a234554920090b5c117f8450f91de164736f6c63430008140033",
  "linkReferences": {},
  "deployedLinkReferences": {}
}