{
  "_format": "hh-sol-artifact-1",
  "contractName": "SwipeGigPool",
  "sourceName": "contracts/SwipeGigPool.sol",
  "abi": [
    {
      "inputs": [
        {
          "internalType": "address",
          "name": "_gToken",
          "type": "address"
        },
        {
          "internalType": "address",
          "name": "_backendSigner",
          "type": "address"
        }
      ],
      "stateMutability": "nonpayable",
      "type": "constructor"
    },
    {
      "inputs": [
        {
          "internalType": "address",
          "name": "owner",
          "type": "address"
        }
      ],
      "name": "OwnableInvalidOwner",
      "type": "error"
    },
    {
      "inputs": [
        {
          "internalType": "address",
          "name": "account",
          "type": "address"
        }
      ],
      "name": "OwnableUnauthorizedAccount",
      "type": "error"
    },
    {
      "anonymous": false,
      "inputs": [
        {
          "indexed": true,
          "internalType": "address",
          "name": "previousOwner",
          "type": "address"
        },
        {
          "indexed": true,
          "internalType": "address",
          "name": "newOwner",
          "type": "address"
        }
      ],
      "name": "OwnershipTransferred",
      "type": "event"
    },
    {
      "anonymous": false,
      "inputs": [
        {
          "indexed": true,
          "internalType": "address",
          "name": "donor",
          "type": "address"
        },
        {
          "indexed": false,
          "internalType": "uint256",
          "name": "amount",
          "type": "uint256"
        },
        {
          "indexed": false,
          "internalType": "uint256",
          "name": "timestamp",
          "type": "uint256"
        }
      ],
      "name": "PoolFunded",
      "type": "event"
    },
    {
      "anonymous": false,
      "inputs": [
        {
          "indexed": true,
          "internalType": "address",
          "name": "user",
          "type": "address"
        },
        {
          "indexed": false,
          "internalType": "uint256",
          "name": "amount",
          "type": "uint256"
        },
        {
          "indexed": false,
          "internalType": "uint256",
          "name": "timestamp",
          "type": "uint256"
        }
      ],
      "name": "StreamClaimed",
      "type": "event"
    },
    {
      "anonymous": false,
      "inputs": [
        {
          "indexed": true,
          "internalType": "address",
          "name": "user",
          "type": "address"
        },
        {
          "indexed": false,
          "internalType": "uint256",
          "name": "timestamp",
          "type": "uint256"
        }
      ],
      "name": "StreamerAdded",
      "type": "event"
    },
    {
      "anonymous": false,
      "inputs": [
        {
          "indexed": true,
          "internalType": "address",
          "name": "user",
          "type": "address"
        },
        {
          "indexed": false,
          "internalType": "uint256",
          "name": "timestamp",
          "type": "uint256"
        }
      ],
      "name": "StreamerRemoved",
      "type": "event"
    },
    {
      "inputs": [],
      "name": "activeStreamerCount",
      "outputs": [
        {
          "internalType": "uint256",
          "name": "",
          "type": "uint256"
        }
      ],
      "stateMutability": "view",
      "type": "function"
    },
    {
      "inputs": [
        {
          "internalType": "uint256",
          "name": "",
          "type": "uint256"
        }
      ],
      "name": "activeStreamers",
      "outputs": [
        {
          "internalType": "address",
          "name": "",
          "type": "address"
        }
      ],
      "stateMutability": "view",
      "type": "function"
    },
    {
      "inputs": [
        {
          "internalType": "address",
          "name": "user",
          "type": "address"
        }
      ],
      "name": "addStreamer",
      "outputs": [],
      "stateMutability": "nonpayable",
      "type": "function"
    },
    {
      "inputs": [],
      "name": "backendSigner",
      "outputs": [
        {
          "internalType": "address",
          "name": "",
          "type": "address"
        }
      ],
      "stateMutability": "view",
      "type": "function"
    },
    {
      "inputs": [],
      "name": "claimStream",
      "outputs": [],
      "stateMutability": "nonpayable",
      "type": "function"
    },
    {
      "inputs": [
        {
          "internalType": "address",
          "name": "user",
          "type": "address"
        }
      ],
      "name": "claimableAmount",
      "outputs": [
        {
          "internalType": "uint256",
          "name": "",
          "type": "uint256"
        }
      ],
      "stateMutability": "view",
      "type": "function"
    },
    {
      "inputs": [
        {
          "internalType": "uint256",
          "name": "amount",
          "type": "uint256"
        }
      ],
      "name": "fundPool",
      "outputs": [],
      "stateMutability": "nonpayable",
      "type": "function"
    },
    {
      "inputs": [],
      "name": "gToken",
      "outputs": [
        {
          "internalType": "contract IERC20",
          "name": "",
          "type": "address"
        }
      ],
      "stateMutability": "view",
      "type": "function"
    },
    {
      "inputs": [],
      "name": "owner",
      "outputs": [
        {
          "internalType": "address",
          "name": "",
          "type": "address"
        }
      ],
      "stateMutability": "view",
      "type": "function"
    },
    {
      "inputs": [],
      "name": "poolBalance",
      "outputs": [
        {
          "internalType": "uint256",
          "name": "",
          "type": "uint256"
        }
      ],
      "stateMutability": "view",
      "type": "function"
    },
    {
      "inputs": [
        {
          "internalType": "address",
          "name": "user",
          "type": "address"
        }
      ],
      "name": "removeStreamer",
      "outputs": [],
      "stateMutability": "nonpayable",
      "type": "function"
    },
    {
      "inputs": [],
      "name": "renounceOwnership",
      "outputs": [],
      "stateMutability": "nonpayable",
      "type": "function"
    },
    {
      "inputs": [
        {
          "internalType": "address",
          "name": "_signer",
          "type": "address"
        }
      ],
      "name": "setBackendSigner",
      "outputs": [],
      "stateMutability": "nonpayable",
      "type": "function"
    },
    {
      "inputs": [
        {
          "internalType": "uint256",
          "name": "rate",
          "type": "uint256"
        }
      ],
      "name": "setStreamRate",
      "outputs": [],
      "stateMutability": "nonpayable",
      "type": "function"
    },
    {
      "inputs": [],
      "name": "streamRatePerSecond",
      "outputs": [
        {
          "internalType": "uint256",
          "name": "",
          "type": "uint256"
        }
      ],
      "stateMutability": "view",
      "type": "function"
    },
    {
      "inputs": [
        {
          "internalType": "address",
          "name": "",
          "type": "address"
        }
      ],
      "name": "streamers",
      "outputs": [
        {
          "internalType": "bool",
          "name": "isActive",
          "type": "bool"
        },
        {
          "internalType": "uint256",
          "name": "lastClaimedAt",
          "type": "uint256"
        },
        {
          "internalType": "uint256",
          "name": "totalClaimed",
          "type": "uint256"
        },
        {
          "internalType": "uint256",
          "name": "joinedAt",
          "type": "uint256"
        }
      ],
      "stateMutability": "view",
      "type": "function"
    },
    {
      "inputs": [
        {
          "internalType": "address",
          "name": "newOwner",
          "type": "address"
        }
      ],
      "name": "transferOwnership",
      "outputs": [],
      "stateMutability": "nonpayable",
      "type": "function"
    }
  ],
  "bytecode": "0x6080604052655af3107a4000600355348015610019575f80fd5b50604051610cc5380380610cc583398101604081905261003891610102565b338061005d57604051631e4fbdf760e01b81525f600482015260240160405180910390fd5b61006681610098565b50600180546001600160a01b039384166001600160a01b03199182161790915560028054929093169116179055610133565b5f80546001600160a01b038381166001600160a01b0319831681178455604051919092169283917f8be0079c531659141344cd1fd0a4f28419497f9722a3daafe3b4186f6b6457e09190a35050565b80516001600160a01b03811681146100fd575f80fd5b919050565b5f8060408385031215610113575f80fd5b61011c836100e7565b915061012a602084016100e7565b90509250929050565b610b85806101405f395ff3fe608060405234801561000f575f80fd5b5060043610610106575f3560e01c806388c0d78e1161009e57806396365d441161006e57806396365d4414610240578063da3a5f7214610248578063e4951f321461025b578063f2fde38b14610263578063f816962314610276575f80fd5b806388c0d78e146101f7578063898850491461020a5780638da5cb5b1461021d578063900584311461022d575f80fd5b8063593f091e116100d9578063593f091e146101a857806365d65e86146101b1578063715018a6146101dc57806376ffb9bd146101e4575f80fd5b80631dd071641461010a57806331addbea1461016957806336f956701461018057806356d5e51a14610195575b5f80fd5b610142610118366004610a51565b60046020525f9081526040902080546001820154600283015460039093015460ff90921692909184565b60408051941515855260208501939093529183015260608201526080015b60405180910390f35b61017260065481565b604051908152602001610160565b61019361018e366004610a51565b610289565b005b6101936101a3366004610a51565b6102b3565b61017260035481565b6002546101c4906001600160a01b031681565b6040516001600160a01b039091168152602001610160565b6101936103d2565b6001546101c4906001600160a01b031681565b610193610205366004610a7e565b6103e5565b610172610218366004610a51565b6103f2565b5f546001600160a01b03166101c4565b61019361023b366004610a51565b610475565b610172610609565b610193610256366004610a7e565b610678565b610193610728565b610193610271366004610a51565b610971565b6101c4610284366004610a7e565b6109ae565b6102916109d6565b600280546001600160a01b0319166001600160a01b0392909216919091179055565b6002546001600160a01b031633146103035760405162461bcd60e51b815260206004820152600e60248201526d139bdd08185d5d1a1bdc9a5e995960921b60448201526064015b60405180910390fd5b6001600160a01b0381165f9081526004602052604090205460ff1661035a5760405162461bcd60e51b815260206004820152600d60248201526c4e6f742073747265616d696e6760981b60448201526064016102fa565b6001600160a01b0381165f908152600460205260408120805460ff19169055600680549161038783610aa9565b9190505550806001600160a01b03167f2308e7554697bd504b07a3eda005214475197a66b04a97ae16a01b0d19fcc029426040516103c791815260200190565b60405180910390a250565b6103da6109d6565b6103e35f610a02565b565b6103ed6109d6565b600355565b6001600160a01b0381165f9081526004602090815260408083208151608081018352815460ff1615158082526001830154948201949094526002820154928101929092526003015460608201529061044c57505f92915050565b5f81602001514261045d9190610abe565b90506003548161046d9190610ad7565b949350505050565b6002546001600160a01b031633146104c05760405162461bcd60e51b815260206004820152600e60248201526d139bdd08185d5d1a1bdc9a5e995960921b60448201526064016102fa565b6001600160a01b0381165f9081526004602052604090205460ff161561051c5760405162461bcd60e51b8152602060048201526011602482015270416c72656164792073747265616d696e6760781b60448201526064016102fa565b6040805160808101825260018082524260208084018281525f858701818152606087019485526001600160a01b03891680835260049094529681209551865460ff191690151517865590518585015594516002850155905160039093019290925560058054918201815583527f036b6384b5eca791c62761152d0c79bb0604c104a5fb6f4eb0703f3154bb3db00180546001600160a01b031916909117905560068054916105c983610aee565b9190505550806001600160a01b03167f877cf097b8a3161ca5eaf6142e5ec40363730ccd41069d0ca18bfd9f1c2f11d0426040516103c791815260200190565b6001546040516370a0823160e01b81523060048201525f916001600160a01b0316906370a0823190602401602060405180830381865afa15801561064f573d5f803e3d5ffd5b505050506040513d601f19601f820116820180604052508101906106739190610b06565b905090565b6001546040516323b872dd60e01b8152336004820152306024820152604481018390526001600160a01b03909116906323b872dd906064016020604051808303815f875af11580156106cc573d5f803e3d5ffd5b505050506040513d601f19601f820116820180604052508101906106f09190610b1d565b506040805182815242602082015233917fce66f10ae4269ec7bfd83e4659aed202bd4efb93d241bae453642969c2f079d391016103c7565b335f908152600460205260409020805460ff166107805760405162461bcd60e51b81526020600482015260166024820152752737ba1030b71030b1ba34bb329039ba3932b0b6b2b960511b60448201526064016102fa565b5f8160010154426107919190610abe565b90505f600354826107a29190610ad7565b90505f81116107e65760405162461bcd60e51b815260206004820152601060248201526f4e6f7468696e6720746f20636c61696d60801b60448201526064016102fa565b6001546040516370a0823160e01b815230600482015282916001600160a01b0316906370a0823190602401602060405180830381865afa15801561082c573d5f803e3d5ffd5b505050506040513d601f19601f820116820180604052508101906108509190610b06565b101561089e5760405162461bcd60e51b815260206004820152601760248201527f506f6f6c20696e73756666696369656e742066756e647300000000000000000060448201526064016102fa565b42836001018190555080836002015f8282546108ba9190610b3c565b909155505060015460405163a9059cbb60e01b8152336004820152602481018390526001600160a01b039091169063a9059cbb906044016020604051808303815f875af115801561090d573d5f803e3d5ffd5b505050506040513d601f19601f820116820180604052508101906109319190610b1d565b506040805182815242602082015233917ff0c7417137ff1580f5ffd60b1cc0f9afe8b20bebeeafbb2b8c0f9a4cf600d599910160405180910390a2505050565b6109796109d6565b6001600160a01b0381166109a257604051631e4fbdf760e01b81525f60048201526024016102fa565b6109ab81610a02565b50565b600581815481106109bd575f80fd5b5f918252602090912001546001600160a01b0316905081565b5f546001600160a01b031633146103e35760405163118cdaa760e01b81523360048201526024016102fa565b5f80546001600160a01b038381166001600160a01b0319831681178455604051919092169283917f8be0079c531659141344cd1fd0a4f28419497f9722a3daafe3b4186f6b6457e09190a35050565b5f60208284031215610a61575f80fd5b81356001600160a01b0381168114610a77575f80fd5b9392505050565b5f60208284031215610a8e575f80fd5b5035919050565b634e487b7160e01b5f52601160045260245ffd5b5f81610ab757610ab7610a95565b505f190190565b81810381811115610ad157610ad1610a95565b92915050565b8082028115828204841417610ad157610ad1610a95565b5f60018201610aff57610aff610a95565b5060010190565b5f60208284031215610b16575f80fd5b5051919050565b5f60208284031215610b2d575f80fd5b81518015158114610a77575f80fd5b80820180821115610ad157610ad1610a9556fea2646970667358221220ab79c3ef504d50271c0ea783a07eea0cde443814f7766f356b24b5c2238184c364736f6c63430008180033",
  "linkReferences": {},
  "deployedLinkReferences": {}
}