{
  "_format": "hh-sol-artifact-1",
  "contractName": "SwipeGigPool",
  "sourceName": "contracts/SwipeGigPool.sol",
  "abi": [
    {
      "inputs": [
        {
          "internalType": "address",
          "name": "_goodDollarToken",
          "type": "address"
        },
        {
          "internalType": "uint256",
          "name": "_weeklyClaimAmount",
          "type": "uint256"
        },
        {
          "internalType": "uint256",
          "name": "_activityThreshold",
          "type": "uint256"
        }
      ],
      "stateMutability": "nonpayable",
      "type": "constructor"
    },
    {
      "anonymous": false,
      "inputs": [
        {
          "indexed": true,
          "internalType": "address",
          "name": "user",
          "type": "address"
        },
        {
          "indexed": false,
          "internalType": "uint256",
          "name": "newActivityCount",
          "type": "uint256"
        },
        {
          "indexed": false,
          "internalType": "uint256",
          "name": "timestamp",
          "type": "uint256"
        }
      ],
      "name": "ActivityLogged",
      "type": "event"
    },
    {
      "anonymous": false,
      "inputs": [
        {
          "indexed": true,
          "internalType": "address",
          "name": "user",
          "type": "address"
        },
        {
          "indexed": false,
          "internalType": "uint256",
          "name": "amount",
          "type": "uint256"
        },
        {
          "indexed": false,
          "internalType": "uint256",
          "name": "timestamp",
          "type": "uint256"
        }
      ],
      "name": "Claimed",
      "type": "event"
    },
    {
      "anonymous": false,
      "inputs": [
        {
          "indexed": true,
          "internalType": "address",
          "name": "previousOwner",
          "type": "address"
        },
        {
          "indexed": true,
          "internalType": "address",
          "name": "newOwner",
          "type": "address"
        }
      ],
      "name": "OwnershipTransferred",
      "type": "event"
    },
    {
      "anonymous": false,
      "inputs": [
        {
          "indexed": true,
          "internalType": "address",
          "name": "donor",
          "type": "address"
        },
        {
          "indexed": false,
          "internalType": "uint256",
          "name": "amount",
          "type": "uint256"
        },
        {
          "indexed": false,
          "internalType": "uint256",
          "name": "timestamp",
          "type": "uint256"
        }
      ],
      "name": "PoolFunded",
      "type": "event"
    },
    {
      "inputs": [],
      "name": "activityThreshold",
      "outputs": [
        {
          "internalType": "uint256",
          "name": "",
          "type": "uint256"
        }
      ],
      "stateMutability": "view",
      "type": "function"
    },
    {
      "inputs": [],
      "name": "claimWeeklyReward",
      "outputs": [],
      "stateMutability": "nonpayable",
      "type": "function"
    },
    {
      "inputs": [
        {
          "internalType": "uint256",
          "name": "amount",
          "type": "uint256"
        }
      ],
      "name": "fundPool",
      "outputs": [],
      "stateMutability": "nonpayable",
      "type": "function"
    },
    {
      "inputs": [],
      "name": "goodDollarToken",
      "outputs": [
        {
          "internalType": "contract IERC20",
          "name": "",
          "type": "address"
        }
      ],
      "stateMutability": "view",
      "type": "function"
    },
    {
      "inputs": [
        {
          "internalType": "address",
          "name": "",
          "type": "address"
        }
      ],
      "name": "lastClaimedTimestamp",
      "outputs": [
        {
          "internalType": "uint256",
          "name": "",
          "type": "uint256"
        }
      ],
      "stateMutability": "view",
      "type": "function"
    },
    {
      "inputs": [
        {
          "internalType": "address",
          "name": "user",
          "type": "address"
        },
        {
          "internalType": "uint256",
          "name": "count",
          "type": "uint256"
        }
      ],
      "name": "logActivity",
      "outputs": [],
      "stateMutability": "nonpayable",
      "type": "function"
    },
    {
      "inputs": [],
      "name": "owner",
      "outputs": [
        {
          "internalType": "address",
          "name": "",
          "type": "address"
        }
      ],
      "stateMutability": "view",
      "type": "function"
    },
    {
      "inputs": [
        {
          "internalType": "address",
          "name": "user",
          "type": "address"
        }
      ],
      "name": "resetActivity",
      "outputs": [],
      "stateMutability": "nonpayable",
      "type": "function"
    },
    {
      "inputs": [
        {
          "internalType": "uint256",
          "name": "_weeklyClaimAmount",
          "type": "uint256"
        },
        {
          "internalType": "uint256",
          "name": "_activityThreshold",
          "type": "uint256"
        }
      ],
      "name": "setParams",
      "outputs": [],
      "stateMutability": "nonpayable",
      "type": "function"
    },
    {
      "inputs": [
        {
          "internalType": "address",
          "name": "newOwner",
          "type": "address"
        }
      ],
      "name": "transferOwnership",
      "outputs": [],
      "stateMutability": "nonpayable",
      "type": "function"
    },
    {
      "inputs": [
        {
          "internalType": "address",
          "name": "",
          "type": "address"
        }
      ],
      "name": "weeklyActivity",
      "outputs": [
        {
          "internalType": "uint256",
          "name": "",
          "type": "uint256"
        }
      ],
      "stateMutability": "view",
      "type": "function"
    },
    {
      "inputs": [],
      "name": "weeklyClaimAmount",
      "outputs": [
        {
          "internalType": "uint256",
          "name": "",
          "type": "uint256"
        }
      ],
      "stateMutability": "view",
      "type": "function"
    }
  ],
  "bytecode": "0x608060405234801561001057600080fd5b50604051610b10380380610b1083398101604081905261002f916100a0565b600080546001600160a01b031916339081178255604051909182917f8be0079c531659141344cd1fd0a4f28419497f9722a3daafe3b4186f6b6457e0908290a35060018055600280546001600160a01b0319166001600160a01b0394909416939093179092556003556004556100e3565b6000806000606084860312156100b557600080fd5b83516001600160a01b03811681146100cc57600080fd5b602085015160409095015190969495509392505050565b610a1e806100f26000396000f3fe608060405234801561001057600080fd5b50600436106100b45760003560e01c80638da5cb5b116100715780638da5cb5b1461015d578063c0324c771461016e578063d2f5f44614610181578063da3a5f721461018a578063e00643241461019d578063f2fde38b146101b057600080fd5b806302ee0efb146100b957806328c026a3146100ec57806334c93c0c1461011757806362371a721461012c5780636df087b9146101355780638bb9ab351461013d575b600080fd5b6100d96100c73660046108ca565b60056020526000908152604090205481565b6040519081526020015b60405180910390f35b6002546100ff906001600160a01b031681565b6040516001600160a01b0390911681526020016100e3565b61012a6101253660046108ec565b6101c3565b005b6100d960045481565b61012a610291565b6100d961014b3660046108ca565b60066020526000908152604090205481565b6000546001600160a01b03166100ff565b61012a61017c366004610916565b61058a565b6100d960035481565b61012a610198366004610938565b6105ce565b61012a6101ab3660046108ca565b610762565b61012a6101be3660046108ca565b6107b5565b336101d66000546001600160a01b031690565b6001600160a01b0316146102055760405162461bcd60e51b81526004016101fc90610951565b60405180910390fd5b6001600160a01b0382166000908152600660205260408120805483929061022d908490610986565b90915550506001600160a01b038216600081815260066020526040908190205490517f4baaea5232ccb0e3a5e41041d3f8ae77e093f9768e9b9a15d87e8d8bbcf159e791610285914290918252602082015260400190565b60405180910390a25050565b6002600154036102e35760405162461bcd60e51b815260206004820152601f60248201527f5265656e7472616e637947756172643a207265656e7472616e742063616c6c0060448201526064016101fc565b6002600155336000908152600560205260409020546103059062093a80610986565b42101561034c5760405162461bcd60e51b8152602060048201526015602482015274436c61696d206c696d6974206973207765656b6c7960581b60448201526064016101fc565b6004543360009081526006602052604090205410156103ad5760405162461bcd60e51b815260206004820152601b60248201527f496e73756666696369656e7420616374697669747920636f756e74000000000060448201526064016101fc565b6002546040516370a0823160e01b81523060048201526000916001600160a01b0316906370a0823190602401602060405180830381865afa1580156103f6573d6000803e3d6000fd5b505050506040513d601f19601f8201168201806040525081019061041a91906109ad565b905060035481101561046e5760405162461bcd60e51b815260206004820152601960248201527f496e73756666696369656e7420706f6f6c2066756e64696e670000000000000060448201526064016101fc565b336000818152600560209081526040808320429055600690915280822091909155600254600354915163a9059cbb60e01b8152600481019390935260248301919091526001600160a01b03169063a9059cbb906044016020604051808303816000875af11580156104e3573d6000803e3d6000fd5b505050506040513d601f19601f8201168201806040525081019061050791906109c6565b6105455760405162461bcd60e51b815260206004820152600f60248201526e151c985b9cd9995c8819985a5b1959608a1b60448201526064016101fc565b6003546040805191825242602083015233917f987d620f307ff6b94d58743cb7a7509f24071586a77759b77c2d4e29f75a2f9a91015b60405180910390a25060018055565b3361059d6000546001600160a01b031690565b6001600160a01b0316146105c35760405162461bcd60e51b81526004016101fc90610951565b600391909155600455565b6002600154036106205760405162461bcd60e51b815260206004820152601f60248201527f5265656e7472616e637947756172643a207265656e7472616e742063616c6c0060448201526064016101fc565b6002600155806106725760405162461bcd60e51b815260206004820181905260248201527f416d6f756e74206d7573742062652067726561746572207468616e207a65726f60448201526064016101fc565b6002546040516323b872dd60e01b8152336004820152306024820152604481018390526001600160a01b03909116906323b872dd906064016020604051808303816000875af11580156106c9573d6000803e3d6000fd5b505050506040513d601f19601f820116820180604052508101906106ed91906109c6565b61072b5760405162461bcd60e51b815260206004820152600f60248201526e151c985b9cd9995c8819985a5b1959608a1b60448201526064016101fc565b6040805182815242602082015233917fce66f10ae4269ec7bfd83e4659aed202bd4efb93d241bae453642969c2f079d3910161057b565b336107756000546001600160a01b031690565b6001600160a01b03161461079b5760405162461bcd60e51b81526004016101fc90610951565b6001600160a01b0316600090815260066020526040812055565b336107c86000546001600160a01b031690565b6001600160a01b0316146107ee5760405162461bcd60e51b81526004016101fc90610951565b6001600160a01b0381166108535760405162461bcd60e51b815260206004820152602660248201527f4f776e61626c653a206e6577206f776e657220697320746865207a65726f206160448201526564647265737360d01b60648201526084016101fc565b600080546040516001600160a01b03808516939216917f8be0079c531659141344cd1fd0a4f28419497f9722a3daafe3b4186f6b6457e091a3600080546001600160a01b0319166001600160a01b0392909216919091179055565b80356001600160a01b03811681146108c557600080fd5b919050565b6000602082840312156108dc57600080fd5b6108e5826108ae565b9392505050565b600080604083850312156108ff57600080fd5b610908836108ae565b946020939093013593505050565b6000806040838503121561092957600080fd5b50508035926020909101359150565b60006020828403121561094a57600080fd5b5035919050565b6020808252818101527f4f776e61626c653a2063616c6c6572206973206e6f7420746865206f776e6572604082015260600190565b808201808211156109a757634e487b7160e01b600052601160045260246000fd5b92915050565b6000602082840312156109bf57600080fd5b5051919050565b6000602082840312156109d857600080fd5b815180151581146108e557600080fdfea26469706673582212208ca03f7a6633f83d8712219295234b340d9efebdb1dfbbfb8704358d6b7efd0f64736f6c63430008140033",
  "linkReferences": {},
  "deployedLinkReferences": {}
}