{
  "_format": "hh-sol-artifact-1",
  "contractName": "SwipeGigWelcomeNFT",
  "sourceName": "contracts/SwipeGigWelcomeNFT.sol",
  "abi": [
    {
      "inputs": [],
      "stateMutability": "nonpayable",
      "type": "constructor"
    },
    {
      "anonymous": false,
      "inputs": [
        {
          "indexed": true,
          "internalType": "address",
          "name": "from",
          "type": "address"
        },
        {
          "indexed": true,
          "internalType": "address",
          "name": "to",
          "type": "address"
        },
        {
          "indexed": true,
          "internalType": "uint256",
          "name": "tokenId",
          "type": "uint256"
        }
      ],
      "name": "Transfer",
      "type": "event"
    },
    {
      "anonymous": false,
      "inputs": [
        {
          "indexed": true,
          "internalType": "address",
          "name": "recipient",
          "type": "address"
        },
        {
          "indexed": true,
          "internalType": "uint256",
          "name": "tokenId",
          "type": "uint256"
        },
        {
          "indexed": false,
          "internalType": "string",
          "name": "tokenURI",
          "type": "string"
        }
      ],
      "name": "WelcomeNFTMinted",
      "type": "event"
    },
    {
      "inputs": [
        {
          "internalType": "address",
          "name": "account",
          "type": "address"
        }
      ],
      "name": "balanceOf",
      "outputs": [
        {
          "internalType": "uint256",
          "name": "",
          "type": "uint256"
        }
      ],
      "stateMutability": "view",
      "type": "function"
    },
    {
      "inputs": [
        {
          "internalType": "address",
          "name": "to",
          "type": "address"
        },
        {
          "internalType": "string",
          "name": "uri",
          "type": "string"
        }
      ],
      "name": "mintWelcomeNFT",
      "outputs": [
        {
          "internalType": "uint256",
          "name": "",
          "type": "uint256"
        }
      ],
      "stateMutability": "nonpayable",
      "type": "function"
    },
    {
      "inputs": [],
      "name": "name",
      "outputs": [
        {
          "internalType": "string",
          "name": "",
          "type": "string"
        }
      ],
      "stateMutability": "view",
      "type": "function"
    },
    {
      "inputs": [],
      "name": "owner",
      "outputs": [
        {
          "internalType": "address",
          "name": "",
          "type": "address"
        }
      ],
      "stateMutability": "view",
      "type": "function"
    },
    {
      "inputs": [
        {
          "internalType": "uint256",
          "name": "tokenId",
          "type": "uint256"
        }
      ],
      "name": "ownerOf",
      "outputs": [
        {
          "internalType": "address",
          "name": "",
          "type": "address"
        }
      ],
      "stateMutability": "view",
      "type": "function"
    },
    {
      "inputs": [],
      "name": "symbol",
      "outputs": [
        {
          "internalType": "string",
          "name": "",
          "type": "string"
        }
      ],
      "stateMutability": "view",
      "type": "function"
    },
    {
      "inputs": [
        {
          "internalType": "uint256",
          "name": "tokenId",
          "type": "uint256"
        }
      ],
      "name": "tokenURI",
      "outputs": [
        {
          "internalType": "string",
          "name": "",
          "type": "string"
        }
      ],
      "stateMutability": "view",
      "type": "function"
    }
  ],
  "bytecode": "0x60c0604052601560809081527f53776970654769672057656c636f6d652050617373000000000000000000000060a05260009061003c9082610129565b506040805180820190915260048152630534757560e41b60208201526001906100659082610129565b5034801561007257600080fd5b50600580546001600160a01b031916331790556101e8565b634e487b7160e01b600052604160045260246000fd5b600181811c908216806100b457607f821691505b6020821081036100d457634e487b7160e01b600052602260045260246000fd5b50919050565b601f82111561012457600081815260208120601f850160051c810160208610156101015750805b601f850160051c820191505b818110156101205782815560010161010d565b5050505b505050565b81516001600160401b038111156101425761014261008a565b6101568161015084546100a0565b846100da565b602080601f83116001811461018b57600084156101735750858301515b600019600386901b1c1916600185901b178555610120565b600085815260208120601f198616915b828110156101ba5788860151825594840194600190910190840161019b565b50858210156101d85787850151600019600388901b60f8161c191681555b5050505050600190811b01905550565b6109c0806101f76000396000f3fe608060405234801561001057600080fd5b506004361061007d5760003560e01c806370a082311161005b57806370a08231146100e85780638da5cb5b146100fb57806395d89b411461010e578063c87b56dd1461011657600080fd5b80630299cf2c1461008257806306fdde03146100a85780636352211e146100bd575b600080fd5b610095610090366004610631565b610129565b6040519081526020015b60405180910390f35b6100b06103b3565b60405161009f91906106b4565b6100d06100cb366004610702565b610441565b6040516001600160a01b03909116815260200161009f565b6100956100f636600461071b565b6104a3565b6005546100d0906001600160a01b031681565b6100b061050c565b6100b0610124366004610702565b610519565b6005546000906001600160a01b031633146101815760405162461bcd60e51b815260206004820152601360248201527213db9b1e481bdddb995c8818d85b8818d85b1b606a1b60448201526064015b60405180910390fd5b6001600160a01b0384166101ce5760405162461bcd60e51b81526020600482015260146024820152734d696e7420746f207a65726f206164647265737360601b6044820152606401610178565b60068054600091826101df83610753565b909155506001600160a01b0386166000908152600360205260408120805492935060019290919061021190849061076c565b9091555050600081815260026020908152604080832080546001600160a01b0319166001600160a01b038a161790556004909152902061025284868361081e565b5060405181906001600160a01b038716906000907fddf252ad1be2c89b69c2b068fc378daa952ba7f163c4a11628f55a4df523b3ef908290a480856001600160a01b03167f2bc95088b763064a57772d78124accef9ada4faf2f2d6462d941085922c714bf86866040516102c79291906108df565b60405180910390a36001600160a01b0385163b156103ab57604051630a85bd0160e11b8152336004820152600060248201819052604482018390526080606483015260848201526001600160a01b0386169063150b7a029060a4016020604051808303816000875af192505050801561035d575060408051601f3d908101601f1916820190925261035a9181019061090e565b60015b6103795760405162461bcd60e51b815260040161017890610938565b6001600160e01b03198116630a85bd0160e11b146103a95760405162461bcd60e51b815260040161017890610938565b505b949350505050565b600080546103c090610795565b80601f01602080910402602001604051908101604052809291908181526020018280546103ec90610795565b80156104395780601f1061040e57610100808354040283529160200191610439565b820191906000526020600020905b81548152906001019060200180831161041c57829003601f168201915b505050505081565b6000818152600260205260408120546001600160a01b03168061049d5760405162461bcd60e51b8152602060048201526014602482015273151bdad95b88191bd95cc81b9bdd08195e1a5cdd60621b6044820152606401610178565b92915050565b60006001600160a01b0382166104f05760405162461bcd60e51b81526020600482015260126024820152715a65726f206164647265737320717565727960701b6044820152606401610178565b506001600160a01b031660009081526003602052604090205490565b600180546103c090610795565b6000818152600260205260409020546060906001600160a01b03166105775760405162461bcd60e51b8152602060048201526014602482015273151bdad95b88191bd95cc81b9bdd08195e1a5cdd60621b6044820152606401610178565b6000828152600460205260409020805461059090610795565b80601f01602080910402602001604051908101604052809291908181526020018280546105bc90610795565b80156106095780601f106105de57610100808354040283529160200191610609565b820191906000526020600020905b8154815290600101906020018083116105ec57829003601f168201915b50505050509050919050565b80356001600160a01b038116811461062c57600080fd5b919050565b60008060006040848603121561064657600080fd5b61064f84610615565b9250602084013567ffffffffffffffff8082111561066c57600080fd5b818601915086601f83011261068057600080fd5b81358181111561068f57600080fd5b8760208285010111156106a157600080fd5b6020830194508093505050509250925092565b600060208083528351808285015260005b818110156106e1578581018301518582016040015282016106c5565b506000604082860101526040601f19601f8301168501019250505092915050565b60006020828403121561071457600080fd5b5035919050565b60006020828403121561072d57600080fd5b61073682610615565b9392505050565b634e487b7160e01b600052601160045260246000fd5b6000600182016107655761076561073d565b5060010190565b8082018082111561049d5761049d61073d565b634e487b7160e01b600052604160045260246000fd5b600181811c908216806107a957607f821691505b6020821081036107c957634e487b7160e01b600052602260045260246000fd5b50919050565b601f82111561081957600081815260208120601f850160051c810160208610156107f65750805b601f850160051c820191505b8181101561081557828155600101610802565b5050505b505050565b67ffffffffffffffff8311156108365761083661077f565b61084a836108448354610795565b836107cf565b6000601f84116001811461087e57600085156108665750838201355b600019600387901b1c1916600186901b1783556108d8565b600083815260209020601f19861690835b828110156108af578685013582556020948501946001909201910161088f565b50868210156108cc5760001960f88860031b161c19848701351681555b505060018560011b0183555b5050505050565b60208152816020820152818360408301376000818301604090810191909152601f909201601f19160101919050565b60006020828403121561092057600080fd5b81516001600160e01b03198116811461073657600080fd5b60208082526032908201527f4552433732313a207472616e7366657220746f206e6f6e20455243373231526560408201527131b2b4bb32b91034b6b83632b6b2b73a32b960711b60608201526080019056fea264697066735822122079910c7f1d85b0d8ba71506b07a452c6dc7051d20356183795656c74f9b268da64736f6c63430008140033",
  "linkReferences": {},
  "deployedLinkReferences": {}
}