{
  "_format": "hh-sol-artifact-1",
  "contractName": "SwipeGigWelcomeNFT",
  "sourceName": "contracts/SwipeGigWelcomeNFT.sol",
  "abi": [
    {
      "inputs": [],
      "stateMutability": "nonpayable",
      "type": "constructor"
    },
    {
      "anonymous": false,
      "inputs": [
        {
          "indexed": true,
          "internalType": "address",
          "name": "from",
          "type": "address"
        },
        {
          "indexed": true,
          "internalType": "address",
          "name": "to",
          "type": "address"
        },
        {
          "indexed": true,
          "internalType": "uint256",
          "name": "tokenId",
          "type": "uint256"
        }
      ],
      "name": "Transfer",
      "type": "event"
    },
    {
      "anonymous": false,
      "inputs": [
        {
          "indexed": true,
          "internalType": "address",
          "name": "recipient",
          "type": "address"
        },
        {
          "indexed": true,
          "internalType": "uint256",
          "name": "tokenId",
          "type": "uint256"
        },
        {
          "indexed": false,
          "internalType": "string",
          "name": "tokenURI",
          "type": "string"
        }
      ],
      "name": "WelcomeNFTMinted",
      "type": "event"
    },
    {
      "inputs": [
        {
          "internalType": "address",
          "name": "account",
          "type": "address"
        }
      ],
      "name": "balanceOf",
      "outputs": [
        {
          "internalType": "uint256",
          "name": "",
          "type": "uint256"
        }
      ],
      "stateMutability": "view",
      "type": "function"
    },
    {
      "inputs": [
        {
          "internalType": "address",
          "name": "to",
          "type": "address"
        },
        {
          "internalType": "string",
          "name": "uri",
          "type": "string"
        }
      ],
      "name": "mintWelcomeNFT",
      "outputs": [
        {
          "internalType": "uint256",
          "name": "",
          "type": "uint256"
        }
      ],
      "stateMutability": "nonpayable",
      "type": "function"
    },
    {
      "inputs": [],
      "name": "name",
      "outputs": [
        {
          "internalType": "string",
          "name": "",
          "type": "string"
        }
      ],
      "stateMutability": "view",
      "type": "function"
    },
    {
      "inputs": [],
      "name": "owner",
      "outputs": [
        {
          "internalType": "address",
          "name": "",
          "type": "address"
        }
      ],
      "stateMutability": "view",
      "type": "function"
    },
    {
      "inputs": [
        {
          "internalType": "uint256",
          "name": "tokenId",
          "type": "uint256"
        }
      ],
      "name": "ownerOf",
      "outputs": [
        {
          "internalType": "address",
          "name": "",
          "type": "address"
        }
      ],
      "stateMutability": "view",
      "type": "function"
    },
    {
      "inputs": [
        {
          "internalType": "bytes4",
          "name": "interfaceId",
          "type": "bytes4"
        }
      ],
      "name": "supportsInterface",
      "outputs": [
        {
          "internalType": "bool",
          "name": "",
          "type": "bool"
        }
      ],
      "stateMutability": "pure",
      "type": "function"
    },
    {
      "inputs": [],
      "name": "symbol",
      "outputs": [
        {
          "internalType": "string",
          "name": "",
          "type": "string"
        }
      ],
      "stateMutability": "view",
      "type": "function"
    },
    {
      "inputs": [
        {
          "internalType": "uint256",
          "name": "tokenId",
          "type": "uint256"
        }
      ],
      "name": "tokenURI",
      "outputs": [
        {
          "internalType": "string",
          "name": "",
          "type": "string"
        }
      ],
      "stateMutability": "view",
      "type": "function"
    }
  ],
  "bytecode": "0x60c0604052601560809081527f53776970654769672057656c636f6d652050617373000000000000000000000060a0526000906200003e908262000135565b506040805180820190915260048152630534757560e41b602082015260019062000069908262000135565b503480156200007757600080fd5b50600580546001600160a01b0319163317905562000201565b634e487b7160e01b600052604160045260246000fd5b600181811c90821680620000bb57607f821691505b602082108103620000dc57634e487b7160e01b600052602260045260246000fd5b50919050565b601f8211156200013057600081815260208120601f850160051c810160208610156200010b5750805b601f850160051c820191505b818110156200012c5782815560010162000117565b5050505b505050565b81516001600160401b0381111562000151576200015162000090565b6200016981620001628454620000a6565b84620000e2565b602080601f831160018114620001a15760008415620001885750858301515b600019600386901b1c1916600185901b1785556200012c565b600085815260208120601f198616915b82811015620001d257888601518255948401946001909101908401620001b1565b5085821015620001f15787850151600019600388901b60f8161c191681555b5050505050600190811b01905550565b610a6380620002116000396000f3fe608060405234801561001057600080fd5b50600436106100885760003560e01c806370a082311161005b57806370a08231146101165780638da5cb5b1461012957806395d89b411461013c578063c87b56dd1461014457600080fd5b806301ffc9a71461008d5780630299cf2c146100b557806306fdde03146100d65780636352211e146100eb575b600080fd5b6100a061009b3660046106a8565b610157565b60405190151581526020015b60405180910390f35b6100c86100c33660046106e8565b6101a9565b6040519081526020016100ac565b6100de610433565b6040516100ac919061076b565b6100fe6100f93660046107b9565b6104c1565b6040516001600160a01b0390911681526020016100ac565b6100c86101243660046107d2565b61051d565b6005546100fe906001600160a01b031681565b6100de610586565b6100de6101523660046107b9565b610593565b60006380ac58cd60e01b6001600160e01b0319831614806101885750635b5e139f60e01b6001600160e01b03198316145b806101a357506301ffc9a760e01b6001600160e01b03198316145b92915050565b6005546000906001600160a01b031633146102015760405162461bcd60e51b815260206004820152601360248201527213db9b1e481bdddb995c8818d85b8818d85b1b606a1b60448201526064015b60405180910390fd5b6001600160a01b03841661024e5760405162461bcd60e51b81526020600482015260146024820152734d696e7420746f207a65726f206164647265737360601b60448201526064016101f8565b600680546000918261025f83610803565b909155506001600160a01b0386166000908152600360205260408120805492935060019290919061029190849061081c565b9091555050600081815260026020908152604080832080546001600160a01b0319166001600160a01b038a16179055600490915290206102d28486836108ce565b5060405181906001600160a01b038716906000907fddf252ad1be2c89b69c2b068fc378daa952ba7f163c4a11628f55a4df523b3ef908290a480856001600160a01b03167f2bc95088b763064a57772d78124accef9ada4faf2f2d6462d941085922c714bf868660405161034792919061098f565b60405180910390a36001600160a01b0385163b1561042b57604051630a85bd0160e11b8152336004820152600060248201819052604482018390526080606483015260848201526001600160a01b0386169063150b7a029060a4016020604051808303816000875af19250505080156103dd575060408051601f3d908101601f191682019092526103da918101906109be565b60015b6103f95760405162461bcd60e51b81526004016101f8906109db565b6001600160e01b03198116630a85bd0160e11b146104295760405162461bcd60e51b81526004016101f8906109db565b505b949350505050565b6000805461044090610845565b80601f016020809104026020016040519081016040528092919081815260200182805461046c90610845565b80156104b95780601f1061048e576101008083540402835291602001916104b9565b820191906000526020600020905b81548152906001019060200180831161049c57829003601f168201915b505050505081565b6000818152600260205260408120546001600160a01b0316806101a35760405162461bcd60e51b8152602060048201526014602482015273151bdad95b88191bd95cc81b9bdd08195e1a5cdd60621b60448201526064016101f8565b60006001600160a01b03821661056a5760405162461bcd60e51b81526020600482015260126024820152715a65726f206164647265737320717565727960701b60448201526064016101f8565b506001600160a01b031660009081526003602052604090205490565b6001805461044090610845565b6000818152600260205260409020546060906001600160a01b03166105f15760405162461bcd60e51b8152602060048201526014602482015273151bdad95b88191bd95cc81b9bdd08195e1a5cdd60621b60448201526064016101f8565b6000828152600460205260409020805461060a90610845565b80601f016020809104026020016040519081016040528092919081815260200182805461063690610845565b80156106835780601f1061065857610100808354040283529160200191610683565b820191906000526020600020905b81548152906001019060200180831161066657829003601f168201915b50505050509050919050565b6001600160e01b0319811681146106a557600080fd5b50565b6000602082840312156106ba57600080fd5b81356106c58161068f565b9392505050565b80356001600160a01b03811681146106e357600080fd5b919050565b6000806000604084860312156106fd57600080fd5b610706846106cc565b9250602084013567ffffffffffffffff8082111561072357600080fd5b818601915086601f83011261073757600080fd5b81358181111561074657600080fd5b87602082850101111561075857600080fd5b6020830194508093505050509250925092565b600060208083528351808285015260005b818110156107985785810183015185820160400152820161077c565b506000604082860101526040601f19601f8301168501019250505092915050565b6000602082840312156107cb57600080fd5b5035919050565b6000602082840312156107e457600080fd5b6106c5826106cc565b634e487b7160e01b600052601160045260246000fd5b600060018201610815576108156107ed565b5060010190565b808201808211156101a3576101a36107ed565b634e487b7160e01b600052604160045260246000fd5b600181811c9082168061085957607f821691505b60208210810361087957634e487b7160e01b600052602260045260246000fd5b50919050565b601f8211156108c957600081815260208120601f850160051c810160208610156108a65750805b601f850160051c820191505b818110156108c5578281556001016108b2565b5050505b505050565b67ffffffffffffffff8311156108e6576108e661082f565b6108fa836108f48354610845565b8361087f565b6000601f84116001811461092e57600085156109165750838201355b600019600387901b1c1916600186901b178355610988565b600083815260209020601f19861690835b8281101561095f578685013582556020948501946001909201910161093f565b508682101561097c5760001960f88860031b161c19848701351681555b505060018560011b0183555b5050505050565b60208152816020820152818360408301376000818301604090810191909152601f909201601f19160101919050565b6000602082840312156109d057600080fd5b81516106c58161068f565b60208082526032908201527f4552433732313a207472616e7366657220746f206e6f6e20455243373231526560408201527131b2b4bb32b91034b6b83632b6b2b73a32b960711b60608201526080019056fea2646970667358221220441ba91bdd32bad42b33abf1feede833892e218b8e752ef575bda584d2121c2564736f6c63430008140033",
  "linkReferences": {},
  "deployedLinkReferences": {}
}