{
  "_format": "hh-sol-artifact-1",
  "contractName": "SwipeGigWelcomeNFT",
  "sourceName": "contracts/SwipeGigWelcomeNFT.sol",
  "abi": [
    {
      "inputs": [
        {
          "internalType": "address",
          "name": "_backendSigner",
          "type": "address"
        },
        {
          "internalType": "string",
          "name": "baseURI",
          "type": "string"
        }
      ],
      "stateMutability": "nonpayable",
      "type": "constructor"
    },
    {
      "inputs": [
        {
          "internalType": "address",
          "name": "sender",
          "type": "address"
        },
        {
          "internalType": "uint256",
          "name": "tokenId",
          "type": "uint256"
        },
        {
          "internalType": "address",
          "name": "owner",
          "type": "address"
        }
      ],
      "name": "ERC721IncorrectOwner",
      "type": "error"
    },
    {
      "inputs": [
        {
          "internalType": "address",
          "name": "operator",
          "type": "address"
        },
        {
          "internalType": "uint256",
          "name": "tokenId",
          "type": "uint256"
        }
      ],
      "name": "ERC721InsufficientApproval",
      "type": "error"
    },
    {
      "inputs": [
        {
          "internalType": "address",
          "name": "approver",
          "type": "address"
        }
      ],
      "name": "ERC721InvalidApprover",
      "type": "error"
    },
    {
      "inputs": [
        {
          "internalType": "address",
          "name": "operator",
          "type": "address"
        }
      ],
      "name": "ERC721InvalidOperator",
      "type": "error"
    },
    {
      "inputs": [
        {
          "internalType": "address",
          "name": "owner",
          "type": "address"
        }
      ],
      "name": "ERC721InvalidOwner",
      "type": "error"
    },
    {
      "inputs": [
        {
          "internalType": "address",
          "name": "receiver",
          "type": "address"
        }
      ],
      "name": "ERC721InvalidReceiver",
      "type": "error"
    },
    {
      "inputs": [
        {
          "internalType": "address",
          "name": "sender",
          "type": "address"
        }
      ],
      "name": "ERC721InvalidSender",
      "type": "error"
    },
    {
      "inputs": [
        {
          "internalType": "uint256",
          "name": "tokenId",
          "type": "uint256"
        }
      ],
      "name": "ERC721NonexistentToken",
      "type": "error"
    },
    {
      "inputs": [
        {
          "internalType": "address",
          "name": "owner",
          "type": "address"
        }
      ],
      "name": "OwnableInvalidOwner",
      "type": "error"
    },
    {
      "inputs": [
        {
          "internalType": "address",
          "name": "account",
          "type": "address"
        }
      ],
      "name": "OwnableUnauthorizedAccount",
      "type": "error"
    },
    {
      "anonymous": false,
      "inputs": [
        {
          "indexed": true,
          "internalType": "address",
          "name": "owner",
          "type": "address"
        },
        {
          "indexed": true,
          "internalType": "address",
          "name": "approved",
          "type": "address"
        },
        {
          "indexed": true,
          "internalType": "uint256",
          "name": "tokenId",
          "type": "uint256"
        }
      ],
      "name": "Approval",
      "type": "event"
    },
    {
      "anonymous": false,
      "inputs": [
        {
          "indexed": true,
          "internalType": "address",
          "name": "owner",
          "type": "address"
        },
        {
          "indexed": true,
          "internalType": "address",
          "name": "operator",
          "type": "address"
        },
        {
          "indexed": false,
          "internalType": "bool",
          "name": "approved",
          "type": "bool"
        }
      ],
      "name": "ApprovalForAll",
      "type": "event"
    },
    {
      "anonymous": false,
      "inputs": [
        {
          "indexed": true,
          "internalType": "address",
          "name": "previousOwner",
          "type": "address"
        },
        {
          "indexed": true,
          "internalType": "address",
          "name": "newOwner",
          "type": "address"
        }
      ],
      "name": "OwnershipTransferred",
      "type": "event"
    },
    {
      "anonymous": false,
      "inputs": [
        {
          "indexed": true,
          "internalType": "address",
          "name": "from",
          "type": "address"
        },
        {
          "indexed": true,
          "internalType": "address",
          "name": "to",
          "type": "address"
        },
        {
          "indexed": true,
          "internalType": "uint256",
          "name": "tokenId",
          "type": "uint256"
        }
      ],
      "name": "Transfer",
      "type": "event"
    },
    {
      "anonymous": false,
      "inputs": [
        {
          "indexed": true,
          "internalType": "address",
          "name": "user",
          "type": "address"
        },
        {
          "indexed": false,
          "internalType": "uint256",
          "name": "tokenId",
          "type": "uint256"
        }
      ],
      "name": "WelcomeNFTMinted",
      "type": "event"
    },
    {
      "inputs": [
        {
          "internalType": "address",
          "name": "to",
          "type": "address"
        },
        {
          "internalType": "uint256",
          "name": "tokenId",
          "type": "uint256"
        }
      ],
      "name": "approve",
      "outputs": [],
      "stateMutability": "nonpayable",
      "type": "function"
    },
    {
      "inputs": [],
      "name": "backendSigner",
      "outputs": [
        {
          "internalType": "address",
          "name": "",
          "type": "address"
        }
      ],
      "stateMutability": "view",
      "type": "function"
    },
    {
      "inputs": [
        {
          "internalType": "address",
          "name": "owner",
          "type": "address"
        }
      ],
      "name": "balanceOf",
      "outputs": [
        {
          "internalType": "uint256",
          "name": "",
          "type": "uint256"
        }
      ],
      "stateMutability": "view",
      "type": "function"
    },
    {
      "inputs": [
        {
          "internalType": "uint256",
          "name": "tokenId",
          "type": "uint256"
        }
      ],
      "name": "getApproved",
      "outputs": [
        {
          "internalType": "address",
          "name": "",
          "type": "address"
        }
      ],
      "stateMutability": "view",
      "type": "function"
    },
    {
      "inputs": [
        {
          "internalType": "address",
          "name": "",
          "type": "address"
        }
      ],
      "name": "hasMinted",
      "outputs": [
        {
          "internalType": "bool",
          "name": "",
          "type": "bool"
        }
      ],
      "stateMutability": "view",
      "type": "function"
    },
    {
      "inputs": [
        {
          "internalType": "address",
          "name": "owner",
          "type": "address"
        },
        {
          "internalType": "address",
          "name": "operator",
          "type": "address"
        }
      ],
      "name": "isApprovedForAll",
      "outputs": [
        {
          "internalType": "bool",
          "name": "",
          "type": "bool"
        }
      ],
      "stateMutability": "view",
      "type": "function"
    },
    {
      "inputs": [
        {
          "internalType": "address",
          "name": "user",
          "type": "address"
        }
      ],
      "name": "mintWelcomeNFT",
      "outputs": [],
      "stateMutability": "nonpayable",
      "type": "function"
    },
    {
      "inputs": [],
      "name": "name",
      "outputs": [
        {
          "internalType": "string",
          "name": "",
          "type": "string"
        }
      ],
      "stateMutability": "view",
      "type": "function"
    },
    {
      "inputs": [],
      "name": "owner",
      "outputs": [
        {
          "internalType": "address",
          "name": "",
          "type": "address"
        }
      ],
      "stateMutability": "view",
      "type": "function"
    },
    {
      "inputs": [
        {
          "internalType": "uint256",
          "name": "tokenId",
          "type": "uint256"
        }
      ],
      "name": "ownerOf",
      "outputs": [
        {
          "internalType": "address",
          "name": "",
          "type": "address"
        }
      ],
      "stateMutability": "view",
      "type": "function"
    },
    {
      "inputs": [],
      "name": "renounceOwnership",
      "outputs": [],
      "stateMutability": "nonpayable",
      "type": "function"
    },
    {
      "inputs": [
        {
          "internalType": "address",
          "name": "from",
          "type": "address"
        },
        {
          "internalType": "address",
          "name": "to",
          "type": "address"
        },
        {
          "internalType": "uint256",
          "name": "tokenId",
          "type": "uint256"
        }
      ],
      "name": "safeTransferFrom",
      "outputs": [],
      "stateMutability": "nonpayable",
      "type": "function"
    },
    {
      "inputs": [
        {
          "internalType": "address",
          "name": "from",
          "type": "address"
        },
        {
          "internalType": "address",
          "name": "to",
          "type": "address"
        },
        {
          "internalType": "uint256",
          "name": "tokenId",
          "type": "uint256"
        },
        {
          "internalType": "bytes",
          "name": "data",
          "type": "bytes"
        }
      ],
      "name": "safeTransferFrom",
      "outputs": [],
      "stateMutability": "nonpayable",
      "type": "function"
    },
    {
      "inputs": [
        {
          "internalType": "address",
          "name": "operator",
          "type": "address"
        },
        {
          "internalType": "bool",
          "name": "approved",
          "type": "bool"
        }
      ],
      "name": "setApprovalForAll",
      "outputs": [],
      "stateMutability": "nonpayable",
      "type": "function"
    },
    {
      "inputs": [
        {
          "internalType": "address",
          "name": "_signer",
          "type": "address"
        }
      ],
      "name": "setBackendSigner",
      "outputs": [],
      "stateMutability": "nonpayable",
      "type": "function"
    },
    {
      "inputs": [
        {
          "internalType": "string",
          "name": "baseURI",
          "type": "string"
        }
      ],
      "name": "setBaseURI",
      "outputs": [],
      "stateMutability": "nonpayable",
      "type": "function"
    },
    {
      "inputs": [
        {
          "internalType": "bytes4",
          "name": "interfaceId",
          "type": "bytes4"
        }
      ],
      "name": "supportsInterface",
      "outputs": [
        {
          "internalType": "bool",
          "name": "",
          "type": "bool"
        }
      ],
      "stateMutability": "view",
      "type": "function"
    },
    {
      "inputs": [],
      "name": "symbol",
      "outputs": [
        {
          "internalType": "string",
          "name": "",
          "type": "string"
        }
      ],
      "stateMutability": "view",
      "type": "function"
    },
    {
      "inputs": [
        {
          "internalType": "uint256",
          "name": "tokenId",
          "type": "uint256"
        }
      ],
      "name": "tokenURI",
      "outputs": [
        {
          "internalType": "string",
          "name": "",
          "type": "string"
        }
      ],
      "stateMutability": "view",
      "type": "function"
    },
    {
      "inputs": [
        {
          "internalType": "address",
          "name": "from",
          "type": "address"
        },
        {
          "internalType": "address",
          "name": "to",
          "type": "address"
        },
        {
          "internalType": "uint256",
          "name": "tokenId",
          "type": "uint256"
        }
      ],
      "name": "transferFrom",
      "outputs": [],
      "stateMutability": "nonpayable",
      "type": "function"
    },
    {
      "inputs": [
        {
          "internalType": "address",
          "name": "newOwner",
          "type": "address"
        }
      ],
      "name": "transferOwnership",
      "outputs": [],
      "stateMutability": "nonpayable",
      "type": "function"
    }
  ],
  "bytecode": "0x608060405234801562000010575f80fd5b50604051620017c1380380620017c183398101604081905262000033916200016e565b336040518060400160405280601181526020017014ddda5c1951da59c815995c9a599a5959607a1b8152506040518060400160405280600481526020016329aba3ab60e11b815250815f90816200008b9190620002e6565b5060016200009a8282620002e6565b5050506001600160a01b038116620000cb57604051631e4fbdf760e01b81525f600482015260240160405180910390fd5b620000d68162000109565b50600880546001600160a01b0319166001600160a01b038416179055600a620001008282620002e6565b505050620003b2565b600680546001600160a01b038381166001600160a01b0319831681179093556040519116919082907f8be0079c531659141344cd1fd0a4f28419497f9722a3daafe3b4186f6b6457e0905f90a35050565b634e487b7160e01b5f52604160045260245ffd5b5f806040838503121562000180575f80fd5b82516001600160a01b038116811462000197575f80fd5b602084810151919350906001600160401b0380821115620001b6575f80fd5b818601915086601f830112620001ca575f80fd5b815181811115620001df57620001df6200015a565b604051601f8201601f19908116603f011681019083821181831017156200020a576200020a6200015a565b81604052828152898684870101111562000222575f80fd5b5f93505b8284101562000245578484018601518185018701529285019262000226565b5f8684830101528096505050505050509250929050565b600181811c908216806200027157607f821691505b6020821081036200029057634e487b7160e01b5f52602260045260245ffd5b50919050565b601f821115620002e157805f5260205f20601f840160051c81016020851015620002bd5750805b601f840160051c820191505b81811015620002de575f8155600101620002c9565b50505b505050565b81516001600160401b038111156200030257620003026200015a565b6200031a816200031384546200025c565b8462000296565b602080601f83116001811462000350575f8415620003385750858301515b5f19600386901b1c1916600185901b178555620003aa565b5f85815260208120601f198616915b8281101562000380578886015182559484019460019091019084016200035f565b50858210156200039e57878501515f19600388901b60f8161c191681555b505060018460011b0185555b505050505050565b61140180620003c05f395ff3fe608060405234801561000f575f80fd5b5060043610610132575f3560e01c806365d65e86116100b457806395d89b411161007957806395d89b4114610294578063a22cb4651461029c578063b88d4fde146102af578063c87b56dd146102c2578063e985e9c5146102d5578063f2fde38b146102e8575f80fd5b806365d65e861461023457806370a0823114610247578063715018a6146102685780638da5cb5b146102705780638ffaf59614610281575f80fd5b806336f95670116100fa57806336f95670146101c657806338e21cce146101d957806342842e0e146101fb57806355f804b31461020e5780636352211e14610221575f80fd5b806301ffc9a71461013657806306fdde031461015e578063081812fc14610173578063095ea7b31461019e57806323b872dd146101b3575b5f80fd5b610149610144366004610f17565b6102fb565b60405190151581526020015b60405180910390f35b61016661034c565b6040516101559190610f7f565b610186610181366004610f91565b6103db565b6040516001600160a01b039091168152602001610155565b6101b16101ac366004610fc3565b610402565b005b6101b16101c1366004610feb565b610411565b6101b16101d4366004611024565b61049f565b6101496101e7366004611024565b60096020525f908152604090205460ff1681565b6101b1610209366004610feb565b6104c9565b6101b161021c3660046110c4565b6104e8565b61018661022f366004610f91565b6104fc565b600854610186906001600160a01b031681565b61025a610255366004611024565b610506565b604051908152602001610155565b6101b161054b565b6006546001600160a01b0316610186565b6101b161028f366004611024565b61055e565b61016661068a565b6101b16102aa366004611109565b610699565b6101b16102bd366004611142565b6106a4565b6101666102d0366004610f91565b6106bc565b6101496102e33660046111b9565b610721565b6101b16102f6366004611024565b61074e565b5f6001600160e01b031982166380ac58cd60e01b148061032b57506001600160e01b03198216635b5e139f60e01b145b8061034657506301ffc9a760e01b6001600160e01b03198316145b92915050565b60605f805461035a906111ea565b80601f0160208091040260200160405190810160405280929190818152602001828054610386906111ea565b80156103d15780601f106103a8576101008083540402835291602001916103d1565b820191905f5260205f20905b8154815290600101906020018083116103b457829003601f168201915b5050505050905090565b5f6103e58261078b565b505f828152600460205260409020546001600160a01b0316610346565b61040d8282336107c3565b5050565b6001600160a01b03821661043f57604051633250574960e11b81525f60048201526024015b60405180910390fd5b5f61044b8383336107d0565b9050836001600160a01b0316816001600160a01b031614610499576040516364283d7b60e01b81526001600160a01b0380861660048301526024820184905282166044820152606401610436565b50505050565b6104a76108c2565b600880546001600160a01b0319166001600160a01b0392909216919091179055565b6104e383838360405180602001604052805f8152506106a4565b505050565b6104f06108c2565b600a61040d8282611266565b5f6103468261078b565b5f6001600160a01b038216610530576040516322718ad960e21b81525f6004820152602401610436565b506001600160a01b03165f9081526003602052604090205490565b6105536108c2565b61055c5f6108ef565b565b6008546001600160a01b031633146105a95760405162461bcd60e51b815260206004820152600e60248201526d139bdd08185d5d1a1bdc9a5e995960921b6044820152606401610436565b6001600160a01b0381165f9081526009602052604090205460ff16156106025760405162461bcd60e51b815260206004820152600e60248201526d105b1c9958591e481b5a5b9d195960921b6044820152606401610436565b6001600160a01b0381165f908152600960205260408120805460ff1916600117905560078054908261063383611322565b9190505590506106438282610940565b816001600160a01b03167fb3a24aaf06284512f3037d1de23fd16e7edc08d6082ac0b4ef3142f495ab68178260405161067e91815260200190565b60405180910390a25050565b60606001805461035a906111ea565b61040d338383610959565b6106af848484610411565b6104993385858585610a20565b60606106c78261078b565b505f6106d1610b48565b90505f8151116106ef5760405180602001604052805f81525061071a565b806106f984610b57565b60405160200161070a929190611346565b6040516020818303038152906040525b9392505050565b6001600160a01b039182165f90815260056020908152604080832093909416825291909152205460ff1690565b6107566108c2565b6001600160a01b03811661077f57604051631e4fbdf760e01b81525f6004820152602401610436565b610788816108ef565b50565b5f818152600260205260408120546001600160a01b03168061034657604051637e27328960e01b815260048101849052602401610436565b6104e38383836001610be7565b5f828152600260205260408120546001600160a01b03908116908316156107fc576107fc818486610ceb565b6001600160a01b03811615610836576108175f855f80610be7565b6001600160a01b0381165f90815260036020526040902080545f190190555b6001600160a01b03851615610864576001600160a01b0385165f908152600360205260409020805460010190555b5f8481526002602052604080822080546001600160a01b0319166001600160a01b0389811691821790925591518793918516917fddf252ad1be2c89b69c2b068fc378daa952ba7f163c4a11628f55a4df523b3ef91a4949350505050565b6006546001600160a01b0316331461055c5760405163118cdaa760e01b8152336004820152602401610436565b600680546001600160a01b038381166001600160a01b0319831681179093556040519116919082907f8be0079c531659141344cd1fd0a4f28419497f9722a3daafe3b4186f6b6457e0905f90a35050565b61040d828260405180602001604052805f815250610d4f565b6001600160a01b0383166109825760405163a9fbf51f60e01b81525f6004820152602401610436565b6001600160a01b0382166109b457604051630b61174360e31b81526001600160a01b0383166004820152602401610436565b6001600160a01b038381165f81815260056020908152604080832094871680845294825291829020805460ff191686151590811790915591519182527f17307eab39ab6107e8899845ad3d59bd9653f200f220920489ca2b5937696c31910160405180910390a3505050565b6001600160a01b0383163b15610b4157604051630a85bd0160e11b81526001600160a01b0384169063150b7a0290610a62908890889087908790600401611374565b6020604051808303815f875af1925050508015610a9c575060408051601f3d908101601f19168201909252610a99918101906113b0565b60015b610b03573d808015610ac9576040519150601f19603f3d011682016040523d82523d5f602084013e610ace565b606091505b5080515f03610afb57604051633250574960e11b81526001600160a01b0385166004820152602401610436565b805160208201fd5b6001600160e01b03198116630a85bd0160e11b14610b3f57604051633250574960e11b81526001600160a01b0385166004820152602401610436565b505b5050505050565b6060600a805461035a906111ea565b60605f610b6383610d66565b60010190505f8167ffffffffffffffff811115610b8257610b8261103d565b6040519080825280601f01601f191660200182016040528015610bac576020820181803683370190505b5090508181016020015b5f19016f181899199a1a9b1b9c1cb0b131b232b360811b600a86061a8153600a8504945084610bb657509392505050565b8080610bfb57506001600160a01b03821615155b15610cbc575f610c0a8461078b565b90506001600160a01b03831615801590610c365750826001600160a01b0316816001600160a01b031614155b8015610c495750610c478184610721565b155b15610c725760405163a9fbf51f60e01b81526001600160a01b0384166004820152602401610436565b8115610cba5783856001600160a01b0316826001600160a01b03167f8c5be1e5ebec7d5bd14f71427d1e84f3dd0314c0f7b2291e5b200ac8c7c3b92560405160405180910390a45b505b50505f90815260046020526040902080546001600160a01b0319166001600160a01b0392909216919091179055565b610cf6838383610e3d565b6104e3576001600160a01b038316610d2457604051637e27328960e01b815260048101829052602401610436565b60405163177e802f60e01b81526001600160a01b038316600482015260248101829052604401610436565b610d598383610ea1565b6104e3335f858585610a20565b5f8072184f03e93ff9f4daa797ed6e38ed64bf6a1f0160401b8310610da45772184f03e93ff9f4daa797ed6e38ed64bf6a1f0160401b830492506040015b6d04ee2d6d415b85acef81000000008310610dd0576d04ee2d6d415b85acef8100000000830492506020015b662386f26fc100008310610dee57662386f26fc10000830492506010015b6305f5e1008310610e06576305f5e100830492506008015b6127108310610e1a57612710830492506004015b60648310610e2c576064830492506002015b600a83106103465760010192915050565b5f6001600160a01b03831615801590610e995750826001600160a01b0316846001600160a01b03161480610e765750610e768484610721565b80610e9957505f828152600460205260409020546001600160a01b038481169116145b949350505050565b6001600160a01b038216610eca57604051633250574960e11b81525f6004820152602401610436565b5f610ed683835f6107d0565b90506001600160a01b038116156104e3576040516339e3563760e11b81525f6004820152602401610436565b6001600160e01b031981168114610788575f80fd5b5f60208284031215610f27575f80fd5b813561071a81610f02565b5f5b83811015610f4c578181015183820152602001610f34565b50505f910152565b5f8151808452610f6b816020860160208601610f32565b601f01601f19169290920160200192915050565b602081525f61071a6020830184610f54565b5f60208284031215610fa1575f80fd5b5035919050565b80356001600160a01b0381168114610fbe575f80fd5b919050565b5f8060408385031215610fd4575f80fd5b610fdd83610fa8565b946020939093013593505050565b5f805f60608486031215610ffd575f80fd5b61100684610fa8565b925061101460208501610fa8565b9150604084013590509250925092565b5f60208284031215611034575f80fd5b61071a82610fa8565b634e487b7160e01b5f52604160045260245ffd5b5f67ffffffffffffffff8084111561106b5761106b61103d565b604051601f8501601f19908116603f011681019082821181831017156110935761109361103d565b816040528093508581528686860111156110ab575f80fd5b858560208301375f602087830101525050509392505050565b5f602082840312156110d4575f80fd5b813567ffffffffffffffff8111156110ea575f80fd5b8201601f810184136110fa575f80fd5b610e9984823560208401611051565b5f806040838503121561111a575f80fd5b61112383610fa8565b915060208301358015158114611137575f80fd5b809150509250929050565b5f805f8060808587031215611155575f80fd5b61115e85610fa8565b935061116c60208601610fa8565b925060408501359150606085013567ffffffffffffffff81111561118e575f80fd5b8501601f8101871361119e575f80fd5b6111ad87823560208401611051565b91505092959194509250565b5f80604083850312156111ca575f80fd5b6111d383610fa8565b91506111e160208401610fa8565b90509250929050565b600181811c908216806111fe57607f821691505b60208210810361121c57634e487b7160e01b5f52602260045260245ffd5b50919050565b601f8211156104e357805f5260205f20601f840160051c810160208510156112475750805b601f840160051c820191505b81811015610b41575f8155600101611253565b815167ffffffffffffffff8111156112805761128061103d565b6112948161128e84546111ea565b84611222565b602080601f8311600181146112c7575f84156112b05750858301515b5f19600386901b1c1916600185901b178555610b3f565b5f85815260208120601f198616915b828110156112f5578886015182559484019460019091019084016112d6565b508582101561131257878501515f19600388901b60f8161c191681555b5050505050600190811b01905550565b5f6001820161133f57634e487b7160e01b5f52601160045260245ffd5b5060010190565b5f8351611357818460208801610f32565b83519083019061136b818360208801610f32565b01949350505050565b6001600160a01b03858116825284166020820152604081018390526080606082018190525f906113a690830184610f54565b9695505050505050565b5f602082840312156113c0575f80fd5b815161071a81610f0256fea2646970667358221220cbc26c5a1617579efef3eda749c3d1a977930a579d096d8e9a7170d1f3afa34164736f6c63430008180033",
  "linkReferences": {},
  "deployedLinkReferences": {}
}