{"contracts/SwipeGigWelcomeNFT.sol":{"SwipeGigWelcomeNFT":{"abi":[{"inputs":[{"internalType":"address","name":"_backendSigner","type":"address"},{"internalType":"string","name":"baseURI","type":"string"}],"stateMutability":"nonpayable","type":"constructor"},{"inputs":[{"internalType":"address","name":"sender","type":"address"},{"internalType":"uint256","name":"tokenId","type":"uint256"},{"internalType":"address","name":"owner","type":"address"}],"name":"ERC721IncorrectOwner","type":"error"},{"inputs":[{"internalType":"address","name":"operator","type":"address"},{"internalType":"uint256","name":"tokenId","type":"uint256"}],"name":"ERC721InsufficientApproval","type":"error"},{"inputs":[{"internalType":"address","name":"approver","type":"address"}],"name":"ERC721InvalidApprover","type":"error"},{"inputs":[{"internalType":"address","name":"operator","type":"address"}],"name":"ERC721InvalidOperator","type":"error"},{"inputs":[{"internalType":"address","name":"owner","type":"address"}],"name":"ERC721InvalidOwner","type":"error"},{"inputs":[{"internalType":"address","name":"receiver","type":"address"}],"name":"ERC721InvalidReceiver","type":"error"},{"inputs":[{"internalType":"address","name":"sender","type":"address"}],"name":"ERC721InvalidSender","type":"error"},{"inputs":[{"internalType":"uint256","name":"tokenId","type":"uint256"}],"name":"ERC721NonexistentToken","type":"error"},{"inputs":[{"internalType":"address","name":"owner","type":"address"}],"name":"OwnableInvalidOwner","type":"error"},{"inputs":[{"internalType":"address","name":"account","type":"address"}],"name":"OwnableUnauthorizedAccount","type":"error"},{"anonymous":false,"inputs":[{"indexed":true,"internalType":"address","name":"owner","type":"address"},{"indexed":true,"internalType":"address","name":"approved","type":"address"},{"indexed":true,"internalType":"uint256","name":"tokenId","type":"uint256"}],"name":"Approval","type":"event"},{"anonymous":false,"inputs":[{"indexed":true,"internalType":"address","name":"owner","type":"address"},{"indexed":true,"internalType":"address","name":"operator","type":"address"},{"indexed":false,"internalType":"bool","name":"approved","type":"bool"}],"name":"ApprovalForAll","type":"event"},{"anonymous":false,"inputs":[{"indexed":true,"internalType":"address","name":"previousOwner","type":"address"},{"indexed":true,"internalType":"address","name":"newOwner","type":"address"}],"name":"OwnershipTransferred","type":"event"},{"anonymous":false,"inputs":[{"indexed":true,"internalType":"address","name":"from","type":"address"},{"indexed":true,"internalType":"address","name":"to","type":"address"},{"indexed":true,"internalType":"uint256","name":"tokenId","type":"uint256"}],"name":"Transfer","type":"event"},{"anonymous":false,"inputs":[{"indexed":true,"internalType":"address","name":"user","type":"address"},{"indexed":false,"internalType":"uint256","name":"tokenId","type":"uint256"}],"name":"WelcomeNFTMinted","type":"event"},{"inputs":[{"internalType":"address","name":"to","type":"address"},{"internalType":"uint256","name":"tokenId","type":"uint256"}],"name":"approve","outputs":[],"stateMutability":"nonpayable","type":"function"},{"inputs":[],"name":"backendSigner","outputs":[{"internalType":"address","name":"","type":"address"}],"stateMutability":"view","type":"function"},{"inputs":[{"internalType":"address","name":"owner","type":"address"}],"name":"balanceOf","outputs":[{"internalType":"uint256","name":"","type":"uint256"}],"stateMutability":"view","type":"function"},{"inputs":[{"internalType":"uint256","name":"tokenId","type":"uint256"}],"name":"getApproved","outputs":[{"internalType":"address","name":"","type":"address"}],"stateMutability":"view","type":"function"},{"inputs":[{"internalType":"address","name":"","type":"address"}],"name":"hasMinted","outputs":[{"internalType":"bool","name":"","type":"bool"}],"stateMutability":"view","type":"function"},{"inputs":[{"internalType":"address","name":"owner","type":"address"},{"internalType":"address","name":"operator","type":"address"}],"name":"isApprovedForAll","outputs":[{"internalType":"bool","name":"","type":"bool"}],"stateMutability":"view","type":"function"},{"inputs":[{"internalType":"address","name":"user","type":"address"}],"name":"mintWelcomeNFT","outputs":[],"stateMutability":"nonpayable","type":"function"},{"inputs":[],"name":"name","outputs":[{"internalType":"string","name":"","type":"string"}],"stateMutability":"view","type":"function"},{"inputs":[],"name":"owner","outputs":[{"internalType":"address","name":"","type":"address"}],"stateMutability":"view","type":"function"},{"inputs":[{"internalType":"uint256","name":"tokenId","type":"uint256"}],"name":"ownerOf","outputs":[{"internalType":"address","name":"","type":"address"}],"stateMutability":"view","type":"function"},{"inputs":[],"name":"renounceOwnership","outputs":[],"stateMutability":"nonpayable","type":"function"},{"inputs":[{"internalType":"address","name":"from","type":"address"},{"internalType":"address","name":"to","type":"address"},{"internalType":"uint256","name":"tokenId","type":"uint256"}],"name":"safeTransferFrom","outputs":[],"stateMutability":"nonpayable","type":"function"},{"inputs":[{"internalType":"address","name":"from","type":"address"},{"internalType":"address","name":"to","type":"address"},{"internalType":"uint256","name":"tokenId","type":"uint256"},{"internalType":"bytes","name":"data","type":"bytes"}],"name":"safeTransferFrom","outputs":[],"stateMutability":"nonpayable","type":"function"},{"inputs":[{"internalType":"address","name":"operator","type":"address"},{"internalType":"bool","name":"approved","type":"bool"}],"name":"setApprovalForAll","outputs":[],"stateMutability":"nonpayable","type":"function"},{"inputs":[{"internalType":"address","name":"_signer","type":"address"}],"name":"setBackendSigner","outputs":[],"stateMutability":"nonpayable","type":"function"},{"inputs":[{"internalType":"string","name":"baseURI","type":"string"}],"name":"setBaseURI","outputs":[],"stateMutability":"nonpayable","type":"function"},{"inputs":[{"internalType":"bytes4","name":"interfaceId","type":"bytes4"}],"name":"supportsInterface","outputs":[{"internalType":"bool","name":"","type":"bool"}],"stateMutability":"view","type":"function"},{"inputs":[],"name":"symbol","outputs":[{"internalType":"string","name":"","type":"string"}],"stateMutability":"view","type":"function"},{"inputs":[{"internalType":"uint256","name":"tokenId","type":"uint256"}],"name":"tokenURI","outputs":[{"internalType":"string","name":"","type":"string"}],"stateMutability":"view","type":"function"},{"inputs":[{"internalType":"address","name":"from","type":"address"},{"internalType":"address","name":"to","type":"address"},{"internalType":"uint256","name":"tokenId","type":"uint256"}],"name":"transferFrom","outputs":[],"stateMutability":"nonpayable","type":"function"},{"inputs":[{"internalType":"address","name":"newOwner","type":"address"}],"name":"transferOwnership","outputs":[],"stateMutability":"nonpayable","type":"function"}],"evm":{"bytecode":{"linkReferences":{},"object":"608060405234801562000010575f80fd5b50604051620017c1380380620017c183398101604081905262000033916200016e565b336040518060400160405280601181526020017014ddda5c1951da59c815995c9a599a5959607a1b8152506040518060400160405280600481526020016329aba3ab60e11b815250815f90816200008b9190620002e6565b5060016200009a8282620002e6565b5050506001600160a01b038116620000cb57604051631e4fbdf760e01b81525f600482015260240160405180910390fd5b620000d68162000109565b50600880546001600160a01b0319166001600160a01b038416179055600a620001008282620002e6565b505050620003b2565b600680546001600160a01b038381166001600160a01b0319831681179093556040519116919082907f8be0079c531659141344cd1fd0a4f28419497f9722a3daafe3b4186f6b6457e0905f90a35050565b634e487b7160e01b5f52604160045260245ffd5b5f806040838503121562000180575f80fd5b82516001600160a01b038116811462000197575f80fd5b602084810151919350906001600160401b0380821115620001b6575f80fd5b818601915086601f830112620001ca575f80fd5b815181811115620001df57620001df6200015a565b604051601f8201601f19908116603f011681019083821181831017156200020a576200020a6200015a565b81604052828152898684870101111562000222575f80fd5b5f93505b8284101562000245578484018601518185018701529285019262000226565b5f8684830101528096505050505050509250929050565b600181811c908216806200027157607f821691505b6020821081036200029057634e487b7160e01b5f52602260045260245ffd5b50919050565b601f821115620002e157805f5260205f20601f840160051c81016020851015620002bd5750805b601f840160051c820191505b81811015620002de575f8155600101620002c9565b50505b505050565b81516001600160401b038111156200030257620003026200015a565b6200031a816200031384546200025c565b8462000296565b602080601f83116001811462000350575f8415620003385750858301515b5f19600386901b1c1916600185901b178555620003aa565b5f85815260208120601f198616915b8281101562000380578886015182559484019460019091019084016200035f565b50858210156200039e57878501515f19600388901b60f8161c191681555b505060018460011b0185555b505050505050565b61140180620003c05f395ff3fe608060405234801561000f575f80fd5b5060043610610132575f3560e01c806365d65e86116100b457806395d89b411161007957806395d89b4114610294578063a22cb4651461029c578063b88d4fde146102af578063c87b56dd146102c2578063e985e9c5146102d5578063f2fde38b146102e8575f80fd5b806365d65e861461023457806370a0823114610247578063715018a6146102685780638da5cb5b146102705780638ffaf59614610281575f80fd5b806336f95670116100fa57806336f95670146101c657806338e21cce146101d957806342842e0e146101fb57806355f804b31461020e5780636352211e14610221575f80fd5b806301ffc9a71461013657806306fdde031461015e578063081812fc14610173578063095ea7b31461019e57806323b872dd146101b3575b5f80fd5b610149610144366004610f17565b6102fb565b60405190151581526020015b60405180910390f35b61016661034c565b6040516101559190610f7f565b610186610181366004610f91565b6103db565b6040516001600160a01b039091168152602001610155565b6101b16101ac366004610fc3565b610402565b005b6101b16101c1366004610feb565b610411565b6101b16101d4366004611024565b61049f565b6101496101e7366004611024565b60096020525f908152604090205460ff1681565b6101b1610209366004610feb565b6104c9565b6101b161021c3660046110c4565b6104e8565b61018661022f366004610f91565b6104fc565b600854610186906001600160a01b031681565b61025a610255366004611024565b610506565b604051908152602001610155565b6101b161054b565b6006546001600160a01b0316610186565b6101b161028f366004611024565b61055e565b61016661068a565b6101b16102aa366004611109565b610699565b6101b16102bd366004611142565b6106a4565b6101666102d0366004610f91565b6106bc565b6101496102e33660046111b9565b610721565b6101b16102f6366004611024565b61074e565b5f6001600160e01b031982166380ac58cd60e01b148061032b57506001600160e01b03198216635b5e139f60e01b145b8061034657506301ffc9a760e01b6001600160e01b03198316145b92915050565b60605f805461035a906111ea565b80601f0160208091040260200160405190810160405280929190818152602001828054610386906111ea565b80156103d15780601f106103a8576101008083540402835291602001916103d1565b820191905f5260205f20905b8154815290600101906020018083116103b457829003601f168201915b5050505050905090565b5f6103e58261078b565b505f828152600460205260409020546001600160a01b0316610346565b61040d8282336107c3565b5050565b6001600160a01b03821661043f57604051633250574960e11b81525f60048201526024015b60405180910390fd5b5f61044b8383336107d0565b9050836001600160a01b0316816001600160a01b031614610499576040516364283d7b60e01b81526001600160a01b0380861660048301526024820184905282166044820152606401610436565b50505050565b6104a76108c2565b600880546001600160a01b0319166001600160a01b0392909216919091179055565b6104e383838360405180602001604052805f8152506106a4565b505050565b6104f06108c2565b600a61040d8282611266565b5f6103468261078b565b5f6001600160a01b038216610530576040516322718ad960e21b81525f6004820152602401610436565b506001600160a01b03165f9081526003602052604090205490565b6105536108c2565b61055c5f6108ef565b565b6008546001600160a01b031633146105a95760405162461bcd60e51b815260206004820152600e60248201526d139bdd08185d5d1a1bdc9a5e995960921b6044820152606401610436565b6001600160a01b0381165f9081526009602052604090205460ff16156106025760405162461bcd60e51b815260206004820152600e60248201526d105b1c9958591e481b5a5b9d195960921b6044820152606401610436565b6001600160a01b0381165f908152600960205260408120805460ff1916600117905560078054908261063383611322565b9190505590506106438282610940565b816001600160a01b03167fb3a24aaf06284512f3037d1de23fd16e7edc08d6082ac0b4ef3142f495ab68178260405161067e91815260200190565b60405180910390a25050565b60606001805461035a906111ea565b61040d338383610959565b6106af848484610411565b6104993385858585610a20565b60606106c78261078b565b505f6106d1610b48565b90505f8151116106ef5760405180602001604052805f81525061071a565b806106f984610b57565b60405160200161070a929190611346565b6040516020818303038152906040525b9392505050565b6001600160a01b039182165f90815260056020908152604080832093909416825291909152205460ff1690565b6107566108c2565b6001600160a01b03811661077f57604051631e4fbdf760e01b81525f6004820152602401610436565b610788816108ef565b50565b5f818152600260205260408120546001600160a01b03168061034657604051637e27328960e01b815260048101849052602401610436565b6104e38383836001610be7565b5f828152600260205260408120546001600160a01b03908116908316156107fc576107fc818486610ceb565b6001600160a01b03811615610836576108175f855f80610be7565b6001600160a01b0381165f90815260036020526040902080545f190190555b6001600160a01b03851615610864576001600160a01b0385165f908152600360205260409020805460010190555b5f8481526002602052604080822080546001600160a01b0319166001600160a01b0389811691821790925591518793918516917fddf252ad1be2c89b69c2b068fc378daa952ba7f163c4a11628f55a4df523b3ef91a4949350505050565b6006546001600160a01b0316331461055c5760405163118cdaa760e01b8152336004820152602401610436565b600680546001600160a01b038381166001600160a01b0319831681179093556040519116919082907f8be0079c531659141344cd1fd0a4f28419497f9722a3daafe3b4186f6b6457e0905f90a35050565b61040d828260405180602001604052805f815250610d4f565b6001600160a01b0383166109825760405163a9fbf51f60e01b81525f6004820152602401610436565b6001600160a01b0382166109b457604051630b61174360e31b81526001600160a01b0383166004820152602401610436565b6001600160a01b038381165f81815260056020908152604080832094871680845294825291829020805460ff191686151590811790915591519182527f17307eab39ab6107e8899845ad3d59bd9653f200f220920489ca2b5937696c31910160405180910390a3505050565b6001600160a01b0383163b15610b4157604051630a85bd0160e11b81526001600160a01b0384169063150b7a0290610a62908890889087908790600401611374565b6020604051808303815f875af1925050508015610a9c575060408051601f3d908101601f19168201909252610a99918101906113b0565b60015b610b03573d808015610ac9576040519150601f19603f3d011682016040523d82523d5f602084013e610ace565b606091505b5080515f03610afb57604051633250574960e11b81526001600160a01b0385166004820152602401610436565b805160208201fd5b6001600160e01b03198116630a85bd0160e11b14610b3f57604051633250574960e11b81526001600160a01b0385166004820152602401610436565b505b5050505050565b6060600a805461035a906111ea565b60605f610b6383610d66565b60010190505f8167ffffffffffffffff811115610b8257610b8261103d565b6040519080825280601f01601f191660200182016040528015610bac576020820181803683370190505b5090508181016020015b5f19016f181899199a1a9b1b9c1cb0b131b232b360811b600a86061a8153600a8504945084610bb657509392505050565b8080610bfb57506001600160a01b03821615155b15610cbc575f610c0a8461078b565b90506001600160a01b03831615801590610c365750826001600160a01b0316816001600160a01b031614155b8015610c495750610c478184610721565b155b15610c725760405163a9fbf51f60e01b81526001600160a01b0384166004820152602401610436565b8115610cba5783856001600160a01b0316826001600160a01b03167f8c5be1e5ebec7d5bd14f71427d1e84f3dd0314c0f7b2291e5b200ac8c7c3b92560405160405180910390a45b505b50505f90815260046020526040902080546001600160a01b0319166001600160a01b0392909216919091179055565b610cf6838383610e3d565b6104e3576001600160a01b038316610d2457604051637e27328960e01b815260048101829052602401610436565b60405163177e802f60e01b81526001600160a01b038316600482015260248101829052604401610436565b610d598383610ea1565b6104e3335f858585610a20565b5f8072184f03e93ff9f4daa797ed6e38ed64bf6a1f0160401b8310610da45772184f03e93ff9f4daa797ed6e38ed64bf6a1f0160401b830492506040015b6d04ee2d6d415b85acef81000000008310610dd0576d04ee2d6d415b85acef8100000000830492506020015b662386f26fc100008310610dee57662386f26fc10000830492506010015b6305f5e1008310610e06576305f5e100830492506008015b6127108310610e1a57612710830492506004015b60648310610e2c576064830492506002015b600a83106103465760010192915050565b5f6001600160a01b03831615801590610e995750826001600160a01b0316846001600160a01b03161480610e765750610e768484610721565b80610e9957505f828152600460205260409020546001600160a01b038481169116145b949350505050565b6001600160a01b038216610eca57604051633250574960e11b81525f6004820152602401610436565b5f610ed683835f6107d0565b90506001600160a01b038116156104e3576040516339e3563760e11b81525f6004820152602401610436565b6001600160e01b031981168114610788575f80fd5b5f60208284031215610f27575f80fd5b813561071a81610f02565b5f5b83811015610f4c578181015183820152602001610f34565b50505f910152565b5f8151808452610f6b816020860160208601610f32565b601f01601f19169290920160200192915050565b602081525f61071a6020830184610f54565b5f60208284031215610fa1575f80fd5b5035919050565b80356001600160a01b0381168114610fbe575f80fd5b919050565b5f8060408385031215610fd4575f80fd5b610fdd83610fa8565b946020939093013593505050565b5f805f60608486031215610ffd575f80fd5b61100684610fa8565b925061101460208501610fa8565b9150604084013590509250925092565b5f60208284031215611034575f80fd5b61071a82610fa8565b634e487b7160e01b5f52604160045260245ffd5b5f67ffffffffffffffff8084111561106b5761106b61103d565b604051601f8501601f19908116603f011681019082821181831017156110935761109361103d565b816040528093508581528686860111156110ab575f80fd5b858560208301375f602087830101525050509392505050565b5f602082840312156110d4575f80fd5b813567ffffffffffffffff8111156110ea575f80fd5b8201601f810184136110fa575f80fd5b610e9984823560208401611051565b5f806040838503121561111a575f80fd5b61112383610fa8565b915060208301358015158114611137575f80fd5b809150509250929050565b5f805f8060808587031215611155575f80fd5b61115e85610fa8565b935061116c60208601610fa8565b925060408501359150606085013567ffffffffffffffff81111561118e575f80fd5b8501601f8101871361119e575f80fd5b6111ad87823560208401611051565b91505092959194509250565b5f80604083850312156111ca575f80fd5b6111d383610fa8565b91506111e160208401610fa8565b90509250929050565b600181811c908216806111fe57607f821691505b60208210810361121c57634e487b7160e01b5f52602260045260245ffd5b50919050565b601f8211156104e357805f5260205f20601f840160051c810160208510156112475750805b601f840160051c820191505b81811015610b41575f8155600101611253565b815167ffffffffffffffff8111156112805761128061103d565b6112948161128e84546111ea565b84611222565b602080601f8311600181146112c7575f84156112b05750858301515b5f19600386901b1c1916600185901b178555610b3f565b5f85815260208120601f198616915b828110156112f5578886015182559484019460019091019084016112d6565b508582101561131257878501515f19600388901b60f8161c191681555b5050505050600190811b01905550565b5f6001820161133f57634e487b7160e01b5f52601160045260245ffd5b5060010190565b5f8351611357818460208801610f32565b83519083019061136b818360208801610f32565b01949350505050565b6001600160a01b03858116825284166020820152604081018390526080606082018190525f906113a690830184610f54565b9695505050505050565b5f602082840312156113c0575f80fd5b815161071a81610f0256fea2646970667358221220cbc26c5a1617579efef3eda749c3d1a977930a579d096d8e9a7170d1f3afa34164736f6c63430008180033","opcodes":"PUSH1 0x80 PUSH1 0x40 MSTORE CALLVALUE DUP1 ISZERO PUSH3 0x10 JUMPI PUSH0 DUP1 REVERT JUMPDEST POP PUSH1 0x40 MLOAD PUSH3 0x17C1 CODESIZE SUB DUP1 PUSH3 0x17C1 DUP4 CODECOPY DUP2 ADD PUSH1 0x40 DUP2 SWAP1 MSTORE PUSH3 0x33 SWAP2 PUSH3 0x16E JUMP JUMPDEST CALLER PUSH1 0x40 MLOAD DUP1 PUSH1 0x40 ADD PUSH1 0x40 MSTORE DUP1 PUSH1 0x11 DUP2 MSTORE PUSH1 0x20 ADD PUSH17 0x14DDDA5C1951DA59C815995C9A599A5959 PUSH1 0x7A SHL DUP2 MSTORE POP PUSH1 0x40 MLOAD DUP1 PUSH1 0x40 ADD PUSH1 0x40 MSTORE DUP1 PUSH1 0x4 DUP2 MSTORE PUSH1 0x20 ADD PUSH4 0x29ABA3AB PUSH1 0xE1 SHL DUP2 MSTORE POP DUP2 PUSH0 SWAP1 DUP2 PUSH3 0x8B SWAP2 SWAP1 PUSH3 0x2E6 JUMP JUMPDEST POP PUSH1 0x1 PUSH3 0x9A DUP3 DUP3 PUSH3 0x2E6 JUMP JUMPDEST POP POP POP PUSH1 0x1 PUSH1 0x1 PUSH1 0xA0 SHL SUB DUP2 AND PUSH3 0xCB JUMPI PUSH1 0x40 MLOAD PUSH4 0x1E4FBDF7 PUSH1 0xE0 SHL DUP2 MSTORE PUSH0 PUSH1 0x4 DUP3 ADD MSTORE PUSH1 0x24 ADD PUSH1 0x40 MLOAD DUP1 SWAP2 SUB SWAP1 REVERT JUMPDEST PUSH3 0xD6 DUP2 PUSH3 0x109 JUMP JUMPDEST POP PUSH1 0x8 DUP1 SLOAD PUSH1 0x1 PUSH1 0x1 PUSH1 0xA0 SHL SUB NOT AND PUSH1 0x1 PUSH1 0x1 PUSH1 0xA0 SHL SUB DUP5 AND OR SWAP1 SSTORE PUSH1 0xA PUSH3 0x100 DUP3 DUP3 PUSH3 0x2E6 JUMP JUMPDEST POP POP POP PUSH3 0x3B2 JUMP JUMPDEST PUSH1 0x6 DUP1 SLOAD PUSH1 0x1 PUSH1 0x1 PUSH1 0xA0 SHL SUB DUP4 DUP2 AND PUSH1 0x1 PUSH1 0x1 PUSH1 0xA0 SHL SUB NOT DUP4 AND DUP2 OR SWAP1 SWAP4 SSTORE PUSH1 0x40 MLOAD SWAP2 AND SWAP2 SWAP1 DUP3 SWAP1 PUSH32 0x8BE0079C531659141344CD1FD0A4F28419497F9722A3DAAFE3B4186F6B6457E0 SWAP1 PUSH0 SWAP1 LOG3 POP POP JUMP JUMPDEST PUSH4 0x4E487B71 PUSH1 0xE0 SHL PUSH0 MSTORE PUSH1 0x41 PUSH1 0x4 MSTORE PUSH1 0x24 PUSH0 REVERT JUMPDEST PUSH0 DUP1 PUSH1 0x40 DUP4 DUP6 SUB SLT ISZERO PUSH3 0x180 JUMPI PUSH0 DUP1 REVERT JUMPDEST DUP3 MLOAD PUSH1 0x1 PUSH1 0x1 PUSH1 0xA0 SHL SUB DUP2 AND DUP2 EQ PUSH3 0x197 JUMPI PUSH0 DUP1 REVERT JUMPDEST PUSH1 0x20 DUP5 DUP2 ADD MLOAD SWAP2 SWAP4 POP SWAP1 PUSH1 0x1 PUSH1 0x1 PUSH1 0x40 SHL SUB DUP1 DUP3 GT ISZERO PUSH3 0x1B6 JUMPI PUSH0 DUP1 REVERT JUMPDEST DUP2 DUP7 ADD SWAP2 POP DUP7 PUSH1 0x1F DUP4 ADD SLT PUSH3 0x1CA JUMPI PUSH0 DUP1 REVERT JUMPDEST DUP2 MLOAD DUP2 DUP2 GT ISZERO PUSH3 0x1DF JUMPI PUSH3 0x1DF PUSH3 0x15A JUMP JUMPDEST PUSH1 0x40 MLOAD PUSH1 0x1F DUP3 ADD PUSH1 0x1F NOT SWAP1 DUP2 AND PUSH1 0x3F ADD AND DUP2 ADD SWAP1 DUP4 DUP3 GT DUP2 DUP4 LT OR ISZERO PUSH3 0x20A JUMPI PUSH3 0x20A PUSH3 0x15A JUMP JUMPDEST DUP2 PUSH1 0x40 MSTORE DUP3 DUP2 MSTORE DUP10 DUP7 DUP5 DUP8 ADD ADD GT ISZERO PUSH3 0x222 JUMPI PUSH0 DUP1 REVERT JUMPDEST PUSH0 SWAP4 POP JUMPDEST DUP3 DUP5 LT ISZERO PUSH3 0x245 JUMPI DUP5 DUP5 ADD DUP7 ADD MLOAD DUP2 DUP6 ADD DUP8 ADD MSTORE SWAP3 DUP6 ADD SWAP3 PUSH3 0x226 JUMP JUMPDEST PUSH0 DUP7 DUP5 DUP4 ADD ADD MSTORE DUP1 SWAP7 POP POP POP POP POP POP POP SWAP3 POP SWAP3 SWAP1 POP JUMP JUMPDEST PUSH1 0x1 DUP2 DUP2 SHR SWAP1 DUP3 AND DUP1 PUSH3 0x271 JUMPI PUSH1 0x7F DUP3 AND SWAP2 POP JUMPDEST PUSH1 0x20 DUP3 LT DUP2 SUB PUSH3 0x290 JUMPI PUSH4 0x4E487B71 PUSH1 0xE0 SHL PUSH0 MSTORE PUSH1 0x22 PUSH1 0x4 MSTORE PUSH1 0x24 PUSH0 REVERT JUMPDEST POP SWAP2 SWAP1 POP JUMP JUMPDEST PUSH1 0x1F DUP3 GT ISZERO PUSH3 0x2E1 JUMPI DUP1 PUSH0 MSTORE PUSH1 0x20 PUSH0 KECCAK256 PUSH1 0x1F DUP5 ADD PUSH1 0x5 SHR DUP2 ADD PUSH1 0x20 DUP6 LT ISZERO PUSH3 0x2BD JUMPI POP DUP1 JUMPDEST PUSH1 0x1F DUP5 ADD PUSH1 0x5 SHR DUP3 ADD SWAP2 POP JUMPDEST DUP2 DUP2 LT ISZERO PUSH3 0x2DE JUMPI PUSH0 DUP2 SSTORE PUSH1 0x1 ADD PUSH3 0x2C9 JUMP JUMPDEST POP POP JUMPDEST POP POP POP JUMP JUMPDEST DUP2 MLOAD PUSH1 0x1 PUSH1 0x1 PUSH1 0x40 SHL SUB DUP2 GT ISZERO PUSH3 0x302 JUMPI PUSH3 0x302 PUSH3 0x15A JUMP JUMPDEST PUSH3 0x31A DUP2 PUSH3 0x313 DUP5 SLOAD PUSH3 0x25C JUMP JUMPDEST DUP5 PUSH3 0x296 JUMP JUMPDEST PUSH1 0x20 DUP1 PUSH1 0x1F DUP4 GT PUSH1 0x1 DUP2 EQ PUSH3 0x350 JUMPI PUSH0 DUP5 ISZERO PUSH3 0x338 JUMPI POP DUP6 DUP4 ADD MLOAD JUMPDEST PUSH0 NOT PUSH1 0x3 DUP7 SWAP1 SHL SHR NOT AND PUSH1 0x1 DUP6 SWAP1 SHL OR DUP6 SSTORE PUSH3 0x3AA JUMP JUMPDEST PUSH0 DUP6 DUP2 MSTORE PUSH1 0x20 DUP2 KECCAK256 PUSH1 0x1F NOT DUP7 AND SWAP2 JUMPDEST DUP3 DUP2 LT ISZERO PUSH3 0x380 JUMPI DUP9 DUP7 ADD MLOAD DUP3 SSTORE SWAP5 DUP5 ADD SWAP5 PUSH1 0x1 SWAP1 SWAP2 ADD SWAP1 DUP5 ADD PUSH3 0x35F JUMP JUMPDEST POP DUP6 DUP3 LT ISZERO PUSH3 0x39E JUMPI DUP8 DUP6 ADD MLOAD PUSH0 NOT PUSH1 0x3 DUP9 SWAP1 SHL PUSH1 0xF8 AND SHR NOT AND DUP2 SSTORE JUMPDEST POP POP PUSH1 0x1 DUP5 PUSH1 0x1 SHL ADD DUP6 SSTORE JUMPDEST POP POP POP POP POP POP JUMP JUMPDEST PUSH2 0x1401 DUP1 PUSH3 0x3C0 PUSH0 CODECOPY PUSH0 RETURN INVALID PUSH1 0x80 PUSH1 0x40 MSTORE CALLVALUE DUP1 ISZERO PUSH2 0xF JUMPI PUSH0 DUP1 REVERT JUMPDEST POP PUSH1 0x4 CALLDATASIZE LT PUSH2 0x132 JUMPI PUSH0 CALLDATALOAD PUSH1 0xE0 SHR DUP1 PUSH4 0x65D65E86 GT PUSH2 0xB4 JUMPI DUP1 PUSH4 0x95D89B41 GT PUSH2 0x79 JUMPI DUP1 PUSH4 0x95D89B41 EQ PUSH2 0x294 JUMPI DUP1 PUSH4 0xA22CB465 EQ PUSH2 0x29C JUMPI DUP1 PUSH4 0xB88D4FDE EQ PUSH2 0x2AF JUMPI DUP1 PUSH4 0xC87B56DD EQ PUSH2 0x2C2 JUMPI DUP1 PUSH4 0xE985E9C5 EQ PUSH2 0x2D5 JUMPI DUP1 PUSH4 0xF2FDE38B EQ PUSH2 0x2E8 JUMPI PUSH0 DUP1 REVERT JUMPDEST DUP1 PUSH4 0x65D65E86 EQ PUSH2 0x234 JUMPI DUP1 PUSH4 0x70A08231 EQ PUSH2 0x247 JUMPI DUP1 PUSH4 0x715018A6 EQ PUSH2 0x268 JUMPI DUP1 PUSH4 0x8DA5CB5B EQ PUSH2 0x270 JUMPI DUP1 PUSH4 0x8FFAF596 EQ PUSH2 0x281 JUMPI PUSH0 DUP1 REVERT JUMPDEST DUP1 PUSH4 0x36F95670 GT PUSH2 0xFA JUMPI DUP1 PUSH4 0x36F95670 EQ PUSH2 0x1C6 JUMPI DUP1 PUSH4 0x38E21CCE EQ PUSH2 0x1D9 JUMPI DUP1 PUSH4 0x42842E0E EQ PUSH2 0x1FB JUMPI DUP1 PUSH4 0x55F804B3 EQ PUSH2 0x20E JUMPI DUP1 PUSH4 0x6352211E EQ PUSH2 0x221 JUMPI PUSH0 DUP1 REVERT JUMPDEST DUP1 PUSH4 0x1FFC9A7 EQ PUSH2 0x136 JUMPI DUP1 PUSH4 0x6FDDE03 EQ PUSH2 0x15E JUMPI DUP1 PUSH4 0x81812FC EQ PUSH2 0x173 JUMPI DUP1 PUSH4 0x95EA7B3 EQ PUSH2 0x19E JUMPI DUP1 PUSH4 0x23B872DD EQ PUSH2 0x1B3 JUMPI JUMPDEST PUSH0 DUP1 REVERT JUMPDEST PUSH2 0x149 PUSH2 0x144 CALLDATASIZE PUSH1 0x4 PUSH2 0xF17 JUMP JUMPDEST PUSH2 0x2FB JUMP JUMPDEST PUSH1 0x40 MLOAD SWAP1 ISZERO ISZERO DUP2 MSTORE PUSH1 0x20 ADD JUMPDEST PUSH1 0x40 MLOAD DUP1 SWAP2 SUB SWAP1 RETURN JUMPDEST PUSH2 0x166 PUSH2 0x34C JUMP JUMPDEST PUSH1 0x40 MLOAD PUSH2 0x155 SWAP2 SWAP1 PUSH2 0xF7F JUMP JUMPDEST PUSH2 0x186 PUSH2 0x181 CALLDATASIZE PUSH1 0x4 PUSH2 0xF91 JUMP JUMPDEST PUSH2 0x3DB JUMP JUMPDEST PUSH1 0x40 MLOAD PUSH1 0x1 PUSH1 0x1 PUSH1 0xA0 SHL SUB SWAP1 SWAP2 AND DUP2 MSTORE PUSH1 0x20 ADD PUSH2 0x155 JUMP JUMPDEST PUSH2 0x1B1 PUSH2 0x1AC CALLDATASIZE PUSH1 0x4 PUSH2 0xFC3 JUMP JUMPDEST PUSH2 0x402 JUMP JUMPDEST STOP JUMPDEST PUSH2 0x1B1 PUSH2 0x1C1 CALLDATASIZE PUSH1 0x4 PUSH2 0xFEB JUMP JUMPDEST PUSH2 0x411 JUMP JUMPDEST PUSH2 0x1B1 PUSH2 0x1D4 CALLDATASIZE PUSH1 0x4 PUSH2 0x1024 JUMP JUMPDEST PUSH2 0x49F JUMP JUMPDEST PUSH2 0x149 PUSH2 0x1E7 CALLDATASIZE PUSH1 0x4 PUSH2 0x1024 JUMP JUMPDEST PUSH1 0x9 PUSH1 0x20 MSTORE PUSH0 SWAP1 DUP2 MSTORE PUSH1 0x40 SWAP1 KECCAK256 SLOAD PUSH1 0xFF AND DUP2 JUMP JUMPDEST PUSH2 0x1B1 PUSH2 0x209 CALLDATASIZE PUSH1 0x4 PUSH2 0xFEB JUMP JUMPDEST PUSH2 0x4C9 JUMP JUMPDEST PUSH2 0x1B1 PUSH2 0x21C CALLDATASIZE PUSH1 0x4 PUSH2 0x10C4 JUMP JUMPDEST PUSH2 0x4E8 JUMP JUMPDEST PUSH2 0x186 PUSH2 0x22F CALLDATASIZE PUSH1 0x4 PUSH2 0xF91 JUMP JUMPDEST PUSH2 0x4FC JUMP JUMPDEST PUSH1 0x8 SLOAD PUSH2 0x186 SWAP1 PUSH1 0x1 PUSH1 0x1 PUSH1 0xA0 SHL SUB AND DUP2 JUMP JUMPDEST PUSH2 0x25A PUSH2 0x255 CALLDATASIZE PUSH1 0x4 PUSH2 0x1024 JUMP JUMPDEST PUSH2 0x506 JUMP JUMPDEST PUSH1 0x40 MLOAD SWAP1 DUP2 MSTORE PUSH1 0x20 ADD PUSH2 0x155 JUMP JUMPDEST PUSH2 0x1B1 PUSH2 0x54B JUMP JUMPDEST PUSH1 0x6 SLOAD PUSH1 0x1 PUSH1 0x1 PUSH1 0xA0 SHL SUB AND PUSH2 0x186 JUMP JUMPDEST PUSH2 0x1B1 PUSH2 0x28F CALLDATASIZE PUSH1 0x4 PUSH2 0x1024 JUMP JUMPDEST PUSH2 0x55E JUMP JUMPDEST PUSH2 0x166 PUSH2 0x68A JUMP JUMPDEST PUSH2 0x1B1 PUSH2 0x2AA CALLDATASIZE PUSH1 0x4 PUSH2 0x1109 JUMP JUMPDEST PUSH2 0x699 JUMP JUMPDEST PUSH2 0x1B1 PUSH2 0x2BD CALLDATASIZE PUSH1 0x4 PUSH2 0x1142 JUMP JUMPDEST PUSH2 0x6A4 JUMP JUMPDEST PUSH2 0x166 PUSH2 0x2D0 CALLDATASIZE PUSH1 0x4 PUSH2 0xF91 JUMP JUMPDEST PUSH2 0x6BC JUMP JUMPDEST PUSH2 0x149 PUSH2 0x2E3 CALLDATASIZE PUSH1 0x4 PUSH2 0x11B9 JUMP JUMPDEST PUSH2 0x721 JUMP JUMPDEST PUSH2 0x1B1 PUSH2 0x2F6 CALLDATASIZE PUSH1 0x4 PUSH2 0x1024 JUMP JUMPDEST PUSH2 0x74E JUMP JUMPDEST PUSH0 PUSH1 0x1 PUSH1 0x1 PUSH1 0xE0 SHL SUB NOT DUP3 AND PUSH4 0x80AC58CD PUSH1 0xE0 SHL EQ DUP1 PUSH2 0x32B JUMPI POP PUSH1 0x1 PUSH1 0x1 PUSH1 0xE0 SHL SUB NOT DUP3 AND PUSH4 0x5B5E139F PUSH1 0xE0 SHL EQ JUMPDEST DUP1 PUSH2 0x346 JUMPI POP PUSH4 0x1FFC9A7 PUSH1 0xE0 SHL PUSH1 0x1 PUSH1 0x1 PUSH1 0xE0 SHL SUB NOT DUP4 AND EQ JUMPDEST SWAP3 SWAP2 POP POP JUMP JUMPDEST PUSH1 0x60 PUSH0 DUP1 SLOAD PUSH2 0x35A SWAP1 PUSH2 0x11EA JUMP JUMPDEST DUP1 PUSH1 0x1F ADD PUSH1 0x20 DUP1 SWAP2 DIV MUL PUSH1 0x20 ADD PUSH1 0x40 MLOAD SWAP1 DUP2 ADD PUSH1 0x40 MSTORE DUP1 SWAP3 SWAP2 SWAP1 DUP2 DUP2 MSTORE PUSH1 0x20 ADD DUP3 DUP1 SLOAD PUSH2 0x386 SWAP1 PUSH2 0x11EA JUMP JUMPDEST DUP1 ISZERO PUSH2 0x3D1 JUMPI DUP1 PUSH1 0x1F LT PUSH2 0x3A8 JUMPI PUSH2 0x100 DUP1 DUP4 SLOAD DIV MUL DUP4 MSTORE SWAP2 PUSH1 0x20 ADD SWAP2 PUSH2 0x3D1 JUMP JUMPDEST DUP3 ADD SWAP2 SWAP1 PUSH0 MSTORE PUSH1 0x20 PUSH0 KECCAK256 SWAP1 JUMPDEST DUP2 SLOAD DUP2 MSTORE SWAP1 PUSH1 0x1 ADD SWAP1 PUSH1 0x20 ADD DUP1 DUP4 GT PUSH2 0x3B4 JUMPI DUP3 SWAP1 SUB PUSH1 0x1F AND DUP3 ADD SWAP2 JUMPDEST POP POP POP POP POP SWAP1 POP SWAP1 JUMP JUMPDEST PUSH0 PUSH2 0x3E5 DUP3 PUSH2 0x78B JUMP JUMPDEST POP PUSH0 DUP3 DUP2 MSTORE PUSH1 0x4 PUSH1 0x20 MSTORE PUSH1 0x40 SWAP1 KECCAK256 SLOAD PUSH1 0x1 PUSH1 0x1 PUSH1 0xA0 SHL SUB AND PUSH2 0x346 JUMP JUMPDEST PUSH2 0x40D DUP3 DUP3 CALLER PUSH2 0x7C3 JUMP JUMPDEST POP POP JUMP JUMPDEST PUSH1 0x1 PUSH1 0x1 PUSH1 0xA0 SHL SUB DUP3 AND PUSH2 0x43F JUMPI PUSH1 0x40 MLOAD PUSH4 0x32505749 PUSH1 0xE1 SHL DUP2 MSTORE PUSH0 PUSH1 0x4 DUP3 ADD MSTORE PUSH1 0x24 ADD JUMPDEST PUSH1 0x40 MLOAD DUP1 SWAP2 SUB SWAP1 REVERT JUMPDEST PUSH0 PUSH2 0x44B DUP4 DUP4 CALLER PUSH2 0x7D0 JUMP JUMPDEST SWAP1 POP DUP4 PUSH1 0x1 PUSH1 0x1 PUSH1 0xA0 SHL SUB AND DUP2 PUSH1 0x1 PUSH1 0x1 PUSH1 0xA0 SHL SUB AND EQ PUSH2 0x499 JUMPI PUSH1 0x40 MLOAD PUSH4 0x64283D7B PUSH1 0xE0 SHL DUP2 MSTORE PUSH1 0x1 PUSH1 0x1 PUSH1 0xA0 SHL SUB DUP1 DUP7 AND PUSH1 0x4 DUP4 ADD MSTORE PUSH1 0x24 DUP3 ADD DUP5 SWAP1 MSTORE DUP3 AND PUSH1 0x44 DUP3 ADD MSTORE PUSH1 0x64 ADD PUSH2 0x436 JUMP JUMPDEST POP POP POP POP JUMP JUMPDEST PUSH2 0x4A7 PUSH2 0x8C2 JUMP JUMPDEST PUSH1 0x8 DUP1 SLOAD PUSH1 0x1 PUSH1 0x1 PUSH1 0xA0 SHL SUB NOT AND PUSH1 0x1 PUSH1 0x1 PUSH1 0xA0 SHL SUB SWAP3 SWAP1 SWAP3 AND SWAP2 SWAP1 SWAP2 OR SWAP1 SSTORE JUMP JUMPDEST PUSH2 0x4E3 DUP4 DUP4 DUP4 PUSH1 0x40 MLOAD DUP1 PUSH1 0x20 ADD PUSH1 0x40 MSTORE DUP1 PUSH0 DUP2 MSTORE POP PUSH2 0x6A4 JUMP JUMPDEST POP POP POP JUMP JUMPDEST PUSH2 0x4F0 PUSH2 0x8C2 JUMP JUMPDEST PUSH1 0xA PUSH2 0x40D DUP3 DUP3 PUSH2 0x1266 JUMP JUMPDEST PUSH0 PUSH2 0x346 DUP3 PUSH2 0x78B JUMP JUMPDEST PUSH0 PUSH1 0x1 PUSH1 0x1 PUSH1 0xA0 SHL SUB DUP3 AND PUSH2 0x530 JUMPI PUSH1 0x40 MLOAD PUSH4 0x22718AD9 PUSH1 0xE2 SHL DUP2 MSTORE PUSH0 PUSH1 0x4 DUP3 ADD MSTORE PUSH1 0x24 ADD PUSH2 0x436 JUMP JUMPDEST POP PUSH1 0x1 PUSH1 0x1 PUSH1 0xA0 SHL SUB AND PUSH0 SWAP1 DUP2 MSTORE PUSH1 0x3 PUSH1 0x20 MSTORE PUSH1 0x40 SWAP1 KECCAK256 SLOAD SWAP1 JUMP JUMPDEST PUSH2 0x553 PUSH2 0x8C2 JUMP JUMPDEST PUSH2 0x55C PUSH0 PUSH2 0x8EF JUMP JUMPDEST JUMP JUMPDEST PUSH1 0x8 SLOAD PUSH1 0x1 PUSH1 0x1 PUSH1 0xA0 SHL SUB AND CALLER EQ PUSH2 0x5A9 JUMPI PUSH1 0x40 MLOAD PUSH3 0x461BCD PUSH1 0xE5 SHL DUP2 MSTORE PUSH1 0x20 PUSH1 0x4 DUP3 ADD MSTORE PUSH1 0xE PUSH1 0x24 DUP3 ADD MSTORE PUSH14 0x139BDD08185D5D1A1BDC9A5E9959 PUSH1 0x92 SHL PUSH1 0x44 DUP3 ADD MSTORE PUSH1 0x64 ADD PUSH2 0x436 JUMP JUMPDEST PUSH1 0x1 PUSH1 0x1 PUSH1 0xA0 SHL SUB DUP2 AND PUSH0 SWAP1 DUP2 MSTORE PUSH1 0x9 PUSH1 0x20 MSTORE PUSH1 0x40 SWAP1 KECCAK256 SLOAD PUSH1 0xFF AND ISZERO PUSH2 0x602 JUMPI PUSH1 0x40 MLOAD PUSH3 0x461BCD PUSH1 0xE5 SHL DUP2 MSTORE PUSH1 0x20 PUSH1 0x4 DUP3 ADD MSTORE PUSH1 0xE PUSH1 0x24 DUP3 ADD MSTORE PUSH14 0x105B1C9958591E481B5A5B9D1959 PUSH1 0x92 SHL PUSH1 0x44 DUP3 ADD MSTORE PUSH1 0x64 ADD PUSH2 0x436 JUMP JUMPDEST PUSH1 0x1 PUSH1 0x1 PUSH1 0xA0 SHL SUB DUP2 AND PUSH0 SWAP1 DUP2 MSTORE PUSH1 0x9 PUSH1 0x20 MSTORE PUSH1 0x40 DUP2 KECCAK256 DUP1 SLOAD PUSH1 0xFF NOT AND PUSH1 0x1 OR SWAP1 SSTORE PUSH1 0x7 DUP1 SLOAD SWAP1 DUP3 PUSH2 0x633 DUP4 PUSH2 0x1322 JUMP JUMPDEST SWAP2 SWAP1 POP SSTORE SWAP1 POP PUSH2 0x643 DUP3 DUP3 PUSH2 0x940 JUMP JUMPDEST DUP2 PUSH1 0x1 PUSH1 0x1 PUSH1 0xA0 SHL SUB AND PUSH32 0xB3A24AAF06284512F3037D1DE23FD16E7EDC08D6082AC0B4EF3142F495AB6817 DUP3 PUSH1 0x40 MLOAD PUSH2 0x67E SWAP2 DUP2 MSTORE PUSH1 0x20 ADD SWAP1 JUMP JUMPDEST PUSH1 0x40 MLOAD DUP1 SWAP2 SUB SWAP1 LOG2 POP POP JUMP JUMPDEST PUSH1 0x60 PUSH1 0x1 DUP1 SLOAD PUSH2 0x35A SWAP1 PUSH2 0x11EA JUMP JUMPDEST PUSH2 0x40D CALLER DUP4 DUP4 PUSH2 0x959 JUMP JUMPDEST PUSH2 0x6AF DUP5 DUP5 DUP5 PUSH2 0x411 JUMP JUMPDEST PUSH2 0x499 CALLER DUP6 DUP6 DUP6 DUP6 PUSH2 0xA20 JUMP JUMPDEST PUSH1 0x60 PUSH2 0x6C7 DUP3 PUSH2 0x78B JUMP JUMPDEST POP PUSH0 PUSH2 0x6D1 PUSH2 0xB48 JUMP JUMPDEST SWAP1 POP PUSH0 DUP2 MLOAD GT PUSH2 0x6EF JUMPI PUSH1 0x40 MLOAD DUP1 PUSH1 0x20 ADD PUSH1 0x40 MSTORE DUP1 PUSH0 DUP2 MSTORE POP PUSH2 0x71A JUMP JUMPDEST DUP1 PUSH2 0x6F9 DUP5 PUSH2 0xB57 JUMP JUMPDEST PUSH1 0x40 MLOAD PUSH1 0x20 ADD PUSH2 0x70A SWAP3 SWAP2 SWAP1 PUSH2 0x1346 JUMP JUMPDEST PUSH1 0x40 MLOAD PUSH1 0x20 DUP2 DUP4 SUB SUB DUP2 MSTORE SWAP1 PUSH1 0x40 MSTORE JUMPDEST SWAP4 SWAP3 POP POP POP JUMP JUMPDEST PUSH1 0x1 PUSH1 0x1 PUSH1 0xA0 SHL SUB SWAP2 DUP3 AND PUSH0 SWAP1 DUP2 MSTORE PUSH1 0x5 PUSH1 0x20 SWAP1 DUP2 MSTORE PUSH1 0x40 DUP1 DUP4 KECCAK256 SWAP4 SWAP1 SWAP5 AND DUP3 MSTORE SWAP2 SWAP1 SWAP2 MSTORE KECCAK256 SLOAD PUSH1 0xFF AND SWAP1 JUMP JUMPDEST PUSH2 0x756 PUSH2 0x8C2 JUMP JUMPDEST PUSH1 0x1 PUSH1 0x1 PUSH1 0xA0 SHL SUB DUP2 AND PUSH2 0x77F JUMPI PUSH1 0x40 MLOAD PUSH4 0x1E4FBDF7 PUSH1 0xE0 SHL DUP2 MSTORE PUSH0 PUSH1 0x4 DUP3 ADD MSTORE PUSH1 0x24 ADD PUSH2 0x436 JUMP JUMPDEST PUSH2 0x788 DUP2 PUSH2 0x8EF JUMP JUMPDEST POP JUMP JUMPDEST PUSH0 DUP2 DUP2 MSTORE PUSH1 0x2 PUSH1 0x20 MSTORE PUSH1 0x40 DUP2 KECCAK256 SLOAD PUSH1 0x1 PUSH1 0x1 PUSH1 0xA0 SHL SUB AND DUP1 PUSH2 0x346 JUMPI PUSH1 0x40 MLOAD PUSH4 0x7E273289 PUSH1 0xE0 SHL DUP2 MSTORE PUSH1 0x4 DUP2 ADD DUP5 SWAP1 MSTORE PUSH1 0x24 ADD PUSH2 0x436 JUMP JUMPDEST PUSH2 0x4E3 DUP4 DUP4 DUP4 PUSH1 0x1 PUSH2 0xBE7 JUMP JUMPDEST PUSH0 DUP3 DUP2 MSTORE PUSH1 0x2 PUSH1 0x20 MSTORE PUSH1 0x40 DUP2 KECCAK256 SLOAD PUSH1 0x1 PUSH1 0x1 PUSH1 0xA0 SHL SUB SWAP1 DUP2 AND SWAP1 DUP4 AND ISZERO PUSH2 0x7FC JUMPI PUSH2 0x7FC DUP2 DUP5 DUP7 PUSH2 0xCEB JUMP JUMPDEST PUSH1 0x1 PUSH1 0x1 PUSH1 0xA0 SHL SUB DUP2 AND ISZERO PUSH2 0x836 JUMPI PUSH2 0x817 PUSH0 DUP6 PUSH0 DUP1 PUSH2 0xBE7 JUMP JUMPDEST PUSH1 0x1 PUSH1 0x1 PUSH1 0xA0 SHL SUB DUP2 AND PUSH0 SWAP1 DUP2 MSTORE PUSH1 0x3 PUSH1 0x20 MSTORE PUSH1 0x40 SWAP1 KECCAK256 DUP1 SLOAD PUSH0 NOT ADD SWAP1 SSTORE JUMPDEST PUSH1 0x1 PUSH1 0x1 PUSH1 0xA0 SHL SUB DUP6 AND ISZERO PUSH2 0x864 JUMPI PUSH1 0x1 PUSH1 0x1 PUSH1 0xA0 SHL SUB DUP6 AND PUSH0 SWAP1 DUP2 MSTORE PUSH1 0x3 PUSH1 0x20 MSTORE PUSH1 0x40 SWAP1 KECCAK256 DUP1 SLOAD PUSH1 0x1 ADD SWAP1 SSTORE JUMPDEST PUSH0 DUP5 DUP2 MSTORE PUSH1 0x2 PUSH1 0x20 MSTORE PUSH1 0x40 DUP1 DUP3 KECCAK256 DUP1 SLOAD PUSH1 0x1 PUSH1 0x1 PUSH1 0xA0 SHL SUB NOT AND PUSH1 0x1 PUSH1 0x1 PUSH1 0xA0 SHL SUB DUP10 DUP2 AND SWAP2 DUP3 OR SWAP1 SWAP3 SSTORE SWAP2 MLOAD DUP8 SWAP4 SWAP2 DUP6 AND SWAP2 PUSH32 0xDDF252AD1BE2C89B69C2B068FC378DAA952BA7F163C4A11628F55A4DF523B3EF SWAP2 LOG4 SWAP5 SWAP4 POP POP POP POP JUMP JUMPDEST PUSH1 0x6 SLOAD PUSH1 0x1 PUSH1 0x1 PUSH1 0xA0 SHL SUB AND CALLER EQ PUSH2 0x55C JUMPI PUSH1 0x40 MLOAD PUSH4 0x118CDAA7 PUSH1 0xE0 SHL DUP2 MSTORE CALLER PUSH1 0x4 DUP3 ADD MSTORE PUSH1 0x24 ADD PUSH2 0x436 JUMP JUMPDEST PUSH1 0x6 DUP1 SLOAD PUSH1 0x1 PUSH1 0x1 PUSH1 0xA0 SHL SUB DUP4 DUP2 AND PUSH1 0x1 PUSH1 0x1 PUSH1 0xA0 SHL SUB NOT DUP4 AND DUP2 OR SWAP1 SWAP4 SSTORE PUSH1 0x40 MLOAD SWAP2 AND SWAP2 SWAP1 DUP3 SWAP1 PUSH32 0x8BE0079C531659141344CD1FD0A4F28419497F9722A3DAAFE3B4186F6B6457E0 SWAP1 PUSH0 SWAP1 LOG3 POP POP JUMP JUMPDEST PUSH2 0x40D DUP3 DUP3 PUSH1 0x40 MLOAD DUP1 PUSH1 0x20 ADD PUSH1 0x40 MSTORE DUP1 PUSH0 DUP2 MSTORE POP PUSH2 0xD4F JUMP JUMPDEST PUSH1 0x1 PUSH1 0x1 PUSH1 0xA0 SHL SUB DUP4 AND PUSH2 0x982 JUMPI PUSH1 0x40 MLOAD PUSH4 0xA9FBF51F PUSH1 0xE0 SHL DUP2 MSTORE PUSH0 PUSH1 0x4 DUP3 ADD MSTORE PUSH1 0x24 ADD PUSH2 0x436 JUMP JUMPDEST PUSH1 0x1 PUSH1 0x1 PUSH1 0xA0 SHL SUB DUP3 AND PUSH2 0x9B4 JUMPI PUSH1 0x40 MLOAD PUSH4 0xB611743 PUSH1 0xE3 SHL DUP2 MSTORE PUSH1 0x1 PUSH1 0x1 PUSH1 0xA0 SHL SUB DUP4 AND PUSH1 0x4 DUP3 ADD MSTORE PUSH1 0x24 ADD PUSH2 0x436 JUMP JUMPDEST PUSH1 0x1 PUSH1 0x1 PUSH1 0xA0 SHL SUB DUP4 DUP2 AND PUSH0 DUP2 DUP2 MSTORE PUSH1 0x5 PUSH1 0x20 SWAP1 DUP2 MSTORE PUSH1 0x40 DUP1 DUP4 KECCAK256 SWAP5 DUP8 AND DUP1 DUP5 MSTORE SWAP5 DUP3 MSTORE SWAP2 DUP3 SWAP1 KECCAK256 DUP1 SLOAD PUSH1 0xFF NOT AND DUP7 ISZERO ISZERO SWAP1 DUP2 OR SWAP1 SWAP2 SSTORE SWAP2 MLOAD SWAP2 DUP3 MSTORE PUSH32 0x17307EAB39AB6107E8899845AD3D59BD9653F200F220920489CA2B5937696C31 SWAP2 ADD PUSH1 0x40 MLOAD DUP1 SWAP2 SUB SWAP1 LOG3 POP POP POP JUMP JUMPDEST PUSH1 0x1 PUSH1 0x1 PUSH1 0xA0 SHL SUB DUP4 AND EXTCODESIZE ISZERO PUSH2 0xB41 JUMPI PUSH1 0x40 MLOAD PUSH4 0xA85BD01 PUSH1 0xE1 SHL DUP2 MSTORE PUSH1 0x1 PUSH1 0x1 PUSH1 0xA0 SHL SUB DUP5 AND SWAP1 PUSH4 0x150B7A02 SWAP1 PUSH2 0xA62 SWAP1 DUP9 SWAP1 DUP9 SWAP1 DUP8 SWAP1 DUP8 SWAP1 PUSH1 0x4 ADD PUSH2 0x1374 JUMP JUMPDEST PUSH1 0x20 PUSH1 0x40 MLOAD DUP1 DUP4 SUB DUP2 PUSH0 DUP8 GAS CALL SWAP3 POP POP POP DUP1 ISZERO PUSH2 0xA9C JUMPI POP PUSH1 0x40 DUP1 MLOAD PUSH1 0x1F RETURNDATASIZE SWAP1 DUP2 ADD PUSH1 0x1F NOT AND DUP3 ADD SWAP1 SWAP3 MSTORE PUSH2 0xA99 SWAP2 DUP2 ADD SWAP1 PUSH2 0x13B0 JUMP JUMPDEST PUSH1 0x1 JUMPDEST PUSH2 0xB03 JUMPI RETURNDATASIZE DUP1 DUP1 ISZERO PUSH2 0xAC9 JUMPI PUSH1 0x40 MLOAD SWAP2 POP PUSH1 0x1F NOT PUSH1 0x3F RETURNDATASIZE ADD AND DUP3 ADD PUSH1 0x40 MSTORE RETURNDATASIZE DUP3 MSTORE RETURNDATASIZE PUSH0 PUSH1 0x20 DUP5 ADD RETURNDATACOPY PUSH2 0xACE JUMP JUMPDEST PUSH1 0x60 SWAP2 POP JUMPDEST POP DUP1 MLOAD PUSH0 SUB PUSH2 0xAFB JUMPI PUSH1 0x40 MLOAD PUSH4 0x32505749 PUSH1 0xE1 SHL DUP2 MSTORE PUSH1 0x1 PUSH1 0x1 PUSH1 0xA0 SHL SUB DUP6 AND PUSH1 0x4 DUP3 ADD MSTORE PUSH1 0x24 ADD PUSH2 0x436 JUMP JUMPDEST DUP1 MLOAD PUSH1 0x20 DUP3 ADD REVERT JUMPDEST PUSH1 0x1 PUSH1 0x1 PUSH1 0xE0 SHL SUB NOT DUP2 AND PUSH4 0xA85BD01 PUSH1 0xE1 SHL EQ PUSH2 0xB3F JUMPI PUSH1 0x40 MLOAD PUSH4 0x32505749 PUSH1 0xE1 SHL DUP2 MSTORE PUSH1 0x1 PUSH1 0x1 PUSH1 0xA0 SHL SUB DUP6 AND PUSH1 0x4 DUP3 ADD MSTORE PUSH1 0x24 ADD PUSH2 0x436 JUMP JUMPDEST POP JUMPDEST POP POP POP POP POP JUMP JUMPDEST PUSH1 0x60 PUSH1 0xA DUP1 SLOAD PUSH2 0x35A SWAP1 PUSH2 0x11EA JUMP JUMPDEST PUSH1 0x60 PUSH0 PUSH2 0xB63 DUP4 PUSH2 0xD66 JUMP JUMPDEST PUSH1 0x1 ADD SWAP1 POP PUSH0 DUP2 PUSH8 0xFFFFFFFFFFFFFFFF DUP2 GT ISZERO PUSH2 0xB82 JUMPI PUSH2 0xB82 PUSH2 0x103D JUMP JUMPDEST PUSH1 0x40 MLOAD SWAP1 DUP1 DUP3 MSTORE DUP1 PUSH1 0x1F ADD PUSH1 0x1F NOT AND PUSH1 0x20 ADD DUP3 ADD PUSH1 0x40 MSTORE DUP1 ISZERO PUSH2 0xBAC JUMPI PUSH1 0x20 DUP3 ADD DUP2 DUP1 CALLDATASIZE DUP4 CALLDATACOPY ADD SWAP1 POP JUMPDEST POP SWAP1 POP DUP2 DUP2 ADD PUSH1 0x20 ADD JUMPDEST PUSH0 NOT ADD PUSH16 0x181899199A1A9B1B9C1CB0B131B232B3 PUSH1 0x81 SHL PUSH1 0xA DUP7 MOD BYTE DUP2 MSTORE8 PUSH1 0xA DUP6 DIV SWAP5 POP DUP5 PUSH2 0xBB6 JUMPI POP SWAP4 SWAP3 POP POP POP JUMP JUMPDEST DUP1 DUP1 PUSH2 0xBFB JUMPI POP PUSH1 0x1 PUSH1 0x1 PUSH1 0xA0 SHL SUB DUP3 AND ISZERO ISZERO JUMPDEST ISZERO PUSH2 0xCBC JUMPI PUSH0 PUSH2 0xC0A DUP5 PUSH2 0x78B JUMP JUMPDEST SWAP1 POP PUSH1 0x1 PUSH1 0x1 PUSH1 0xA0 SHL SUB DUP4 AND ISZERO DUP1 ISZERO SWAP1 PUSH2 0xC36 JUMPI POP DUP3 PUSH1 0x1 PUSH1 0x1 PUSH1 0xA0 SHL SUB AND DUP2 PUSH1 0x1 PUSH1 0x1 PUSH1 0xA0 SHL SUB AND EQ ISZERO JUMPDEST DUP1 ISZERO PUSH2 0xC49 JUMPI POP PUSH2 0xC47 DUP2 DUP5 PUSH2 0x721 JUMP JUMPDEST ISZERO JUMPDEST ISZERO PUSH2 0xC72 JUMPI PUSH1 0x40 MLOAD PUSH4 0xA9FBF51F PUSH1 0xE0 SHL DUP2 MSTORE PUSH1 0x1 PUSH1 0x1 PUSH1 0xA0 SHL SUB DUP5 AND PUSH1 0x4 DUP3 ADD MSTORE PUSH1 0x24 ADD PUSH2 0x436 JUMP JUMPDEST DUP2 ISZERO PUSH2 0xCBA JUMPI DUP4 DUP6 PUSH1 0x1 PUSH1 0x1 PUSH1 0xA0 SHL SUB AND DUP3 PUSH1 0x1 PUSH1 0x1 PUSH1 0xA0 SHL SUB AND PUSH32 0x8C5BE1E5EBEC7D5BD14F71427D1E84F3DD0314C0F7B2291E5B200AC8C7C3B925 PUSH1 0x40 MLOAD PUSH1 0x40 MLOAD DUP1 SWAP2 SUB SWAP1 LOG4 JUMPDEST POP JUMPDEST POP POP PUSH0 SWAP1 DUP2 MSTORE PUSH1 0x4 PUSH1 0x20 MSTORE PUSH1 0x40 SWAP1 KECCAK256 DUP1 SLOAD PUSH1 0x1 PUSH1 0x1 PUSH1 0xA0 SHL SUB NOT AND PUSH1 0x1 PUSH1 0x1 PUSH1 0xA0 SHL SUB SWAP3 SWAP1 SWAP3 AND SWAP2 SWAP1 SWAP2 OR SWAP1 SSTORE JUMP JUMPDEST PUSH2 0xCF6 DUP4 DUP4 DUP4 PUSH2 0xE3D JUMP JUMPDEST PUSH2 0x4E3 JUMPI PUSH1 0x1 PUSH1 0x1 PUSH1 0xA0 SHL SUB DUP4 AND PUSH2 0xD24 JUMPI PUSH1 0x40 MLOAD PUSH4 0x7E273289 PUSH1 0xE0 SHL DUP2 MSTORE PUSH1 0x4 DUP2 ADD DUP3 SWAP1 MSTORE PUSH1 0x24 ADD PUSH2 0x436 JUMP JUMPDEST PUSH1 0x40 MLOAD PUSH4 0x177E802F PUSH1 0xE0 SHL DUP2 MSTORE PUSH1 0x1 PUSH1 0x1 PUSH1 0xA0 SHL SUB DUP4 AND PUSH1 0x4 DUP3 ADD MSTORE PUSH1 0x24 DUP2 ADD DUP3 SWAP1 MSTORE PUSH1 0x44 ADD PUSH2 0x436 JUMP JUMPDEST PUSH2 0xD59 DUP4 DUP4 PUSH2 0xEA1 JUMP JUMPDEST PUSH2 0x4E3 CALLER PUSH0 DUP6 DUP6 DUP6 PUSH2 0xA20 JUMP JUMPDEST PUSH0 DUP1 PUSH19 0x184F03E93FF9F4DAA797ED6E38ED64BF6A1F01 PUSH1 0x40 SHL DUP4 LT PUSH2 0xDA4 JUMPI PUSH19 0x184F03E93FF9F4DAA797ED6E38ED64BF6A1F01 PUSH1 0x40 SHL DUP4 DIV SWAP3 POP PUSH1 0x40 ADD JUMPDEST PUSH14 0x4EE2D6D415B85ACEF8100000000 DUP4 LT PUSH2 0xDD0 JUMPI PUSH14 0x4EE2D6D415B85ACEF8100000000 DUP4 DIV SWAP3 POP PUSH1 0x20 ADD JUMPDEST PUSH7 0x2386F26FC10000 DUP4 LT PUSH2 0xDEE JUMPI PUSH7 0x2386F26FC10000 DUP4 DIV SWAP3 POP PUSH1 0x10 ADD JUMPDEST PUSH4 0x5F5E100 DUP4 LT PUSH2 0xE06 JUMPI PUSH4 0x5F5E100 DUP4 DIV SWAP3 POP PUSH1 0x8 ADD JUMPDEST PUSH2 0x2710 DUP4 LT PUSH2 0xE1A JUMPI PUSH2 0x2710 DUP4 DIV SWAP3 POP PUSH1 0x4 ADD JUMPDEST PUSH1 0x64 DUP4 LT PUSH2 0xE2C JUMPI PUSH1 0x64 DUP4 DIV SWAP3 POP PUSH1 0x2 ADD JUMPDEST PUSH1 0xA DUP4 LT PUSH2 0x346 JUMPI PUSH1 0x1 ADD SWAP3 SWAP2 POP POP JUMP JUMPDEST PUSH0 PUSH1 0x1 PUSH1 0x1 PUSH1 0xA0 SHL SUB DUP4 AND ISZERO DUP1 ISZERO SWAP1 PUSH2 0xE99 JUMPI POP DUP3 PUSH1 0x1 PUSH1 0x1 PUSH1 0xA0 SHL SUB AND DUP5 PUSH1 0x1 PUSH1 0x1 PUSH1 0xA0 SHL SUB AND EQ DUP1 PUSH2 0xE76 JUMPI POP PUSH2 0xE76 DUP5 DUP5 PUSH2 0x721 JUMP JUMPDEST DUP1 PUSH2 0xE99 JUMPI POP PUSH0 DUP3 DUP2 MSTORE PUSH1 0x4 PUSH1 0x20 MSTORE PUSH1 0x40 SWAP1 KECCAK256 SLOAD PUSH1 0x1 PUSH1 0x1 PUSH1 0xA0 SHL SUB DUP5 DUP2 AND SWAP2 AND EQ JUMPDEST SWAP5 SWAP4 POP POP POP POP JUMP JUMPDEST PUSH1 0x1 PUSH1 0x1 PUSH1 0xA0 SHL SUB DUP3 AND PUSH2 0xECA JUMPI PUSH1 0x40 MLOAD PUSH4 0x32505749 PUSH1 0xE1 SHL DUP2 MSTORE PUSH0 PUSH1 0x4 DUP3 ADD MSTORE PUSH1 0x24 ADD PUSH2 0x436 JUMP JUMPDEST PUSH0 PUSH2 0xED6 DUP4 DUP4 PUSH0 PUSH2 0x7D0 JUMP JUMPDEST SWAP1 POP PUSH1 0x1 PUSH1 0x1 PUSH1 0xA0 SHL SUB DUP2 AND ISZERO PUSH2 0x4E3 JUMPI PUSH1 0x40 MLOAD PUSH4 0x39E35637 PUSH1 0xE1 SHL DUP2 MSTORE PUSH0 PUSH1 0x4 DUP3 ADD MSTORE PUSH1 0x24 ADD PUSH2 0x436 JUMP JUMPDEST PUSH1 0x1 PUSH1 0x1 PUSH1 0xE0 SHL SUB NOT DUP2 AND DUP2 EQ PUSH2 0x788 JUMPI PUSH0 DUP1 REVERT JUMPDEST PUSH0 PUSH1 0x20 DUP3 DUP5 SUB SLT ISZERO PUSH2 0xF27 JUMPI PUSH0 DUP1 REVERT JUMPDEST DUP2 CALLDATALOAD PUSH2 0x71A DUP2 PUSH2 0xF02 JUMP JUMPDEST PUSH0 JUMPDEST DUP4 DUP2 LT ISZERO PUSH2 0xF4C JUMPI DUP2 DUP2 ADD MLOAD DUP4 DUP3 ADD MSTORE PUSH1 0x20 ADD PUSH2 0xF34 JUMP JUMPDEST POP POP PUSH0 SWAP2 ADD MSTORE JUMP JUMPDEST PUSH0 DUP2 MLOAD DUP1 DUP5 MSTORE PUSH2 0xF6B DUP2 PUSH1 0x20 DUP7 ADD PUSH1 0x20 DUP7 ADD PUSH2 0xF32 JUMP JUMPDEST PUSH1 0x1F ADD PUSH1 0x1F NOT AND SWAP3 SWAP1 SWAP3 ADD PUSH1 0x20 ADD SWAP3 SWAP2 POP POP JUMP JUMPDEST PUSH1 0x20 DUP2 MSTORE PUSH0 PUSH2 0x71A PUSH1 0x20 DUP4 ADD DUP5 PUSH2 0xF54 JUMP JUMPDEST PUSH0 PUSH1 0x20 DUP3 DUP5 SUB SLT ISZERO PUSH2 0xFA1 JUMPI PUSH0 DUP1 REVERT JUMPDEST POP CALLDATALOAD SWAP2 SWAP1 POP JUMP JUMPDEST DUP1 CALLDATALOAD PUSH1 0x1 PUSH1 0x1 PUSH1 0xA0 SHL SUB DUP2 AND DUP2 EQ PUSH2 0xFBE JUMPI PUSH0 DUP1 REVERT JUMPDEST SWAP2 SWAP1 POP JUMP JUMPDEST PUSH0 DUP1 PUSH1 0x40 DUP4 DUP6 SUB SLT ISZERO PUSH2 0xFD4 JUMPI PUSH0 DUP1 REVERT JUMPDEST PUSH2 0xFDD DUP4 PUSH2 0xFA8 JUMP JUMPDEST SWAP5 PUSH1 0x20 SWAP4 SWAP1 SWAP4 ADD CALLDATALOAD SWAP4 POP POP POP JUMP JUMPDEST PUSH0 DUP1 PUSH0 PUSH1 0x60 DUP5 DUP7 SUB SLT ISZERO PUSH2 0xFFD JUMPI PUSH0 DUP1 REVERT JUMPDEST PUSH2 0x1006 DUP5 PUSH2 0xFA8 JUMP JUMPDEST SWAP3 POP PUSH2 0x1014 PUSH1 0x20 DUP6 ADD PUSH2 0xFA8 JUMP JUMPDEST SWAP2 POP PUSH1 0x40 DUP5 ADD CALLDATALOAD SWAP1 POP SWAP3 POP SWAP3 POP SWAP3 JUMP JUMPDEST PUSH0 PUSH1 0x20 DUP3 DUP5 SUB SLT ISZERO PUSH2 0x1034 JUMPI PUSH0 DUP1 REVERT JUMPDEST PUSH2 0x71A DUP3 PUSH2 0xFA8 JUMP JUMPDEST PUSH4 0x4E487B71 PUSH1 0xE0 SHL PUSH0 MSTORE PUSH1 0x41 PUSH1 0x4 MSTORE PUSH1 0x24 PUSH0 REVERT JUMPDEST PUSH0 PUSH8 0xFFFFFFFFFFFFFFFF DUP1 DUP5 GT ISZERO PUSH2 0x106B JUMPI PUSH2 0x106B PUSH2 0x103D JUMP JUMPDEST PUSH1 0x40 MLOAD PUSH1 0x1F DUP6 ADD PUSH1 0x1F NOT SWAP1 DUP2 AND PUSH1 0x3F ADD AND DUP2 ADD SWAP1 DUP3 DUP3 GT DUP2 DUP4 LT OR ISZERO PUSH2 0x1093 JUMPI PUSH2 0x1093 PUSH2 0x103D JUMP JUMPDEST DUP2 PUSH1 0x40 MSTORE DUP1 SWAP4 POP DUP6 DUP2 MSTORE DUP7 DUP7 DUP7 ADD GT ISZERO PUSH2 0x10AB JUMPI PUSH0 DUP1 REVERT JUMPDEST DUP6 DUP6 PUSH1 0x20 DUP4 ADD CALLDATACOPY PUSH0 PUSH1 0x20 DUP8 DUP4 ADD ADD MSTORE POP POP POP SWAP4 SWAP3 POP POP POP JUMP JUMPDEST PUSH0 PUSH1 0x20 DUP3 DUP5 SUB SLT ISZERO PUSH2 0x10D4 JUMPI PUSH0 DUP1 REVERT JUMPDEST DUP2 CALLDATALOAD PUSH8 0xFFFFFFFFFFFFFFFF DUP2 GT ISZERO PUSH2 0x10EA JUMPI PUSH0 DUP1 REVERT JUMPDEST DUP3 ADD PUSH1 0x1F DUP2 ADD DUP5 SGT PUSH2 0x10FA JUMPI PUSH0 DUP1 REVERT JUMPDEST PUSH2 0xE99 DUP5 DUP3 CALLDATALOAD PUSH1 0x20 DUP5 ADD PUSH2 0x1051 JUMP JUMPDEST PUSH0 DUP1 PUSH1 0x40 DUP4 DUP6 SUB SLT ISZERO PUSH2 0x111A JUMPI PUSH0 DUP1 REVERT JUMPDEST PUSH2 0x1123 DUP4 PUSH2 0xFA8 JUMP JUMPDEST SWAP2 POP PUSH1 0x20 DUP4 ADD CALLDATALOAD DUP1 ISZERO ISZERO DUP2 EQ PUSH2 0x1137 JUMPI PUSH0 DUP1 REVERT JUMPDEST DUP1 SWAP2 POP POP SWAP3 POP SWAP3 SWAP1 POP JUMP JUMPDEST PUSH0 DUP1 PUSH0 DUP1 PUSH1 0x80 DUP6 DUP8 SUB SLT ISZERO PUSH2 0x1155 JUMPI PUSH0 DUP1 REVERT JUMPDEST PUSH2 0x115E DUP6 PUSH2 0xFA8 JUMP JUMPDEST SWAP4 POP PUSH2 0x116C PUSH1 0x20 DUP7 ADD PUSH2 0xFA8 JUMP JUMPDEST SWAP3 POP PUSH1 0x40 DUP6 ADD CALLDATALOAD SWAP2 POP PUSH1 0x60 DUP6 ADD CALLDATALOAD PUSH8 0xFFFFFFFFFFFFFFFF DUP2 GT ISZERO PUSH2 0x118E JUMPI PUSH0 DUP1 REVERT JUMPDEST DUP6 ADD PUSH1 0x1F DUP2 ADD DUP8 SGT PUSH2 0x119E JUMPI PUSH0 DUP1 REVERT JUMPDEST PUSH2 0x11AD DUP8 DUP3 CALLDATALOAD PUSH1 0x20 DUP5 ADD PUSH2 0x1051 JUMP JUMPDEST SWAP2 POP POP SWAP3 SWAP6 SWAP2 SWAP5 POP SWAP3 POP JUMP JUMPDEST PUSH0 DUP1 PUSH1 0x40 DUP4 DUP6 SUB SLT ISZERO PUSH2 0x11CA JUMPI PUSH0 DUP1 REVERT JUMPDEST PUSH2 0x11D3 DUP4 PUSH2 0xFA8 JUMP JUMPDEST SWAP2 POP PUSH2 0x11E1 PUSH1 0x20 DUP5 ADD PUSH2 0xFA8 JUMP JUMPDEST SWAP1 POP SWAP3 POP SWAP3 SWAP1 POP JUMP JUMPDEST PUSH1 0x1 DUP2 DUP2 SHR SWAP1 DUP3 AND DUP1 PUSH2 0x11FE JUMPI PUSH1 0x7F DUP3 AND SWAP2 POP JUMPDEST PUSH1 0x20 DUP3 LT DUP2 SUB PUSH2 0x121C JUMPI PUSH4 0x4E487B71 PUSH1 0xE0 SHL PUSH0 MSTORE PUSH1 0x22 PUSH1 0x4 MSTORE PUSH1 0x24 PUSH0 REVERT JUMPDEST POP SWAP2 SWAP1 POP JUMP JUMPDEST PUSH1 0x1F DUP3 GT ISZERO PUSH2 0x4E3 JUMPI DUP1 PUSH0 MSTORE PUSH1 0x20 PUSH0 KECCAK256 PUSH1 0x1F DUP5 ADD PUSH1 0x5 SHR DUP2 ADD PUSH1 0x20 DUP6 LT ISZERO PUSH2 0x1247 JUMPI POP DUP1 JUMPDEST PUSH1 0x1F DUP5 ADD PUSH1 0x5 SHR DUP3 ADD SWAP2 POP JUMPDEST DUP2 DUP2 LT ISZERO PUSH2 0xB41 JUMPI PUSH0 DUP2 SSTORE PUSH1 0x1 ADD PUSH2 0x1253 JUMP JUMPDEST DUP2 MLOAD PUSH8 0xFFFFFFFFFFFFFFFF DUP2 GT ISZERO PUSH2 0x1280 JUMPI PUSH2 0x1280 PUSH2 0x103D JUMP JUMPDEST PUSH2 0x1294 DUP2 PUSH2 0x128E DUP5 SLOAD PUSH2 0x11EA JUMP JUMPDEST DUP5 PUSH2 0x1222 JUMP JUMPDEST PUSH1 0x20 DUP1 PUSH1 0x1F DUP4 GT PUSH1 0x1 DUP2 EQ PUSH2 0x12C7 JUMPI PUSH0 DUP5 ISZERO PUSH2 0x12B0 JUMPI POP DUP6 DUP4 ADD MLOAD JUMPDEST PUSH0 NOT PUSH1 0x3 DUP7 SWAP1 SHL SHR NOT AND PUSH1 0x1 DUP6 SWAP1 SHL OR DUP6 SSTORE PUSH2 0xB3F JUMP JUMPDEST PUSH0 DUP6 DUP2 MSTORE PUSH1 0x20 DUP2 KECCAK256 PUSH1 0x1F NOT DUP7 AND SWAP2 JUMPDEST DUP3 DUP2 LT ISZERO PUSH2 0x12F5 JUMPI DUP9 DUP7 ADD MLOAD DUP3 SSTORE SWAP5 DUP5 ADD SWAP5 PUSH1 0x1 SWAP1 SWAP2 ADD SWAP1 DUP5 ADD PUSH2 0x12D6 JUMP JUMPDEST POP DUP6 DUP3 LT ISZERO PUSH2 0x1312 JUMPI DUP8 DUP6 ADD MLOAD PUSH0 NOT PUSH1 0x3 DUP9 SWAP1 SHL PUSH1 0xF8 AND SHR NOT AND DUP2 SSTORE JUMPDEST POP POP POP POP POP PUSH1 0x1 SWAP1 DUP2 SHL ADD SWAP1 SSTORE POP JUMP JUMPDEST PUSH0 PUSH1 0x1 DUP3 ADD PUSH2 0x133F JUMPI PUSH4 0x4E487B71 PUSH1 0xE0 SHL PUSH0 MSTORE PUSH1 0x11 PUSH1 0x4 MSTORE PUSH1 0x24 PUSH0 REVERT JUMPDEST POP PUSH1 0x1 ADD SWAP1 JUMP JUMPDEST PUSH0 DUP4 MLOAD PUSH2 0x1357 DUP2 DUP5 PUSH1 0x20 DUP9 ADD PUSH2 0xF32 JUMP JUMPDEST DUP4 MLOAD SWAP1 DUP4 ADD SWAP1 PUSH2 0x136B DUP2 DUP4 PUSH1 0x20 DUP9 ADD PUSH2 0xF32 JUMP JUMPDEST ADD SWAP5 SWAP4 POP POP POP POP JUMP JUMPDEST PUSH1 0x1 PUSH1 0x1 PUSH1 0xA0 SHL SUB DUP6 DUP2 AND DUP3 MSTORE DUP5 AND PUSH1 0x20 DUP3 ADD MSTORE PUSH1 0x40 DUP2 ADD DUP4 SWAP1 MSTORE PUSH1 0x80 PUSH1 0x60 DUP3 ADD DUP2 SWAP1 MSTORE PUSH0 SWAP1 PUSH2 0x13A6 SWAP1 DUP4 ADD DUP5 PUSH2 0xF54 JUMP JUMPDEST SWAP7 SWAP6 POP POP POP POP POP POP JUMP JUMPDEST PUSH0 PUSH1 0x20 DUP3 DUP5 SUB SLT ISZERO PUSH2 0x13C0 JUMPI PUSH0 DUP1 REVERT JUMPDEST DUP2 MLOAD PUSH2 0x71A DUP2 PUSH2 0xF02 JUMP INVALID LOG2 PUSH5 0x6970667358 0x22 SLT KECCAK256 0xCB 0xC2 PUSH13 0x5A1617579EFEF3EDA749C3D1A9 PUSH24 0x930A579D096D8E9A7170D1F3AFA34164736F6C6343000818 STOP CALLER "},"methodIdentifiers":{"approve(address,uint256)":"095ea7b3","backendSigner()":"65d65e86","balanceOf(address)":"70a08231","getApproved(uint256)":"081812fc","hasMinted(address)":"38e21cce","isApprovedForAll(address,address)":"e985e9c5","mintWelcomeNFT(address)":"8ffaf596","name()":"06fdde03","owner()":"8da5cb5b","ownerOf(uint256)":"6352211e","renounceOwnership()":"715018a6","safeTransferFrom(address,address,uint256)":"42842e0e","safeTransferFrom(address,address,uint256,bytes)":"b88d4fde","setApprovalForAll(address,bool)":"a22cb465","setBackendSigner(address)":"36f95670","setBaseURI(string)":"55f804b3","supportsInterface(bytes4)":"01ffc9a7","symbol()":"95d89b41","tokenURI(uint256)":"c87b56dd","transferFrom(address,address,uint256)":"23b872dd","transferOwnership(address)":"f2fde38b"}}}}}