{
  "_format": "hh-sol-artifact-1",
  "contractName": "SwipeGigRewards",
  "sourceName": "contracts/SwipeGigRewards.sol",
  "abi": [
    {
      "inputs": [
        {
          "internalType": "address",
          "name": "_backendSigner",
          "type": "address"
        }
      ],
      "stateMutability": "nonpayable",
      "type": "constructor"
    },
    {
      "anonymous": false,
      "inputs": [
        {
          "indexed": true,
          "internalType": "address",
          "name": "previousOwner",
          "type": "address"
        },
        {
          "indexed": true,
          "internalType": "address",
          "name": "newOwner",
          "type": "address"
        }
      ],
      "name": "OwnershipTransferred",
      "type": "event"
    },
    {
      "anonymous": false,
      "inputs": [
        {
          "indexed": true,
          "internalType": "address",
          "name": "user",
          "type": "address"
        },
        {
          "indexed": false,
          "internalType": "uint256",
          "name": "amount",
          "type": "uint256"
        },
        {
          "indexed": false,
          "internalType": "string",
          "name": "triggerType",
          "type": "string"
        },
        {
          "indexed": false,
          "internalType": "uint256",
          "name": "timestamp",
          "type": "uint256"
        }
      ],
      "name": "RewardMinted",
      "type": "event"
    },
    {
      "inputs": [],
      "name": "backendSigner",
      "outputs": [
        {
          "internalType": "address",
          "name": "",
          "type": "address"
        }
      ],
      "stateMutability": "view",
      "type": "function"
    },
    {
      "inputs": [
        {
          "internalType": "address",
          "name": "user",
          "type": "address"
        }
      ],
      "name": "getRewardHistory",
      "outputs": [
        {
          "components": [
            {
              "internalType": "uint256",
              "name": "amount",
              "type": "uint256"
            },
            {
              "internalType": "string",
              "name": "triggerType",
              "type": "string"
            },
            {
              "internalType": "uint256",
              "name": "timestamp",
              "type": "uint256"
            }
          ],
          "internalType": "struct SwipeGigRewards.RewardRecord[]",
          "name": "",
          "type": "tuple[]"
        }
      ],
      "stateMutability": "view",
      "type": "function"
    },
    {
      "inputs": [],
      "name": "owner",
      "outputs": [
        {
          "internalType": "address",
          "name": "",
          "type": "address"
        }
      ],
      "stateMutability": "view",
      "type": "function"
    },
    {
      "inputs": [
        {
          "internalType": "address",
          "name": "user",
          "type": "address"
        },
        {
          "internalType": "uint256",
          "name": "amount",
          "type": "uint256"
        },
        {
          "internalType": "string",
          "name": "triggerType",
          "type": "string"
        }
      ],
      "name": "recordReward",
      "outputs": [],
      "stateMutability": "nonpayable",
      "type": "function"
    },
    {
      "inputs": [
        {
          "internalType": "address",
          "name": "_backendSigner",
          "type": "address"
        }
      ],
      "name": "setBackendSigner",
      "outputs": [],
      "stateMutability": "nonpayable",
      "type": "function"
    },
    {
      "inputs": [
        {
          "internalType": "address",
          "name": "",
          "type": "address"
        }
      ],
      "name": "totalEarned",
      "outputs": [
        {
          "internalType": "uint256",
          "name": "",
          "type": "uint256"
        }
      ],
      "stateMutability": "view",
      "type": "function"
    },
    {
      "inputs": [
        {
          "internalType": "address",
          "name": "newOwner",
          "type": "address"
        }
      ],
      "name": "transferOwnership",
      "outputs": [],
      "stateMutability": "nonpayable",
      "type": "function"
    }
  ],
  "bytecode": "0x608060405234801561001057600080fd5b50604051610af2380380610af283398101604081905261002f91610099565b600080546001600160a01b031916339081178255604051909182917f8be0079c531659141344cd1fd0a4f28419497f9722a3daafe3b4186f6b6457e0908290a35060018055600480546001600160a01b0319166001600160a01b03929092169190911790556100c9565b6000602082840312156100ab57600080fd5b81516001600160a01b03811681146100c257600080fd5b9392505050565b610a1a806100d86000396000f3fe608060405234801561001057600080fd5b506004361061007d5760003560e01c80638da5cb5b1161005b5780638da5cb5b146100f5578063cbaeadb414610106578063ebd8ba4414610126578063f2fde38b1461013957600080fd5b806336f9567014610082578063649aca4a1461009757806365d65e86146100ca575b600080fd5b6100956100903660046106c0565b61014c565b005b6100b76100a53660046106c0565b60036020526000908152604090205481565b6040519081526020015b60405180910390f35b6004546100dd906001600160a01b031681565b6040516001600160a01b0390911681526020016100c1565b6000546001600160a01b03166100dd565b6101196101143660046106c0565b6101dc565b6040516100c191906106e2565b610095610134366004610797565b6102f7565b6100956101473660046106c0565b61057b565b3361015f6000546001600160a01b031690565b6001600160a01b0316146101ba5760405162461bcd60e51b815260206004820181905260248201527f4f776e61626c653a2063616c6c6572206973206e6f7420746865206f776e657260448201526064015b60405180910390fd5b600480546001600160a01b0319166001600160a01b0392909216919091179055565b6001600160a01b0381166000908152600260209081526040808320805482518185028101850190935280835260609492939192909184015b828210156102ec5783829060005260206000209060030201604051806060016040529081600082015481526020016001820180546102519061081e565b80601f016020809104026020016040519081016040528092919081815260200182805461027d9061081e565b80156102ca5780601f1061029f576101008083540402835291602001916102ca565b820191906000526020600020905b8154815290600101906020018083116102ad57829003601f168201915b5050505050815260200160028201548152505081526020019060010190610214565b505050509050919050565b6000546001600160a01b031633148061031a57506004546001600160a01b031633145b6103555760405162461bcd60e51b815260206004820152600c60248201526b155b985d5d1a1bdc9a5e995960a21b60448201526064016101b1565b6002600154036103a75760405162461bcd60e51b815260206004820152601f60248201527f5265656e7472616e637947756172643a207265656e7472616e742063616c6c0060448201526064016101b1565b60026001556001600160a01b0384166103f95760405162461bcd60e51b8152602060048201526014602482015273496e76616c69642075736572206164647265737360601b60448201526064016101b1565b600083116104495760405162461bcd60e51b815260206004820181905260248201527f416d6f756e74206d7573742062652067726561746572207468616e207a65726f60448201526064016101b1565b60026000856001600160a01b03166001600160a01b03168152602001908152602001600020604051806060016040528085815260200184848080601f0160208091040260200160405190810160405280939291908181526020018383808284376000920182905250938552505042602093840152508354600181810186559482529082902083516003909202019081559082015191929091908201906104ef90826108bd565b506040918201516002909101556001600160a01b03851660009081526003602052908120805485929061052390849061097d565b92505081905550836001600160a01b03167f3e1832e1b4e86a04ad89ddc0119770bfe5020004f51cfc8c81a7b187ce55fb9f8484844260405161056994939291906109a4565b60405180910390a25050600180555050565b3361058e6000546001600160a01b031690565b6001600160a01b0316146105e45760405162461bcd60e51b815260206004820181905260248201527f4f776e61626c653a2063616c6c6572206973206e6f7420746865206f776e657260448201526064016101b1565b6001600160a01b0381166106495760405162461bcd60e51b815260206004820152602660248201527f4f776e61626c653a206e6577206f776e657220697320746865207a65726f206160448201526564647265737360d01b60648201526084016101b1565b600080546040516001600160a01b03808516939216917f8be0079c531659141344cd1fd0a4f28419497f9722a3daafe3b4186f6b6457e091a3600080546001600160a01b0319166001600160a01b0392909216919091179055565b80356001600160a01b03811681146106bb57600080fd5b919050565b6000602082840312156106d257600080fd5b6106db826106a4565b9392505050565b60006020808301818452808551808352604092508286019150828160051b8701018488016000805b8481101561078857603f198a8503018652825160608151865289820151818b880152805180838901528592505b80831015610755578183018c015188840160800152918b0191610737565b8781016080908101879052938b01518b890152988b0198601f01601f19169096019091019450509187019160010161070a565b50919998505050505050505050565b600080600080606085870312156107ad57600080fd5b6107b6856106a4565b935060208501359250604085013567ffffffffffffffff808211156107da57600080fd5b818701915087601f8301126107ee57600080fd5b8135818111156107fd57600080fd5b88602082850101111561080f57600080fd5b95989497505060200194505050565b600181811c9082168061083257607f821691505b60208210810361085257634e487b7160e01b600052602260045260246000fd5b50919050565b634e487b7160e01b600052604160045260246000fd5b601f8211156108b857600081815260208120601f850160051c810160208610156108955750805b601f850160051c820191505b818110156108b4578281556001016108a1565b5050505b505050565b815167ffffffffffffffff8111156108d7576108d7610858565b6108eb816108e5845461081e565b8461086e565b602080601f83116001811461092057600084156109085750858301515b600019600386901b1c1916600185901b1785556108b4565b600085815260208120601f198616915b8281101561094f57888601518255948401946001909101908401610930565b508582101561096d5787850151600019600388901b60f8161c191681555b5050505050600190811b01905550565b8082018082111561099e57634e487b7160e01b600052601160045260246000fd5b92915050565b848152606060208201528260608201528284608083013760006080848301015260006080601f19601f86011683010190508260408301529594505050505056fea2646970667358221220132013b45e29284f7bae0d02b17705ca99615b302a6748e19eb8dff9101da17264736f6c63430008140033",
  "linkReferences": {},
  "deployedLinkReferences": {}
}