{
  "_format": "hh-sol-artifact-1",
  "contractName": "SwipeGigRewards",
  "sourceName": "contracts/SwipeGigRewards.sol",
  "abi": [
    {
      "inputs": [
        {
          "internalType": "address",
          "name": "_gToken",
          "type": "address"
        },
        {
          "internalType": "address",
          "name": "_backendSigner",
          "type": "address"
        }
      ],
      "stateMutability": "nonpayable",
      "type": "constructor"
    },
    {
      "inputs": [
        {
          "internalType": "address",
          "name": "owner",
          "type": "address"
        }
      ],
      "name": "OwnableInvalidOwner",
      "type": "error"
    },
    {
      "inputs": [
        {
          "internalType": "address",
          "name": "account",
          "type": "address"
        }
      ],
      "name": "OwnableUnauthorizedAccount",
      "type": "error"
    },
    {
      "anonymous": false,
      "inputs": [
        {
          "indexed": true,
          "internalType": "address",
          "name": "previousOwner",
          "type": "address"
        },
        {
          "indexed": true,
          "internalType": "address",
          "name": "newOwner",
          "type": "address"
        }
      ],
      "name": "OwnershipTransferred",
      "type": "event"
    },
    {
      "anonymous": false,
      "inputs": [
        {
          "indexed": true,
          "internalType": "address",
          "name": "user",
          "type": "address"
        },
        {
          "indexed": false,
          "internalType": "uint256",
          "name": "amount",
          "type": "uint256"
        },
        {
          "indexed": false,
          "internalType": "string",
          "name": "reason",
          "type": "string"
        },
        {
          "indexed": false,
          "internalType": "uint256",
          "name": "timestamp",
          "type": "uint256"
        }
      ],
      "name": "RewardDistributed",
      "type": "event"
    },
    {
      "inputs": [],
      "name": "REWARD_DAILY_STREAK",
      "outputs": [
        {
          "internalType": "uint256",
          "name": "",
          "type": "uint256"
        }
      ],
      "stateMutability": "view",
      "type": "function"
    },
    {
      "inputs": [],
      "name": "REWARD_FIRST_APPLICATION",
      "outputs": [
        {
          "internalType": "uint256",
          "name": "",
          "type": "uint256"
        }
      ],
      "stateMutability": "view",
      "type": "function"
    },
    {
      "inputs": [],
      "name": "REWARD_INTERVIEW",
      "outputs": [
        {
          "internalType": "uint256",
          "name": "",
          "type": "uint256"
        }
      ],
      "stateMutability": "view",
      "type": "function"
    },
    {
      "inputs": [],
      "name": "REWARD_PER_APPLICATION",
      "outputs": [
        {
          "internalType": "uint256",
          "name": "",
          "type": "uint256"
        }
      ],
      "stateMutability": "view",
      "type": "function"
    },
    {
      "inputs": [],
      "name": "REWARD_PROFILE_COMPLETE",
      "outputs": [
        {
          "internalType": "uint256",
          "name": "",
          "type": "uint256"
        }
      ],
      "stateMutability": "view",
      "type": "function"
    },
    {
      "inputs": [],
      "name": "REWARD_REFERRAL",
      "outputs": [
        {
          "internalType": "uint256",
          "name": "",
          "type": "uint256"
        }
      ],
      "stateMutability": "view",
      "type": "function"
    },
    {
      "inputs": [],
      "name": "REWARD_REVIEW",
      "outputs": [
        {
          "internalType": "uint256",
          "name": "",
          "type": "uint256"
        }
      ],
      "stateMutability": "view",
      "type": "function"
    },
    {
      "inputs": [],
      "name": "backendSigner",
      "outputs": [
        {
          "internalType": "address",
          "name": "",
          "type": "address"
        }
      ],
      "stateMutability": "view",
      "type": "function"
    },
    {
      "inputs": [
        {
          "internalType": "address[]",
          "name": "users",
          "type": "address[]"
        },
        {
          "internalType": "uint256[]",
          "name": "amounts",
          "type": "uint256[]"
        },
        {
          "internalType": "string[]",
          "name": "reasons",
          "type": "string[]"
        }
      ],
      "name": "batchRewardUsers",
      "outputs": [],
      "stateMutability": "nonpayable",
      "type": "function"
    },
    {
      "inputs": [],
      "name": "gToken",
      "outputs": [
        {
          "internalType": "contract IERC20",
          "name": "",
          "type": "address"
        }
      ],
      "stateMutability": "view",
      "type": "function"
    },
    {
      "inputs": [
        {
          "internalType": "address",
          "name": "",
          "type": "address"
        },
        {
          "internalType": "string",
          "name": "",
          "type": "string"
        }
      ],
      "name": "hasClaimed",
      "outputs": [
        {
          "internalType": "bool",
          "name": "",
          "type": "bool"
        }
      ],
      "stateMutability": "view",
      "type": "function"
    },
    {
      "inputs": [],
      "name": "owner",
      "outputs": [
        {
          "internalType": "address",
          "name": "",
          "type": "address"
        }
      ],
      "stateMutability": "view",
      "type": "function"
    },
    {
      "inputs": [],
      "name": "renounceOwnership",
      "outputs": [],
      "stateMutability": "nonpayable",
      "type": "function"
    },
    {
      "inputs": [],
      "name": "rewardPoolBalance",
      "outputs": [
        {
          "internalType": "uint256",
          "name": "",
          "type": "uint256"
        }
      ],
      "stateMutability": "view",
      "type": "function"
    },
    {
      "inputs": [
        {
          "internalType": "address",
          "name": "user",
          "type": "address"
        },
        {
          "internalType": "uint256",
          "name": "amount",
          "type": "uint256"
        },
        {
          "internalType": "string",
          "name": "reason",
          "type": "string"
        }
      ],
      "name": "rewardUser",
      "outputs": [],
      "stateMutability": "nonpayable",
      "type": "function"
    },
    {
      "inputs": [
        {
          "internalType": "address",
          "name": "_signer",
          "type": "address"
        }
      ],
      "name": "setBackendSigner",
      "outputs": [],
      "stateMutability": "nonpayable",
      "type": "function"
    },
    {
      "inputs": [
        {
          "internalType": "address",
          "name": "",
          "type": "address"
        }
      ],
      "name": "totalEarned",
      "outputs": [
        {
          "internalType": "uint256",
          "name": "",
          "type": "uint256"
        }
      ],
      "stateMutability": "view",
      "type": "function"
    },
    {
      "inputs": [
        {
          "internalType": "address",
          "name": "newOwner",
          "type": "address"
        }
      ],
      "name": "transferOwnership",
      "outputs": [],
      "stateMutability": "nonpayable",
      "type": "function"
    },
    {
      "inputs": [
        {
          "internalType": "uint256",
          "name": "amount",
          "type": "uint256"
        }
      ],
      "name": "withdrawTokens",
      "outputs": [],
      "stateMutability": "nonpayable",
      "type": "function"
    }
  ],
  "bytecode": "0x608060405234801561000f575f80fd5b5060405161103438038061103483398101604081905261002e916100f8565b338061005357604051631e4fbdf760e01b81525f600482015260240160405180910390fd5b61005c8161008e565b50600180546001600160a01b039384166001600160a01b03199182161790915560028054929093169116179055610129565b5f80546001600160a01b038381166001600160a01b0319831681178455604051919092169283917f8be0079c531659141344cd1fd0a4f28419497f9722a3daafe3b4186f6b6457e09190a35050565b80516001600160a01b03811681146100f3575f80fd5b919050565b5f8060408385031215610109575f80fd5b610112836100dd565b9150610120602084016100dd565b90509250929050565b610efe806101365f395ff3fe608060405234801561000f575f80fd5b506004361061011c575f3560e01c806365d65e86116100a9578063b40f4b011161006e578063b40f4b0114610239578063cdd904e814610249578063e4b91f691461025c578063f2fde38b146102aa578063f480f861146102bd575f80fd5b806365d65e86146101db578063715018a61461020657806376ffb9bd1461020e5780637a5c08ae146102215780638da5cb5b14610229575f80fd5b806336f95670116100ef57806336f95670146101775780633809a55f1461018a5780635c60f6e81461019a57806364906198146101a9578063649aca4a146101bc575f80fd5b8063178e01dc1461012057806317c8c576146101425780632edcca6414610152578063315a095d14610162575b5f80fd5b61012f67d02ab486cedc000081565b6040519081526020015b60405180910390f35b61012f68056bc75e2d6310000081565b61012f6801a055690d9db8000081565b610175610170366004610b4c565b6102cc565b005b610175610185366004610b7e565b610368565b61012f6802b5e3af16b188000081565b61012f674563918244f4000081565b6101756101b7366004610b9e565b610392565b61012f6101ca366004610b7e565b60046020525f908152604090205481565b6002546101ee906001600160a01b031681565b6040516001600160a01b039091168152602001610139565b61017561064e565b6001546101ee906001600160a01b031681565b61012f610661565b5f546001600160a01b03166101ee565b61012f6801158e460913d0000081565b610175610257366004610c66565b6106d0565b61029a61026a366004610d0d565b600360209081525f9283526040909220815180830184018051928152908401929093019190912091525460ff1681565b6040519015158152602001610139565b6101756102b8366004610b7e565b610a94565b61012f671bc16d674ec8000081565b6102d4610ad1565b6001546001600160a01b031663a9059cbb6102f65f546001600160a01b031690565b6040516001600160e01b031960e084901b1681526001600160a01b039091166004820152602481018490526044016020604051808303815f875af1158015610340573d5f803e3d5ffd5b505050506040513d601f19601f820116820180604052508101906103649190610dc9565b5050565b610370610ad1565b600280546001600160a01b0319166001600160a01b0392909216919091179055565b6002546001600160a01b031633146103e25760405162461bcd60e51b815260206004820152600e60248201526d139bdd08185d5d1a1bdc9a5e995960921b60448201526064015b60405180910390fd5b6001600160a01b0384165f9081526003602052604090819020905161040a9084908490610de8565b9081526040519081900360200190205460ff161561045c5760405162461bcd60e51b815260206004820152600f60248201526e105b1c9958591e4818db185a5b5959608a1b60448201526064016103d9565b6001546040516370a0823160e01b815230600482015284916001600160a01b0316906370a0823190602401602060405180830381865afa1580156104a2573d5f803e3d5ffd5b505050506040513d601f19601f820116820180604052508101906104c69190610df7565b10156105145760405162461bcd60e51b815260206004820152601860248201527f496e73756666696369656e742072657761726420706f6f6c000000000000000060448201526064016103d9565b6001600160a01b0384165f90815260036020526040908190209051600191906105409085908590610de8565b9081526040805160209281900383019020805460ff1916931515939093179092556001600160a01b0386165f90815260049091529081208054859290610587908490610e0e565b909155505060015460405163a9059cbb60e01b81526001600160a01b038681166004830152602482018690529091169063a9059cbb906044016020604051808303815f875af11580156105dc573d5f803e3d5ffd5b505050506040513d601f19601f820116820180604052508101906106009190610dc9565b50836001600160a01b03167f4d9290821abe39d1f3337c49a809c9426fbaaff8ce397a44d30509bc7bb5cfa7848484426040516106409493929190610e33565b60405180910390a250505050565b610656610ad1565b61065f5f610afd565b565b6001546040516370a0823160e01b81523060048201525f916001600160a01b0316906370a0823190602401602060405180830381865afa1580156106a7573d5f803e3d5ffd5b505050506040513d601f19601f820116820180604052508101906106cb9190610df7565b905090565b6002546001600160a01b0316331461071b5760405162461bcd60e51b815260206004820152600e60248201526d139bdd08185d5d1a1bdc9a5e995960921b60448201526064016103d9565b848314801561072957508281145b61076d5760405162461bcd60e51b8152602060048201526015602482015274082e4e4c2f240d8cadccee8d040dad2e6dac2e8c6d605b1b60448201526064016103d9565b5f5b85811015610a8b5760035f88888481811061078c5761078c610e71565b90506020020160208101906107a19190610b7e565b6001600160a01b03166001600160a01b031681526020019081526020015f208383838181106107d2576107d2610e71565b90506020028101906107e49190610e85565b6040516107f2929190610de8565b9081526040519081900360200190205460ff16610a8357600160035f89898581811061082057610820610e71565b90506020020160208101906108359190610b7e565b6001600160a01b03166001600160a01b031681526020019081526020015f2084848481811061086657610866610e71565b90506020028101906108789190610e85565b604051610886929190610de8565b908152604051908190036020019020805491151560ff199092169190911790558484828181106108b8576108b8610e71565b9050602002013560045f8989858181106108d4576108d4610e71565b90506020020160208101906108e99190610b7e565b6001600160a01b03166001600160a01b031681526020019081526020015f205f8282546109169190610e0e565b90915550506001546001600160a01b031663a9059cbb88888481811061093e5761093e610e71565b90506020020160208101906109539190610b7e565b87878581811061096557610965610e71565b6040516001600160e01b031960e087901b1681526001600160a01b03909416600485015260200291909101356024830152506044016020604051808303815f875af11580156109b6573d5f803e3d5ffd5b505050506040513d601f19601f820116820180604052508101906109da9190610dc9565b508686828181106109ed576109ed610e71565b9050602002016020810190610a029190610b7e565b6001600160a01b03167f4d9290821abe39d1f3337c49a809c9426fbaaff8ce397a44d30509bc7bb5cfa7868684818110610a3e57610a3e610e71565b90506020020135858585818110610a5757610a57610e71565b9050602002810190610a699190610e85565b42604051610a7a9493929190610e33565b60405180910390a25b60010161076f565b50505050505050565b610a9c610ad1565b6001600160a01b038116610ac557604051631e4fbdf760e01b81525f60048201526024016103d9565b610ace81610afd565b50565b5f546001600160a01b0316331461065f5760405163118cdaa760e01b81523360048201526024016103d9565b5f80546001600160a01b038381166001600160a01b0319831681178455604051919092169283917f8be0079c531659141344cd1fd0a4f28419497f9722a3daafe3b4186f6b6457e09190a35050565b5f60208284031215610b5c575f80fd5b5035919050565b80356001600160a01b0381168114610b79575f80fd5b919050565b5f60208284031215610b8e575f80fd5b610b9782610b63565b9392505050565b5f805f8060608587031215610bb1575f80fd5b610bba85610b63565b935060208501359250604085013567ffffffffffffffff80821115610bdd575f80fd5b818701915087601f830112610bf0575f80fd5b813581811115610bfe575f80fd5b886020828501011115610c0f575f80fd5b95989497505060200194505050565b5f8083601f840112610c2e575f80fd5b50813567ffffffffffffffff811115610c45575f80fd5b6020830191508360208260051b8501011115610c5f575f80fd5b9250929050565b5f805f805f8060608789031215610c7b575f80fd5b863567ffffffffffffffff80821115610c92575f80fd5b610c9e8a838b01610c1e565b90985096506020890135915080821115610cb6575f80fd5b610cc28a838b01610c1e565b90965094506040890135915080821115610cda575f80fd5b50610ce789828a01610c1e565b979a9699509497509295939492505050565b634e487b7160e01b5f52604160045260245ffd5b5f8060408385031215610d1e575f80fd5b610d2783610b63565b9150602083013567ffffffffffffffff80821115610d43575f80fd5b818501915085601f830112610d56575f80fd5b813581811115610d6857610d68610cf9565b604051601f8201601f19908116603f01168101908382118183101715610d9057610d90610cf9565b81604052828152886020848701011115610da8575f80fd5b826020860160208301375f6020848301015280955050505050509250929050565b5f60208284031215610dd9575f80fd5b81518015158114610b97575f80fd5b818382375f9101908152919050565b5f60208284031215610e07575f80fd5b5051919050565b80820180821115610e2d57634e487b7160e01b5f52601160045260245ffd5b92915050565b84815260606020820152826060820152828460808301375f608084830101525f6080601f19601f860116830101905082604083015295945050505050565b634e487b7160e01b5f52603260045260245ffd5b5f808335601e19843603018112610e9a575f80fd5b83018035915067ffffffffffffffff821115610eb4575f80fd5b602001915036819003821315610c5f575f80fdfea264697066735822122036ace8ee87dfee9a3b09e9e0c91f08b4a08343d77006315df1775bca87c2f1a464736f6c63430008180033",
  "linkReferences": {},
  "deployedLinkReferences": {}
}