{
  "_format": "hh-sol-artifact-1",
  "contractName": "SwipeGigCreatorPool",
  "sourceName": "contracts/SwipeGigCreatorPool.sol",
  "abi": [
    {
      "inputs": [
        {
          "internalType": "address",
          "name": "_gToken",
          "type": "address"
        },
        {
          "internalType": "address",
          "name": "_backendSigner",
          "type": "address"
        }
      ],
      "stateMutability": "nonpayable",
      "type": "constructor"
    },
    {
      "inputs": [
        {
          "internalType": "address",
          "name": "owner",
          "type": "address"
        }
      ],
      "name": "OwnableInvalidOwner",
      "type": "error"
    },
    {
      "inputs": [
        {
          "internalType": "address",
          "name": "account",
          "type": "address"
        }
      ],
      "name": "OwnableUnauthorizedAccount",
      "type": "error"
    },
    {
      "anonymous": false,
      "inputs": [
        {
          "indexed": true,
          "internalType": "address",
          "name": "previousOwner",
          "type": "address"
        },
        {
          "indexed": true,
          "internalType": "address",
          "name": "newOwner",
          "type": "address"
        }
      ],
      "name": "OwnershipTransferred",
      "type": "event"
    },
    {
      "anonymous": false,
      "inputs": [
        {
          "indexed": true,
          "internalType": "address",
          "name": "donor",
          "type": "address"
        },
        {
          "indexed": false,
          "internalType": "uint256",
          "name": "amount",
          "type": "uint256"
        },
        {
          "indexed": false,
          "internalType": "uint256",
          "name": "timestamp",
          "type": "uint256"
        }
      ],
      "name": "PoolFunded",
      "type": "event"
    },
    {
      "anonymous": false,
      "inputs": [
        {
          "indexed": true,
          "internalType": "address",
          "name": "winner",
          "type": "address"
        },
        {
          "indexed": false,
          "internalType": "uint256",
          "name": "rank",
          "type": "uint256"
        },
        {
          "indexed": false,
          "internalType": "uint256",
          "name": "amount",
          "type": "uint256"
        },
        {
          "indexed": false,
          "internalType": "uint256",
          "name": "weekOf",
          "type": "uint256"
        },
        {
          "indexed": false,
          "internalType": "uint256",
          "name": "timestamp",
          "type": "uint256"
        }
      ],
      "name": "WeeklyBonusDistributed",
      "type": "event"
    },
    {
      "inputs": [],
      "name": "BONUS_1ST",
      "outputs": [
        {
          "internalType": "uint256",
          "name": "",
          "type": "uint256"
        }
      ],
      "stateMutability": "view",
      "type": "function"
    },
    {
      "inputs": [],
      "name": "BONUS_2ND",
      "outputs": [
        {
          "internalType": "uint256",
          "name": "",
          "type": "uint256"
        }
      ],
      "stateMutability": "view",
      "type": "function"
    },
    {
      "inputs": [],
      "name": "BONUS_3RD",
      "outputs": [
        {
          "internalType": "uint256",
          "name": "",
          "type": "uint256"
        }
      ],
      "stateMutability": "view",
      "type": "function"
    },
    {
      "inputs": [],
      "name": "backendSigner",
      "outputs": [
        {
          "internalType": "address",
          "name": "",
          "type": "address"
        }
      ],
      "stateMutability": "view",
      "type": "function"
    },
    {
      "inputs": [
        {
          "internalType": "address[3]",
          "name": "winners",
          "type": "address[3]"
        },
        {
          "internalType": "uint256",
          "name": "weekOf",
          "type": "uint256"
        }
      ],
      "name": "distributeWeeklyBonus",
      "outputs": [],
      "stateMutability": "nonpayable",
      "type": "function"
    },
    {
      "inputs": [
        {
          "internalType": "uint256",
          "name": "amount",
          "type": "uint256"
        }
      ],
      "name": "emergencyWithdraw",
      "outputs": [],
      "stateMutability": "nonpayable",
      "type": "function"
    },
    {
      "inputs": [
        {
          "internalType": "uint256",
          "name": "amount",
          "type": "uint256"
        }
      ],
      "name": "fundPool",
      "outputs": [],
      "stateMutability": "nonpayable",
      "type": "function"
    },
    {
      "inputs": [],
      "name": "gToken",
      "outputs": [
        {
          "internalType": "contract IERC20",
          "name": "",
          "type": "address"
        }
      ],
      "stateMutability": "view",
      "type": "function"
    },
    {
      "inputs": [],
      "name": "owner",
      "outputs": [
        {
          "internalType": "address",
          "name": "",
          "type": "address"
        }
      ],
      "stateMutability": "view",
      "type": "function"
    },
    {
      "inputs": [],
      "name": "poolBalance",
      "outputs": [
        {
          "internalType": "uint256",
          "name": "",
          "type": "uint256"
        }
      ],
      "stateMutability": "view",
      "type": "function"
    },
    {
      "inputs": [],
      "name": "renounceOwnership",
      "outputs": [],
      "stateMutability": "nonpayable",
      "type": "function"
    },
    {
      "inputs": [
        {
          "internalType": "address",
          "name": "_signer",
          "type": "address"
        }
      ],
      "name": "setBackendSigner",
      "outputs": [],
      "stateMutability": "nonpayable",
      "type": "function"
    },
    {
      "inputs": [
        {
          "internalType": "address",
          "name": "",
          "type": "address"
        }
      ],
      "name": "totalEarned",
      "outputs": [
        {
          "internalType": "uint256",
          "name": "",
          "type": "uint256"
        }
      ],
      "stateMutability": "view",
      "type": "function"
    },
    {
      "inputs": [
        {
          "internalType": "address",
          "name": "newOwner",
          "type": "address"
        }
      ],
      "name": "transferOwnership",
      "outputs": [],
      "stateMutability": "nonpayable",
      "type": "function"
    }
  ],
  "bytecode": "0x608060405234801561000f575f80fd5b50604051610a56380380610a5683398101604081905261002e916100f8565b338061005357604051631e4fbdf760e01b81525f600482015260240160405180910390fd5b61005c8161008e565b50600180546001600160a01b039384166001600160a01b03199182161790915560028054929093169116179055610129565b5f80546001600160a01b038381166001600160a01b0319831681178455604051919092169283917f8be0079c531659141344cd1fd0a4f28419497f9722a3daafe3b4186f6b6457e09190a35050565b80516001600160a01b03811681146100f3575f80fd5b919050565b5f8060408385031215610109575f80fd5b610112836100dd565b9150610120602084016100dd565b90509250929050565b610920806101365f395ff3fe608060405234801561000f575f80fd5b50600436106100e5575f3560e01c806376ffb9bd1161008857806396365d441161006357806396365d44146101c6578063d8094a49146101ce578063da3a5f72146101e1578063f2fde38b146101f4575f80fd5b806376ffb9bd146101945780637c895c5d146101a75780638da5cb5b146101b6575f80fd5b80635312ea8e116100c35780635312ea8e1461012f578063649aca4a1461014257806365d65e8614610161578063715018a61461018c575f80fd5b80631ba77d09146100e95780631d2842591461010b57806336f956701461011a575b5f80fd5b6100f8674563918244f4000081565b6040519081526020015b60405180910390f35b6100f8670de0b6b3a764000081565b61012d61012836600461080c565b610207565b005b61012d61013d366004610839565b610231565b6100f861015036600461080c565b60036020525f908152604090205481565b600254610174906001600160a01b031681565b6040516001600160a01b039091168152602001610102565b61012d6102cd565b600154610174906001600160a01b031681565b6100f8678ac7230489e8000081565b5f546001600160a01b0316610174565b6100f86102e0565b61012d6101dc366004610850565b61034f565b61012d6101ef366004610839565b61069e565b61012d61020236600461080c565b610754565b61020f610791565b600280546001600160a01b0319166001600160a01b0392909216919091179055565b610239610791565b6001546001600160a01b031663a9059cbb61025b5f546001600160a01b031690565b6040516001600160e01b031960e084901b1681526001600160a01b039091166004820152602481018490526044016020604051808303815f875af11580156102a5573d5f803e3d5ffd5b505050506040513d601f19601f820116820180604052508101906102c9919061087b565b5050565b6102d5610791565b6102de5f6107bd565b565b6001546040516370a0823160e01b81523060048201525f916001600160a01b0316906370a0823190602401602060405180830381865afa158015610326573d5f803e3d5ffd5b505050506040513d601f19601f8201168201806040525081019061034a919061089a565b905090565b6002546001600160a01b0316331461039f5760405162461bcd60e51b815260206004820152600e60248201526d139bdd08185d5d1a1bdc9a5e995960921b60448201526064015b60405180910390fd5b5f6040518060600160405280678ac7230489e800008152602001674563918244f400008152602001670de0b6b3a764000081525090505f670de0b6b3a7640000674563918244f40000678ac7230489e800006103fb91906108b1565b61040591906108b1565b6001546040516370a0823160e01b815230600482015291925082916001600160a01b03909116906370a0823190602401602060405180830381865afa158015610450573d5f803e3d5ffd5b505050506040513d601f19601f82011682018060405250810190610474919061089a565b10156104c25760405162461bcd60e51b815260206004820152601960248201527f496e73756666696369656e7420706f6f6c2062616c616e6365000000000000006044820152606401610396565b5f5b6003811015610697578281600381106104df576104df6108d6565b602002015160035f8784600381106104f9576104f96108d6565b60200201602081019061050c919061080c565b6001600160a01b03166001600160a01b031681526020019081526020015f205f82825461053991906108b1565b90915550506001546001600160a01b031663a9059cbb868360038110610561576105616108d6565b602002016020810190610574919061080c565b858460038110610586576105866108d6565b60200201516040516001600160e01b031960e085901b1681526001600160a01b03909216600483015260248201526044016020604051808303815f875af11580156105d3573d5f803e3d5ffd5b505050506040513d601f19601f820116820180604052508101906105f7919061087b565b5084816003811061060a5761060a6108d6565b60200201602081019061061d919061080c565b6001600160a01b03167fb240ba5a3f664944aa209b174c204430b429a0c232ba8dfaec48d50bcf5c424e6106528360016108b1565b858460038110610664576106646108d6565b602090810291909101516040805193845291830152810187905242606082015260800160405180910390a26001016104c4565b5050505050565b6001546040516323b872dd60e01b8152336004820152306024820152604481018390526001600160a01b03909116906323b872dd906064016020604051808303815f875af11580156106f2573d5f803e3d5ffd5b505050506040513d601f19601f82011682018060405250810190610716919061087b565b506040805182815242602082015233917fce66f10ae4269ec7bfd83e4659aed202bd4efb93d241bae453642969c2f079d3910160405180910390a250565b61075c610791565b6001600160a01b03811661078557604051631e4fbdf760e01b81525f6004820152602401610396565b61078e816107bd565b50565b5f546001600160a01b031633146102de5760405163118cdaa760e01b8152336004820152602401610396565b5f80546001600160a01b038381166001600160a01b0319831681178455604051919092169283917f8be0079c531659141344cd1fd0a4f28419497f9722a3daafe3b4186f6b6457e09190a35050565b5f6020828403121561081c575f80fd5b81356001600160a01b0381168114610832575f80fd5b9392505050565b5f60208284031215610849575f80fd5b5035919050565b5f8060808385031215610861575f80fd5b6060830184811115610871575f80fd5b9294923593505050565b5f6020828403121561088b575f80fd5b81518015158114610832575f80fd5b5f602082840312156108aa575f80fd5b5051919050565b808201808211156108d057634e487b7160e01b5f52601160045260245ffd5b92915050565b634e487b7160e01b5f52603260045260245ffdfea2646970667358221220c6dcd39bde9a508ad6d941bf066dcc8a072ac2f448a53bf791c47ebbb064310a64736f6c63430008180033",
  "linkReferences": {},
  "deployedLinkReferences": {}
}